:020000040800F2
:10000000B80A002045010008690B0008ED0A000845
:100010004D0B000899090008051B000800000000AE
:10002000000000000000000000000000BD0D0008FE
:10003000B509000800000000F10B0008D90E000807
:100040005F0100085F0100085F010008490D00081A
:100050005F0100085F0100085F0100085F01000800
:100060005F0100085F0100085F0100085F010008F0
:100070005F0100085F0100085F0100085F010008E0
:100080005F0100085F0100085F0100085F010008D0
:100090005F0100085F0100085F010008E509000832
:1000A0005F0100085F0100085F0100085F010008B0
:1000B000B30F00085F0100085F0100085F0100083E
:1000C0005F0100085F0100085F0100085F01000890
:1000D0005F0100089D180008F518000819190008AC
:1000E000B70900085F0100085F0100085F01000810
:1000F0005F0100085F0100085F0100085F01000860
:100100005F0100085F0100085F0100085F0100084F
:100110000D1700085F010008691100085F01000861
:100120005F0100085F0100085F0100085F0100082F
:10013000DFF80CD000F06CFB00480047292B0008CA
:10014000B80A00200648804706480047FEE7FEE759
:10015000FEE7FEE7FEE7FEE7FEE7FEE7FEE7FEE777
:10016000E90E000831010008A0F14101192900D869
:1001700020307047D2B201E000F8012B491EFBD2BB
:1001800070470022F6E710B513460A4604461946A2
:10019000FFF7F0FF204610BD30B505462A460B4656
:1001A00012F8010B13F8014B08B1A042F8D01CB1B2
:1001B000002802D06D1CF1E7284630BD30B5054659
:1001C0000020034600E05B1C934205D2EC5CC85C57
:1001D000201A01D1002CF6D130BD70B5064601F0D1
:1001E000C3FC046805460A220021304600F062FA8A
:1001F0002C6070BD2DE9FE4F804681EA0300C00FE0
:100200000C46009021F0004123F00045B8EB0200BD
:10021000A94105D24046214690461C460B4602465F
:1002200023F00040104347D0270DC7F30A00C3F363
:100230000A510290401A019040286BDAC3F3130070
:1002400040F4801B0098924620B10023D2EB030AB1
:1002500063EB0B0B01985946C0F14002504600F089
:10026000F8F906460D4650465946019A00F010FA34
:1002700010EB08006141002487EA115284EAE77319
:100280001A4340D0009A62B3019A012A4FEA0752FA
:1002900015DC001B61EB02014FF0004202EA07523D
:1002A000CDE90042001C41F5801132462B4600F09A
:1002B00048FA03B0BDE8F08F40462146F9E7001B3D
:1002C00061EB0201001C41F5801300185B4120180E
:1002D000A2F5001747EB030140EAD570B6196D414E
:1002E00011E06D084FEA360645EAC0754FEA07523D
:1002F000001B61EB0201001C41F5801149084FEA27
:1003000030000019514132462B4603B0BDE8F04F92
:1003100000F008BA0098012240000023D0EB02024E
:1003200063EBE073009821464FEAE074B8EB0000FD
:1003300061EB0401E9E783F000435BE781F00041F2
:1003400058E72DE9FE4F81EA030404F0004421F050
:10035000004100944FF0000B23F0004350EA0104E9
:100360005ED052EA03045BD0C3F30A54C1F30A55CA
:100370002C44A4F2F3340194A0FB0254C1F3130102
:1003800041F48011C3F3130343F4801301FB0244CF
:1003900000FB034E840A970A44EA815447EA8357D4
:1003A000A4FB076802958D0A05FB07854FEA932C8D
:1003B00004FB0C542705029D4FEA065847EA1637FE
:1003C000B5EB08056EEB070C870E920E47EA811716
:1003D00042EA8312A7FB0201B6EB0B0164EB0004B7
:1003E0002B0D43EA0C335E1844EB1C50DA465146A1
:1003F000E7FB0201C5F313044FEA0B3343EA14533E
:100400004FEA0432019C43EA0603A4F10C0402946F
:10041000009CCDE900B400F094F903B0BDE8F08F82
:1004200000200146F9E72DE9F04D81EA030404F0CC
:10043000004B21F0004514464FF0000A23F0004124
:1004400050EA050220D054EA01021DD0C5F30A5734
:100450000246C5F31303C1F31300C1F30A5640F477
:10046000801543F48013A7EB0608101BD64608F24C
:10047000FD3873EB050002D308F1010801E0921882
:100480005B41B8F1000F03DA00200146BDE8F08DB2
:1004900000204FF48011064684460EE0171B73EBD4
:1004A000050705D3121B63EB050306434CEA010C59
:1004B00049084FEA300092185B4150EA0107EDD13C
:1004C00052EA030012D082EA040083EA05010843DD
:1004D00005D0101BAB4106D20122002306E000220A
:1004E0004FF0004302E06FF0010253101AEB0600D8
:1004F0004CEB085110EB0A0041EB0B01BDE8F04D4D
:1005000000F010B970B521F0004303430CD0C1F3E3
:100510000A550024D5EB040564EB0403D617AD1A85
:10052000B34102DB0020014670BD201841EB0251AF
:1005300070BD0EB5C10F80EAE0700844CA07002103
:1005400040F233438DE80E000A460B4600F0F9F8FE
:1005500003B000BD70B5C1F30A5201F0004500249C
:10056000C1F3130140F2FF3341F480119A4201DAE2
:10057000002070BD40F233439A42A2F2334203DCC2
:10058000524200F075F800E090402C43F1D0404218
:1005900070BD000030B5041E71F1000404DB4FF0A3
:1005A0000044404264EB0101141E73F1000405DBBA
:1005B0001C464FF00043524263EB0403994208BFCC
:1005C000904230BD30B50B46014600202022012468
:1005D00009E021FA02F59D4205D303FA02F5491B11
:1005E00004FA02F52844151EA2F10102F1DC30BD27
:1005F0002DE9F05F0546002092469B468846064658
:10060000814640241BE0284641464746224600F0EA
:100610002FF853465A46C01A914110D31146184636
:10062000224600F016F82D1A67EB01084F462246C5
:100630000120002100F00DF817EB00094E41201EAB
:10064000A4F10104DFDC484631462A464346BDE8B2
:10065000F09F202A04DB203A00FA02F100207047C4
:100660009140C2F1200320FA03F3194390407047F0
:10067000202A04DB203A21FA02F00021704721FAF7
:1006800002F3D040C2F1200291400843194670475E
:10069000202A06DBCB17203A41FA02F043EAE07346
:1006A00006E041FA02F3D040C2F120029140084333
:1006B000194670472DE9F04791460F46804604469B
:1006C000002614F8015B2DB100F0B4F80068405D1D
:1006D000C007F6D12B2D02D02D2D18D0641E4A460E
:1006E0003946204600F0AAF827B13968A14201D165
:1006F000C7F8008071054FF002040BD54042002876
:1007000003DD01F031FA0460A007BDE8F08746F48C
:100710008066E4E70028F8DA01F026FA04606FF05A
:100720000040F2E710B5141E73F1000408DA401C13
:1007300041F1000192185B411A4301D120F0010000
:1007400010BD2DE9F04D92469B4611B1B1FA81F2F0
:1007500002E0B0FA80F220329046FFF77AFF0446BA
:100760000F4640EA0A0041EA0B0153465A46084345
:1007700013D0114653EA010019D0C8F14002504687
:10078000FFF776FF05460E46504659464246FFF7AC
:1007900060FF084305D0012004E020463946BDE84B
:1007A000F08D0020054346EAE0762C4337430A9853
:1007B0006305E40AA0EB08000022FD0A44EA47545E
:1007C0000A3002D500200146E9E701051019694108
:1007D000DDE9084500196941BDE8F04DA2E7C1F324
:1007E0000A52C1F3130140F2FF3341F480119A42DF
:1007F00002DA00200146704740F233439A42A2F2E7
:10080000334202DC5242FFF733BFFFF722BF000042
:10081000064C074D06E0E06840F0010394E807004D
:1008200098471034AC42F6D3FFF786FC103F00081F
:10083000303F0008004870470C3F00082DE9F05F8A
:1008400082460078002715468B460AF10104B94616
:10085000302801D09DB113E014F8010B012778284E
:1008600003D0582801D045B10AE00DB1102D07D1B1
:100870000027102514F8010B02E0082500E00A25E6
:100880000026B0460EE005FB080005FB06F1012737
:1008900001EB10461FFA80F8B6F5803F00D3B94649
:1008A00014F8010B294600F069F80028EBDABBF1D7
:1008B000000F05D00FB1641E00E05446CBF8004095
:1008C000B9F1000F06D001F04FF902210160C81EF6
:1008D000BDE8F09F48EA0640FAE72DE9F04D002315
:1008E0001A461B1A8A4103DB00200146BDE8F08D41
:1008F000C1F30A52C1F3130141F480154FF0000B0C
:10090000D10702D100186D41521E0027044640F263
:10091000FF11384601EB620A3E468046024600203F
:100920004FF48011FFF7A4FEC2197141BB1846EBCA
:100930000100B4EB030C75EB000C04D3E41A65EB77
:10094000000517460E46241908F101006D41804646
:100950003428E3DDF91946EB0600091BA84103D250
:100960004FF0FF32134601E0002213461BEB070055
:1009700046EB0A51BDE8F04DFFF7D4BE3A2800D24D
:10098000303820F02002412A01D3A2F137008842FA
:1009900001D34FF0FF30704701A001F0C1F8FBE731
:1009A0000D0A4275734661756C745F48616E646CC4
:1009B00065720000704710B54FF40064204600F0E7
:1009C00025F810B1204600F01BF84FF48044204673
:1009D00000F01CF8002804D02046BDE8104000F0CC
:1009E0000FB810BD10B54FF48074204600F00EF81B
:1009F000002804D02046BDE8104000F001B810BD2A
:100A0000014908607047000014040140064A01468D
:100A100000201268044B0A4014331B680B4202D0BA
:100A2000002A00D00120704700040140F0B5CA78C8
:100A3000002502F00F03D20601D58A7813430A7805
:100A40004FF00F0E12F0FF0F4FF001021CD00468A0
:100A50000F8802FA05F63740B74211D14FEA850CEC
:100A60000EFA0CF724EA070703FA0CF43C43CF789C
:100A7000282F02D0482F02D002E0466100E0066134
:100A80006D1C082DE4D304600C88FF2C1ED944682B
:100A90005FF0000606F1080702FA07F50F882F40FD
:100AA000AF420FD14FEA860C0EFA0CF7BC4303FAA3
:100AB0000CF73C43CF78282F00D14561CF78482FE1
:100AC00000D10561761C082EE4D34460F0BD806837
:100AD00080B270474161704701617047C1607047E3
:100AE0000AB10161704741617047000006A001F042
:100AF00017F80A4801680A4A01F4E06111430160ED
:100B0000BFF3408FFEE700000D0A48617264466142
:100B1000756C745F48616E646C6572000CED00E08A
:100B20000400FA05F8B5064614460D46184600F0CE
:100B30004FF88DF800408DF801608DF802500120CB
:100B40008DF80300684600F011F8F8BD01A000F030
:100B5000E7FFFBE70D0A4D656D4D616E6167655FEF
:100B600048616E646C6572007047000070B50F23B9
:100B7000C47801780122F4B1144C2468457804F457
:100B8000E064C4F5E064240AC4F10406E340847818
:100B9000B5401C402C4301F1E021230181F80034D1
:100BA000007800F01F018A404009800000F1E02039
:100BB000C0F8002170BD01F01F008240480980008C
:100BC00000F1E020C0F8802170BD00000CED00E0D5
:100BD0000249084302490860704700000000FA0516
:100BE0000CED00E0014908627047000000000E4271
:100BF00070470000044A0029D16901D0014300E098
:100C00008143D1617047000000100240044A00296E
:100C1000116901D0014300E0814311617047000078
:100C200000100240044A0029916901D0014300E00C
:100C3000814391617047000000100240044A00297E
:100C4000D16801D0014300E08143D16070470000CA
:100C50000010024030B51F494A6812F00C031E4ACA
:100C600003D0042B01D0082B21D002604A680F2347
:100C70001A4C03EA1212A35C0268DA4042604B6825
:100C8000072505EA1323E35C22FA03F383604B682C
:100C900005EAD323E35CDA40C2604968032303EA30
:100CA0009131231F595CB2FBF1F1016130BD4A68FB
:100CB0004B6802F470124FF0020413F4803F04EB0F
:100CC000924202D04B689B0301D5054B00E0024BDA
:100CD0005A43CAE70010024000127A004C0000207C
:100CE00000093D0002490A8882430A8070470000DB
:100CF000042800400248018841F01001018070473B
:100D0000042800400248018821F01001018070474A
:100D100004280040034800880249091F098840EA66
:100D2000014070471C28004006490988C2B21140A2
:100D3000044A121F1288024202D009B101207047F2
:100D4000002070470428004010B50120FFF7ECFF99
:100D5000002815D00120FFF7C5FFFFF7DBFF094C86
:100D600009496060884204D100221146104600F013
:100D7000B1FC2168002903D06068BDE81040084735
:100D800010BD0000040000207F51010000B50246A4
:100D9000FFF7B0FF0449100C0880081D02805DF8C1
:100DA00004EBFFF7AFBF000018280040024801889D
:100DB0008906FCD5704700000428004070470000F9
:100DC00010B5074800240460042000F079F84FF0C3
:100DD000E0200449416184610721016110BD0000E8
:100DE0000C0000207FFC0A0008B5FF208DF80000F1
:100DF00003208DF8010000208DF8020001208DF8FD
:100E000003006846FFF7B2FE08BD10B5FFF7ECFF20
:100E1000BDE81040FFF7D4BF0CB500212648019172
:100E20000091026842F4803202604FF4A0630268CD
:100E300002F400320092019A521C0192009A12B9F7
:100E4000019A9A42F3D10268920333D501210091AD
:100E50001A490A6842F010020A600A6822F0030286
:100E60000A600A6842F002020A6041684160416813
:100E70004160416841F480614160416821F47C1126
:100E80004160416841F4E8114160016841F08071BE
:100E9000016001688901FCD5416821F003014160CE
:100EA000416841F0020141604168C1F381010229BA
:100EB000FAD10CBD00910CBD001002400020024090
:100EC0004FF0E0210428086903D020F004000861F5
:100ED000704740F00400FAE702480168491C0160CD
:100EE000704700000C0000200F4810B5016841F069
:100EF0000101016041680D4A1140416001680C4ADE
:100F000011400160016821F480210160416821F4F1
:100F1000FE0141604FF41F018160FFF77DFF05492D
:100F20004FF00060086010BD001002400000FFF8A4
:100F3000FFFFF6FE08ED00E008B54FF48070ADF855
:100F4000000010208DF8030003208DF80200694690
:100F50000148FFF76BFD08BD000801403EB50121C7
:100F60000846FFF747FE4FF08044204600F07EF928
:100F7000204600F047FA4820ADF800000021ADF807
:100F800006104FF47A70ADF80210ADF8040069460F
:100F9000204600F051FB0121204600F057F90021C6
:100FA000204600F049F901221146204600F022FABD
:100FB0003EBD10B501218C07204600F00FFA002835
:100FC00008D0012002F04EFE2046BDE8104001216D
:100FD00000F03FB910BD10B500F008F8FFF7BEFFF4
:100FE0000121BDE81040880700F036B908B51C2083
:100FF0008DF8000003208DF8010002208DF802001A
:1010000001208DF803006846FFF7B0FD08BD000021
:10101000B4280BD841F270714843B421B0FBF1F011
:1010200000F2DC5081B2024800F002BB70470000C1
:1010300000040040B4280BD841F270714843B42139
:10104000B0FBF1F000F2DC5081B2024800F0F2BADD
:10105000704700000004004038B5C020ADF8000023
:1010600018208DF8030003248DF8024069460548D6
:10107000FFF7DCFCADF8004069460348FFF7D6FCFB
:1010800038BD000000080140000C014010B50121EE
:101090000220FFF7AFFD0121BDE810401D20FFF742
:1010A000C1BD00002DE9F041FFF7F0FFFFF7D4FFCD
:1010B00028482949294D00684EF66022B0FBF1F11D
:1010C0002748491E2981828001800027C780DFF8D8
:1010D000948047800146404600F0AEFA204C6020E4
:1010E0000A340126208066802888E08027812146F6
:1010F000404600F08DF90821404600F0C9F96680AD
:101100006888E0802146404600F0C8F90821404642
:1011100000F004FA6680A888E0802146404600F08E
:1011200007FA0821404600F041FA6680E888E0802E
:101130002146404600F040FA0821404600F06EFA91
:101140000121404600F078F84046BDE8F041012119
:1011500000F082B834000020C0C62D002800002016
:101160009C0200200004004010B50D4C01212046D7
:1011700000F034F9002812D00121204600F069F86F
:10118000084C207800280AD060784FF4807100F075
:1011900001020548FFF7A4FC6078401C607010BD98
:1011A0000010004010000020000801403EB536202D
:1011B0008DF8000003208DF8010002208DF8020058
:1011C00001208DF803006846FFF7D0FC01211020B4
:1011D000FFF710FD154C204600F048F8144815495B
:1011E0000068B0FBF1F1491EADF800100021ADF828
:1011F0000610FA20ADF80210ADF80400694620464A
:1012000000F01AFA0121204600F020F801212046C2
:1012100000F012F800220121204600F0EBF8012135
:10122000204600F019F800203EBD000000100040EC
:101230003400002040420F000029018802D041F014
:10124000800101E021F0800101807047C9430182E3
:101250007047C943018270470029018802D041F0DC
:10126000010101E021F00101018070474B4910B5F7
:10127000884202D10121C41486E0B0F1804F09D028
:10128000474988420DD101210220FFF7BFFC002110
:10129000022064E001210846FFF7B8FC002101208C
:1012A0005DE04049884206D101210420FFF7AEFCF1
:1012B0000021042053E03C49884206D10121082046
:1012C000FFF7A4FC0021082049E03849884206D1F4
:1012D00001211020FFF79AFC002110203FE0344943
:1012E000884206D101212020FFF790FC0021202018
:1012F00035E03049884202D10121441444E02E49AE
:10130000884202D10121CC043EE02C49884202D11E
:1013100001210C0538E02A49884202D101214C05FF
:1013200032E02849884206D101214020FFF76EFCB7
:101330000021402013E02449884206D10121802069
:10134000FFF764FC0021802009E0204988420AD18F
:10135000841501212046FFF759FC00212046BDE8F5
:101360001040FFF753BC1A49884202D101210C04F6
:101370000AE01849884202D101214C0404E01649D0
:1013800088420AD101218C042046FFF757FC2046F1
:10139000BDE810400021FFF751BC10BD002C0140FA
:1013A0000004004000080040000C00400010004015
:1013B0000014004000340140004C01400050014046
:1013C0000054014000180040001C00400020004074
:1013D0000040014000440140004801400246002016
:1013E000138A92890B4202EA010202D0002A00D03D
:1013F00001207047002A828901D00A4300E08A4315
:1014000082817047018921F0070101817047000046
:1014100030B5028C22F001020284028C8388048B96
:1014200022F0020224F073050C882C430D89154329
:101430004A882A43114DA8420BD0114DA84208D02A
:10144000104DA84205D0104DA84202D00F4DA84221
:101450000DD122F008054A8923F440732A4322F073
:1014600004058A882A438D891D43CB892B438380B9
:101470000483C9888186028430BD0000002C0140AD
:101480000034014000400140004401400048014058
:10149000028B22F008020A430283704770B5028C67
:1014A00022F010020284028C8488038B0D8823F4BE
:1014B000E6464FF6FF7303EA052535430E8922F011
:1014C000200203EA061616434A8803EA0212324350
:1014D000104EB04202D0104EB04215D122F080061C
:1014E0004A8924F4406403EA0212324322F040069F
:1014F0008A8803EA021232438E8903EA860626436B
:10150000CC8903EA8404344384800583C988018735
:10151000028470BD002C014000340140028B4FF664
:10152000FF7322F4006203EA012111430183704733
:1015300070B5028C22F480720284028C8488838BC2
:101540000D8823F073031D4322F400730E894FF6B8
:10155000FF7202EA06261E434B8802EA0323334346
:10156000104EB04202D0104EB04215D123F40066A6
:101570004B8924F4405402EA0323334323F4806666
:101580008B8802EA032333438E8902EA0616264338
:10159000CC8902EA0414344384808583C988818716
:1015A000038470BD002C014000340140828B22F086
:1015B00008020A438283704770B5028C22F480527D
:1015C0000284048C8288838B0D8823F4E6464FF6D0
:1015D000FF7303EA0525354324F400560C8903EA1A
:1015E000043434434E8803EA06362643094CA042AD
:1015F00002D0094CA04205D122F480448A8903EA32
:101600008212224382808583C988A0F84010068414
:1016100070BD0000002C014000340140828B4FF669
:10162000FF7322F4006203EA0121114381837047B2
:10163000818670470187704730B502881B4B1C4C70
:1016400098420DD0A0420BD0B0F1804F08D0194D78
:10165000A84205D0184DA84202D0184DA84203D187
:1016600022F070054A882A43154DA84206D0154D30
:10167000A84203D022F44075CA882A4302808A888F
:1016800082850A88028598420AD0A04208D00E4A74
:10169000904205D00D4A904202D00D4A904201D1AD
:1016A000097A01860121818230BD0000002C0140B1
:1016B000003401400004004000080040000C0040DD
:1016C0000010004000140040004001400044014070
:1016D0000048014070B50D460646144601214FF002
:1016E000C050FFF787FA0120FFF77CFAFFF75EFB97
:1016F0004FF461604643C5EB051006EB80002044C3
:10170000FFF744FBBDE87040FFF750BB70B50D4ECE
:1017100040F22551304600F060F9002810D00A4C04
:101720000120002520706570304600F0E3F9074A7B
:1017300061885054491C88B26080FF2800D96580B8
:1017400070BD0000004C0040140000207800002014
:1017500070B52A49044686B0088840F48070088035
:10176000088840F02000088001214FF4A063342253
:101770000846FFF7D7F90121C804FFF73BFA01211A
:101780001020FFF74FFA1D4D0C3D284600F0E4F8FD
:101790002815ADF8100003208DF812001820184EFF
:1017A0008DF8130004A93046FFF740F9E814ADF8AE
:1017B000100004208DF8130004A93046FFF736F915
:1017C0000020ADF80400ADF80600ADF80800ADF853
:1017D0000C000C20ADF80A0000946946284600F081
:1017E00033F9012240F22551284600F015F9012174
:1017F000284600F0A6F806B070BD00000C4C004072
:101800000010014010B586B001210520FFF70AFA4B
:1018100001218803FFF706FA4FF40070ADF81000BD
:1018200018208DF8130003201A4C8DF8120004A91B
:101830002046FFF7FBF82015ADF8100004208DF8C6
:10184000130004A92046FFF7F1F84FF4E1300090AF
:101850000020ADF80400ADF80600ADF80800ADF8C2
:101860000C000C200C4CADF80A006946204600F034
:10187000EBF8012240F22551204600F0CDF801217D
:10188000204600F05EF84021204600F057F806B0F0
:1018900010BD0000000801400038014010B5084CA0
:1018A00040F22551204600F098F8002807D0204645
:1018B00000F020F9BDE81040C0B202F0F1B910BD4F
:1018C0000038014008B525208DF8000003208DF870
:1018D000010001208DF802008DF803006846FFF733
:1018E00045F908BD10B5FFF7EDFFBDE81040FFF763
:1018F00089BF000010B5074C40F22551204600F08A
:101900006CF8002804D02046BDE8104000F0F2B882
:1019100010BD00000044004010B5074C40F22551B6
:10192000204600F05AF8002804D02046BDE81040B8
:1019300000F0E0B810BD000000480040C94301803D
:1019400070470029818902D041F4005101E021F45F
:101950000051818170470000174910B588420AD1B3
:1019600001218C032046FFF769F92046BDE81040AD
:101970000021FFF763B91149884202D101214C04CB
:1019800010E00F49884202D101218C040AE00D4980
:10199000884202D10121CC0404E00B4988420AD1DB
:1019A00001210C052046FFF731F92046BDE8104023
:1019B0000021FFF72BB910BD003801400044004062
:1019C00000480040004C004000500040024600200B
:1019D00012880A4200D00120704730B501F01F0282
:1019E00001240025C1F3421304FA02F2012B0FD0A7
:1019F000022B0FD0838A4FEA11210088134204FA88
:101A000001F400EA040001D000B10125284630BDF0
:101A10008389F0E7038AEEE710B5C1F3421301F0C2
:101A20001F040121A140012B07D0022B07D0143045
:101A3000002A026805D00A4304E00C30F8E71030B1
:101A4000F6E78A43026010BD30B50446008A85B0CF
:101A50000D464CF6FF710840E98801432182A189B7
:101A60004EF6F3100140A8882A8910436A890A4378
:101A70001043A081A08A4FF6FF410840A989014385
:101A8000A1826846FFF7E6F81948844201D103981D
:101A900000E00298A189090400EBC00101EB0010ED
:101AA000296801D5490000E08900B0FBF1F064220B
:101AB000B0FBF2F109010B096FF018056B4300EB65
:101AC0008300A3891D044FF0320306D503EBC00049
:101AD000B0FBF2F000F0070005E003EB0010B0FBF4
:101AE000F2F000F00F000843208105B030BD000087
:101AF000003801408088C0F308007047C1F3080136
:101B00008180704701A000F00BF8FBE75573616717
:101B1000654661756C745F48616E646C6572000047
:101B20000FB4054B10B503A9044A029800F05EF902
:101B300010BC5DF814FB0000A92700086800002015
:101B4000490050EAC12018BF04204A0D18BF40F0D8
:101B5000010040F2FF72B2EB515F08BF40F002009B
:101B6000012808BF05207047004870477400002016
:101B70002DE9F0414F1E00EBC7010446D1E90001F9
:101B800015461E4637F006020DD02A463346FEF7AC
:101B9000D8FB7F1E04EBC703D3E90023FEF72AFB23
:101BA00037F00602F1D1022F25D0042F13D0062FD3
:101BB00018BFBDE8F0812A463346FEF7C2FBD4E9E0
:101BC0000A23FEF717FB2A463346FEF7BAFBD4E991
:101BD0000823FEF70FFB2A463346FEF7B2FBD4E993
:101BE0000623FEF707FB2A463346FEF7AAFBD4E995
:101BF0000423FEF7FFFA2A463346FEF7A2FBD4E998
:101C00000223FEF7F7FA2A463346FEF79AFBD4E999
:101C10000023BDE8F041FEF7EDBA000000221346B4
:101C200010460149FEF7FFBB0000F03FFEF7E2BAA5
:101C30000022134610461146FEF7F5BB40F2013272
:101C400000204FF0E041FEF75DBC0000024A00209A
:101C50001107FEF757BC000001FDFFFF02E008C8B6
:101C6000121F08C1002AFAD170477047002001E016
:101C700001C1121F002AFBD1704700000149086012
:101C800070470000740000202DE9FF5FDDE90220AD
:101C9000010DDDF838B0024318D044F61050A1F21F
:101CA000FF3141430D140F98012820D0A5EB0B0004
:101CB000401C5FEA000A4FF00004474EDFF81C9119
:101CC000A046504616D5CAF1000728E00F98012417
:101CD00043A2012808D0002100980F9BC0E90021F1
:101CE000C0E90243BDE8FF9F6FEA0B01F4E7CBF1C7
:101CF0000000DEE7074612E0F80707D02246334629
:101D000040464946FEF71DFB80468946224633463B
:101D100010461946FEF715FB04460E467F10002FAD
:101D2000EAD1DDE90201BAF1000F42464B4602DA80
:101D3000FEF707FB01E0FEF776FB04460E460022A5
:101D4000284BFEF727FC03D84FF0FF30014607E091
:101D50000022254B20463146FEF74CFAFEF73FFDA8
:101D6000102409E0002C0ADB0A220023FEF740FCC5
:101D7000019B30321A55641E50EA0102F2D1641CF4
:101D8000019AC4F1110314440F9A012A03D00122CD
:101D900008430DD10AE0084304D000204FF0110B96
:101DA0000F9080E7A3EB0B056D1E0DE05B4504DD96
:101DB0004FF0000205F1010504E003DA4FF00002E4
:101DC000A5F10105002AECD000980F99C0E9023175
:101DD000C0E9004586E70000000024400000F03F15
:101DE000300000000000F0430000E03F2DE9FF4F0D
:101DF00095B09B468946064600250FE2252877D1F7
:101E000000242746F84A0121059400E0044316F80F
:101E1000013F203B01FA03F01042F7D130782A2825
:101E200011D06FF02F033078A0F13002092A16D8B4
:101E3000059A44F0020402EB820203EB42021044D2
:101E4000761C0590EFE759F8042B0592002A03DA77
:101E5000504244F40054059044F00204761C30785B
:101E60002E2816D116F8010F44F004042A280DD0AC
:101E70006FF02F023078A0F13003092B09D807EB5F
:101E8000870302EB4303C718761CF3E759F8047B7A
:101E9000761C30786C280FD006DC4C2817D06828C8
:101EA0000DD06A2814D104E0742810D07A280FD1FC
:101EB0000DE044F400140AE044F4801401E044F41A
:101EC00040147278824202D104F58014761C761C8C
:101ED000307866280BD013DC582877D009DC00282E
:101EE00075D04528F6D04628F4D047281AD19DE170
:101EF00018E0632835D0642879D0652812D195E19F
:101F0000702873D008DC6728F1D069286FD06E285C
:101F10000DD06F2806D1B5E073282CD0752875D068
:101F2000782874D05A46179990476D1C75E1C4F310
:101F30000250022809D003280DD0D9F80010042837
:101F40000DD00D6009F1040967E1D9F80010EA1716
:101F5000C1E90052F6E7D9F800100D80F2E70D70E4
:101F6000F0E719F8041B8DF8001000208DF801002F
:101F7000EA46012003E059F804AB4FF0FF30610757
:101F80004FF0000102D40DE008F101018846B9428A
:101F90000FDA8045F8DB1AF808100029F4D108E0C0
:101FA00008F1010188468142FADB1AF8081000297D
:101FB000F6D105985B46A0EB080721463846179AEC
:101FC00000F094FA284400EB080507E04DE029E111
:101FD0000DE01AF8010B5A4617999047B8F101081D
:101FE000F7D25B4621463846179A13E142E00A22AF
:101FF0000092C4F302524FF0000A022A08D059F8A6
:1020000004CB032A4FEAEC710AD00DE029E02AE064
:1020100009F1070121F00702F2E802C1914609E047
:102020000FFA8CFC4FEAEC71042A03D14FFA8CFCB6
:102030004FEAEC71002907DA0A460021DCF1000CB6
:1020400061EB02012D2202E0220504D52B228DF83E
:102050000420012203E0E20701D02022F7E79046A6
:1020600059E00A2102E010220DE010214FF0000A91
:1020700000910BE010224FF0000A44F004040827FE
:10208000009203E008224FF0000A0092C4F30252CB
:10209000022A05D059F804CB0021032A08D009E010
:1020A00009F1070121F00702F2E802C1914605E0BB
:1020B0001FFA8CFC042A01D10CF0FF0C4FF0000831
:1020C000220728D5702806D0009B83F0100353EA1E
:1020D0000A0305D00EE040228DF80420012208E01A
:1020E0005CEA010206D030228DF804208DF805004C
:1020F00002229046009B83F0080353EA0A030AD1A8
:102100005CEA010201D1620705D530228DF8042076
:102110004FF001087F1E582804D034A003900EA869
:1021200002900DE036A0F9E753466046009AFEF7AC
:102130005FFA84460398825C0298401E0290027007
:102140005CEA0100F0D1029806A9081A00F1200A01
:10215000600702D524F4803400E00127574502DDF2
:10216000A7EB0A0000E0002000EB0A0100900598B0
:102170004144401A0590E00306D45B462146179A75
:10218000059800F0B3F90544002706E001A85A4677
:10219000C05D179990476D1C7F1C4745F6DBE00337
:1021A0000CD55B462146179A059800F09FF9054427
:1021B00004E030205A46179990476D1C0099481E3C
:1021C00000900029F5DC08E0029802995A46007850
:1021D000491C0291179990476D1CBAF10001AAF1B0
:1021E000010AF1DC65E100000928010030313233D9
:1021F0003435363738396162636465660000000043
:10220000303132333435363738394142434445462C
:102210000000000000F058F90544761C30780028D2
:102220007FF4ECAD19B02846BDE8F08F620700D40A
:10223000062709F1070222F0070CFCE80223E14619
:1022400003F000485FEA080C02D00FF2702C0DE09A
:102250005FEA045C02D50FF2682C07E05FEAC47CF9
:1022600002D00FF2602C01E0AFF2700C4FF0FF389B
:1022700023F00043CDF850C065280CD006DC45287B
:1022800009D046281DD047283DD13DE0662818D00A
:1022900067287ED138E00021112F01DB112000E0FA
:1022A000781CCDE9000106A90EA8FFF7EDFCDDE9D9
:1022B0000F010E9A03910021009207F1010A049187
:1022C0004DE04FF000400097CDE9011006A90EA89F
:1022D000FFF7DAFCDDE90F0203920E9B1199002251
:1022E000DDF80CA00093049211B9791C00EB010AEF
:1022F000B7EB0A0004D4C0F1FF3007F1010A0490E3
:10230000AAEB0700019044E0012F00DA0127002129
:10231000112F01DD112000E03846CDE9000106A9AA
:102320000EA8FFF7B1FCDDE90F010E9A0391002121
:1023300004910092BA4621070CD40399514500DA62
:102340008A46BAF1010F05DD009AAAF10101515C3C
:10235000302908D0B84202DA10F1040F06DA012160
:10236000CDE9011015E0AAF10101E9E7002805DC3B
:10237000049901440491AAEB000102E0411C51457B
:1023800000DD8A460499401A401C01904FF000403D
:102390000290200704D40198504501DBCDF8048059
:1023A00000208DF84F0002980DF14F07B0F1004F5B
:1023B00025D02B200E9002984FF0020800280CDA4E
:1023C000404202902D200E9007E00A210298FEF76D
:1023D000F9F83031029007F8011DB8F10001A8F1B9
:1023E0000108F2DC02980028EFD1791E0E980870DF
:1023F000307800F0200040F0450007F8020D12A8E8
:10240000C01B00F107081498007800B1012000EB10
:102410000A01019801EBE07105984144401A401E01
:102420000590E00306D45B462146179A059800F014
:102430005DF805441498007818B15A4617999047EA
:102440006D1CE00324D55B462146179A059800F0E1
:102450004DF805441CE00498002807DBDDE9030182
:10246000884203DD0098405C179901E017993020FD
:102470005A469047049805F10105401C04900198C4
:10248000401E019004D12E205A46179990476D1C8A
:10249000BAF10001AAF1010ADDDC05E017F8010B31
:1024A0005A46179990476D1CB8F10001A8F1010830
:1024B000F4DC5B462146179A0598ABE62D00000038
:1024C0002B000000200000002DE9F041044600250B
:1024D0001E461746880404D405E039462020B0473C
:1024E0006D1C641EF9D52846BDE8F0812DE9F04148
:1024F000044600251E469046C80301D5302700E05B
:102500002027880404D505E041463846B0476D1CB5
:10251000641EF9D52846BDE8F081000070B500F0D2
:10252000B9F8054616A100F099F8174C006917A1F3
:102530002060284600F092F80069606015A12846E6
:1025400000F08CF80069A06014A1284600F086F81D
:102550000069FDF742FEE06001F066FB11A0216812
:10256000FFF7DEFA15A06168FFF7DAFA1AA0A16892
:10257000FFF7D6FAE168BDE870401EA0FFF7D0BAB9
:10258000534F5552434500008C020020545950458A
:10259000000000004E414D45000000004441544100
:1025A0000000000075736172745F636D642E534F99
:1025B00055524345203D2025730D0A007573617205
:1025C000745F636D642E434D445F54595045203D04
:1025D0002025730D0A00000075736172745F636DCE
:1025E000642E454C454D454E54203D2025730D0A23
:1025F0000000000075736172745F636D642E444166
:102600005441203D2025640D0A000000704710B59C
:10261000FEF7CCFDBDE81040FEF78EBC70B5044659
:102620000D4E16E0A0892568C0050AD4A06820B127
:10263000FFF7F4FFA089C00503D4206908B17168D1
:102640008847206A08B171688847716820468847C2
:102650002C46002CE6D170BD5C00002070B50D4604
:10266000846800E024682CB12946206A00F046F80E
:102670000028F7D1204670BD054910B5096828200B
:102680008847040002D02821FDF77BFD204610BDBD
:102690005C00002000221146AFF300802DE9F041DC
:1026A00090460E460446FFF7E7FF134F05004FF034
:1026B0000000B86015D0204601F016FA0146284601
:1026C00000F0C6FC04000FD0B8F1000F10D0204677
:1026D00001F00AFA0446007850B12846FFF79EFF41
:1026E000BC600020BDE8F0812846FFF797FFF8E7BF
:1026F00006B134602846F5E75C00002070B505009F
:102700000C4601D00CB108E009B1012070BD0020D9
:1027100070BD0028FCD0641C6D1C2878FDF724FDDA
:1027200006462078FDF720FD86422878F1D0FDF797
:102730001BFD05462078FDF717FD281A70BD10B562
:10274000002141F2697405E0224602235B1C93429A
:10275000FCDB491CB1EB400FF6DB10BD002107E0AC
:1027600000BF00BF022200BF521C0A2AFBDB491C2B
:102770008142F5DB7047000010B509490120094C82
:102780000870024608212046FEF7AAF93220FFF71A
:10279000D6FF20460022BDE810400821FEF7A0B970
:1027A000130000200018014070B5074D0446C1B267
:1027B0002846FFF7A3F940212846FFF707F900282C
:1027C000F9D0204670BD00000038014010B5002847
:1027D00021D0114B0022001F196803E0814203D869
:1027E0000A4649680029F9D152B11368841A9C42FB
:1027F00004D1006818441060104602E0506000E008
:10280000186039B102680B1A934203D10B681A445D
:1028100002604968416010BD6C00002070B5002462
:102820000021204600F082F800250121002000F060
:10283000FDF86D1CEDB2402DF7D34021204600F08D
:1028400075F800250221002000F0F0F86D1CEDB2B3
:10285000402DF7D3641CE4B2082CE1D370BD000016
:10286000F8B501216020FEF7DDF940F28370ADF884
:10287000000010248DF8034003258DF802506946AE
:102880000D48FEF7D3F88020ADF800000B4E8DF810
:1028900003408DF8025069463046FEF7C7F84FF402
:1028A0007F40ADF800008DF803408DF80250694676
:1028B0003046FEF7BBF8F8BD001401400018014097
:1028C00070B5FFF7CDFF174C80212046FEF702F9C7
:1028D000251529462046FEF7FDF86420FFF72FFF57
:1028E00029462046FEF7F8F86420FFF728FF8021EC
:1028F0000D48FEF7EFF80120FFF730FF0121C0205F
:1029000000F030F801213F2000F02CF80221C02017
:1029100000F028F802213F2000F024F8BDE87040C4
:10292000FFF77CBF001401400018014070B50D4650
:102930000646402901D3022400E001242146C0209C
:1029400000F010F805F03F002146403000F00AF892
:1029500006F007002146BDE87040B830C0B200F074
:1029600001B800002DE9F04706460C46012906D0C3
:10297000022C04D0BDE8F04723A0FFF7D1B8294DC1
:1029800002212846FEF7A8F801F098F80121284610
:10299000FEF7A0F84FF480784FF40079012C2DD089
:1029A00049462846FEF798F802212846FEF792F895
:1029B0001D4F3846FEF78BF8C0B240EA0621384674
:1029C000FEF78CF880213846FEF786F80120FFF7E5
:1029D000C5FE80213846FEF77DF80120FFF7BEFED8
:1029E00002212846FEF778F8012C09D0022C09D1E3
:1029F00049462846BDE8F047FEF76CB84146D0E7A7
:102A00004146F6E7BDE8F087636F6E74726F6C6CD9
:102A100065725F6373282564296572726F722E2E4A
:102A20002E0D0A0000140140001801402DE9F04766
:102A300006460C46012906D0022C04D0BDE8F0471A
:102A400021A0FFF76DB8274D02212846FEF744F874
:102A500001F034F801212846FEF73EF84FF4807863
:102A60004FF40079012C2BD049462846FEF734F864
:102A700002212846FEF72EF81B4F3846FEF727F8AE
:102A8000C0B240EA06213846FEF728F880213846D1
:102A9000FEF722F80120FFF761FE80213846FEF79D
:102AA00019F80120FFF75AFE02212846FEF714F814
:102AB000012C07D049462846BDE8F047FEF70AB882
:102AC0004146D2E74146F6E7636F6E74726F6C6CF5
:102AD00065725F6373282564296572726F722E2E8A
:102AE0002E0D0A00001401400018014000224FF48E
:102AF00080510148FDF7F4BF0014014008B50121E1
:102B00002020FEF78FF84FF48050ADF8000003202E
:102B10008DF8020010208DF8030069460148FDF78A
:102B200085FF08BD0014014001F014F801F00CF815
:102B3000FCE70000F0B50B30154D20F00701002434
:102B4000144A0FE003688B420BD38B4205D95E1AFF
:102B500043184768C3E9006700E04368136002C098
:102B600004E0021D10680028ECD12046002802D1A4
:102B7000286808B10020F0BD064A07481060074ADF
:102B8000121A22F00702C0E9002401202860D7E7CA
:102B9000700000206C000020BC020020B80600205D
:102BA0002DE9F041044608781A4E5B2801D0B16047
:102BB0002BE00520E060481C00F096FF07460078F7
:102BC0005D2806D0FFF758FD0500A06002D038460A
:102BD0000AE0781CBDE8F081FFF74EFD0028F9D02F
:102BE000286045600546601C00F07EFF01462846CF
:102BF00000F02EFA00F078FF040006D020782C2890
:102C0000EAD020785D2802D0B4600020E2E7601CA2
:102C1000E0E700005C0000200178A1F13002092A01
:102C200001D811460AE0A1F14102052A01D837393D
:102C300004E0A1F16102052A3FD857390A0110F8D2
:102C4000011FA1F13003092B01D8303A0AE0A1F1AC
:102C50004103052B01D8373A04E0A1F16103052BAC
:102C60002BD8573A11440A0110F8011FA1F1300383
:102C7000092B01D8303A0AE0A1F14103052B01D814
:102C8000373A04E0A1F16103052B16D8573A1144F5
:102C900040780901A0F13002092A01D8303904E056
:102CA000A0F14102052A02D8373908447047A0F143
:102CB0006102052A01D85739F7E700207047000064
:102CC0002DE9F34F002583B00C4650490120CDE992
:102CD0000051029020782E462F46A846A9462D285E
:102CE00004D100204A49641CCDE900012078302835
:102CF00000D1641C20783138082816D814F8010B4C
:102D00003038FDF716FC82468B460022414B2846A0
:102D10003146FDF716FB52465B46FDF76BFA05465A
:102D200020780E4630380928E8D920782E2824D17A
:102D30006078302841D339283FD8641C14F8010B3F
:102D40003038FDF7F6FB82468B460022314B284691
:102D50003146FDF7F6FA52465B46FDF74BFA05465B
:102D60000E460022294B38464146FDF7E4FA074655
:102D70002078884630380928E0D92078652801D0A5
:102D800045281AD114F8010F2B2802D02D2810D075
:102D900000E0641C6FF02F012078A0F13002092AB6
:102DA0000BD809EB890201EB420200EB0209641C1B
:102DB000F2E74FF0FF300290EBE7029909FB01F0D8
:102DC000FDF7B7FB3A464346FDF714FA02460B46B9
:102DD0000020104900F096F907468846DDE9000119
:102DE0002A463346FDF7ADFA3A464346FDF7A9FABF
:102DF000039AC2E90601FDF7ADFB03994861039808
:102E00000321C16005B02046BDE8F08F0000F03F0F
:102E10000000F0BF000024402DE9F041054608788D
:102E20002A4E7B2801D0B16033E00620E860481CC0
:102E300000F05AFE074600787D2813D0FFF71CFCEF
:102E40000400A8600FD0384600F04EFE0146204630
:102E500000F03EF800F048FE002804D02169002769
:102E600021622CE0781CBDE8F081B06011E0401CCC
:102E700000F03AFE0146204600F0EAF800F034FE89
:102E80000500F0D028782C2805D028787D281BD084
:102E9000B5600020E7E7FFF7EFFB0028E3D02060F4
:102EA00044600446681C00F01FFE0146204600F006
:102EB0000FF800F019FE0028D5D0216921622761A2
:102EC00001783A29D3D0D0E7681CCCE75C00002019
:102ED0002DE9F0470C460646481C227800215A4B43
:102EE000222A07D000209C60BDE8F087401C5C2AA5
:102EF00000D1401C0278222A02D00AB1491CF5D127
:102F0000481C196888470500EED0601C2C464FF419
:102F1000806788E05C2903D004F8011B401C82E034
:102F200000F101084078722814D006DC622809D02C
:102F3000662809D06E2808D10AE074280CD07528BC
:102F400003D10BE0082000E00C2004F8010B68E03E
:102F50000A20FAE70D20F8E70920F6E708F101005A
:102F6000FFF75AFE8146A0F55C4008F10408B8421C
:102F700057D3B9F1000F54D0A9F55840B84217D231
:102F800098F801005C284CD198F80200752848D1C7
:102F900008F10300FFF740FEA0F55C4108F10608C8
:102FA000B9423ED2C9F3090161F39F2000F580398F
:102FB0000420B9F1800F02D20120641C2AE0B9F587
:102FC000006F02D20220A41C06E0B9F5803F02D2B5
:102FD0000320E41C0EE0241D022813D0032809D08E
:102FE00004281DD109F0BF0141F0800104F8011D42
:102FF0004FEA991909F0BF0141F0800104F8011D61
:103000004FEA991909F0BF0141F0800104F8011D50
:103010004FEA99190D49095C41EA090104F8011DBB
:10302000044408F101000178222902D000297FF42C
:1030300071AF002121700178222900D1401C0421A8
:10304000C6E9031550E700005C000020F03D0008D1
:1030500070B50C00054620D0042223A12046FDF7C0
:10306000ADF8E0B1052222A12046FDF7A7F8C8B1CE
:10307000042221A12046FDF7A1F8B8B1207822282A
:1030800019D02D2803D0A0F13001092919D82146E3
:103090002846BDE87040FFF713BE002070BD022037
:1030A000E86006E00020E860601D70BD0120E86077
:1030B0006861201D70BD21462846BDE87040FFF7BD
:1030C00007BF5B2804D07B2808D00D488460E4E764
:1030D00021462846BDE87040FFF762BD21462846DC
:1030E000BDE87040FFF798BE6E756C6C0000000084
:1030F00066616C7365000000747275650000000005
:103100005C0000202DE9F04D16460F4694B01C4699
:1031100021F0004123F00042002814BF4FF0010CC1
:103120004FF0000C0CEB470CFE4B0CEB03054FEA89
:10313000630C65452BD3350018BF012505EB44050D
:103140001D44F94B9D4222D3F84B52EA060C02D0A3
:103150009F4205D148B914B000201946BDE8F08D52
:10316000002808BF4FF0000C01D04FF0010C0CEB11
:10317000470313F5001F0AD8002E14BF4FF0010CAF
:103180004FF0000C0CEB440313F5001F07D914B0EB
:10319000324623463946BDE8F04DFEF747BDDFF81D
:1031A00090834FF0000A002FB8BF424523DAE14B6D
:1031B0009A42A8BF4FF0020A1DDADC4B93421ADC98
:1031C000DD4B03EB2253142B08DDC3F1340C26FA3C
:1031D0000CF303FA0CFCB4450DD108E05EB9C3F161
:1031E000140C22FA0CF303FA0CFC944503D103F0FF
:1031F0000103C3F1020A51EA00031BD1002C19DAC2
:10320000002F18BFBAF1020F02D0BAF1010F07D098
:103210000220FEF733FD14B0BDE8F04DFEF7FEBC12
:103220000220FEF72BFDFEF7F9FC14B081F00041FF
:10323000BDE8F08D330070D1424525D107F18042C1
:1032400012F5801201BF00280020B84914B008BF51
:10325000BDE8F08DB548884207DC002CA1BF1846B8
:10326000214614B0BDE8F08D07E0002CBFBF184622
:1032700084F0004114B0BDE8F08DB0497944D1E943
:10328000000114B0BDE8F08DDFF8A0C262452AD17C
:10329000002C24DA39B1414517D1002804BF0020A1
:1032A00002461CD106E040B10220FEF7E7FCFEF723
:1032B000C5FC0A46394600F0D7BA9D4A394614B0D3
:1032C000002062F31E01BDE8F08D08DA14B03B4621
:1032D000BDE8F04D024600206146FDF7A4B814B0E9
:1032E0003946BDE8F08D414517DAB4F1804F0CD076
:1032F000A4F10053B3F1FF530FD13B1E0DDB14B00B
:103300001946BDE8F04D00F0F9BB3B4614B002464B
:10331000BDE8F04D1946FDF714B8050027F000434D
:103320003AD1E1B1414537D1002F06DD002CA1BFD4
:103330000020414614B0BDE8F08D002F01DD002CC7
:103340001FDB002F16DA002C14DBBAF1010F4FF04F
:10335000000014BF76497A4914B0BDE8F08DBAF187
:10336000020F18BF002F0CD0BAF1010F09D1002FA6
:1033700007DA0BE0002FB8BF002C0DDABAF1010F0D
:1033800004D0002014B00146BDE8F08D14B0002038
:103390004FF00041BDE8F08D4FF0010808EBE77CED
:1033A000CDF814C05CEA0A0C0DD0DFF898C1624574
:1033B0007EDDDFF894C1654B624512DD8B420ADB8E
:1033C000002C18DB23E00120FEF758FC14B0BDE808
:1033D000F04DFEF72DBC554A8A4202DC002C0ADC77
:1033E00015E0994202DA002C11DA04E04F4B9942C1
:1033F00019DD002C0BDD0220FEF740FCFEF71EFC61
:103400004B4A14B061F31E021146BDE8F08D022054
:10341000FEF734FCFEF71AFC444A14B061F31E02B6
:103420001146BDE8F08D00223946FCF784FF0746BF
:103430000D466FF00102FDF765F84FF05532444B31
:10344000FCF77CFF3A462B46FCF77BFF0022414B02
:10345000FCF774FF80468B463A462B4610461946C9
:10346000FCF76FFF42465B46FCF76BFF88460E9009
:103470004FF0C042384B38462946FCF762FF83467E
:103480000091364A344B41460E98FCF75AFF80466D
:103490000191334A334B38462946FCF752FF4246E6
:1034A000019BFCF748FF0D4602460B460C9000E0DE
:1034B00011E058460099FCF79DFE002788465A46C1
:1034C0003846009BFCF737FF2B460C9AFCF736FF7B
:1034D000024600F079B90020B1F5801F07DA3522E5
:1034E00028461946FDF70EF805466FF0340000EB4C
:1034F0002150A0F2FF300190C1F3130040F07F6132
:1035000041F04051029118498842D8BF4FF0000B5A
:1035100035DD16498142C8BF4FF0010B2FDC4FF05B
:10352000000B25E0FFFF1F00FFFF0F000000F03F32
:103530000000F07F0000404301FCFFFF000C000092
:103540000000F0FF0000E0410000F043FFFFEF3F0C
:103550005555D53F0000E03F4715F73FFE822B65EC
:1035600044DF5DF80BAE543E8E9803007AB60B0034
:103570000198401C01900298A0F580100290FF482D
:103580000299784400EBCB000991D0E9002328464A
:103590000B931292FCF7CFFE00910A9028460B9BEA
:1035A000129A0999FCF726FE02460B460020F449C0
:1035B000FCF739FFCDE90C010B46024600990A9849
:1035C000FCF7BFFE0690EF48884600277844029932
:1035D000006810904FF0005040EA610000EB8B4013
:1035E00000F5002102910B9B129A1098FCF7A3FEA4
:1035F0002A46099BFCF7A2FE3A464346FCF7A1FE89
:103600000891129038464146029B109AFCF799FEA9
:10361000009B0A9AFCF792FE089B129AFCF78BFE1D
:10362000DDE90C23FCF78DFE0B91069A12904346C0
:1036300010461946FCF785FE05460246D2480B4661
:103640000A9106217844FEF793FA0A9B2A460891CC
:10365000029010461946FCF774FE089B029AFCF78C
:1036600070FE05460991434638461946069AFCF70E
:10367000C1FD0B9B129AFCF764FE2A46099BFCF7DE
:10368000B9FDCDE908013A46434610461946FCF714
:1036900058FE0A910022BD4B0090FCF7ABFDDDE91E
:1036A0000823FCF7A7FD0D463A46B84B3846FCF711
:1036B00042FE0A9B009AFCF73EFEDDE90823FCF778
:1036C0003DFECDE908013A462B4610464146FCF73F
:1036D00038FE00910A90DDE908014346069AFCF79E
:1036E00030FE069088462B463A460B991298FCF716
:1036F00028FE4346069AFCF77DFD80460B460246AF
:103700000D9100990A98FCF775FD00200F460546BB
:10371000009B0A9AFCF70FFE42460D9BFCF70EFE3B
:1037200088460E904FF06042994B28463946FCF788
:1037300008FE02910090974A954B41460E98FCF77F
:1037400000FE80460391944A944B28463946FCF784
:10375000F8FD4246039BFCF74DFD914A7A4402EB8B
:10376000CB03D3E90023FCF745FD054607910198FB
:10377000FCF7DFFE0C9003912A46079B0299009804
:10378000FCF738FD874A7A4402EBCB03D3E90023E8
:1037900093460193FCF72EFD039B0C9AFCF72AFD40
:1037A000002788463846039B0C9AFCF7C4FD5A460E
:1037B000019BFCF7C0FD029B009AFCF7BCFD2A466A
:1037C000079BFCF7BBFD02460020069005986C4D58
:1037D000AAF10103184301D1734D069000200B4656
:1037E000049030462146FCF7ACFD82468B462346CA
:1037F00030461946049AFCF79EFD3A464346FCF7CC
:10380000A0FD52465B46FCF7F5FC06468A463A4662
:10381000434621460498FCF794FD04460F46324681
:103820005346FCF7E7FC614A8B46914221DBABEB48
:10383000020353EA000210D122463B46FCF77BFD0F
:10384000804603915A4A5B4B30465146FCF7D2FC06
:103850004246039BFCF79EFE27D20220FEF70EFA9B
:10386000FEF7ECF90A46294614B062F31E01BDE8E2
:10387000F08D514B2BF000429A4216D34F4A0BEB7E
:10388000020353EA000208D122463B46FCF753FDEF
:1038900032465346FCF77EFE07D80220FEF7EEF9CB
:1038A000FEF7D4F90A462946DEE72BF000404449EA
:1038B000444A01EB20514FF00008824223DA481CB1
:1038C0004FF4801121FA00F058443F4AC0F30A51E6
:1038D0007A443E4BA1F2FF31CB4020EA0303C0F310
:1038E000130040F4801CC1F1140012682CFA00F897
:1038F000BBF1000FB8BFC8F1000820463946FCF7FD
:103900001AFD04460F4622463B4630465146FCF718
:1039100071FC4FF0000B5A462D4B58460391FCF7B3
:1039200010FD00910A902B4A2B4B58460399FCF747
:1039300008FD0491029022463B4658460399FCF745
:10394000FAFC32465346FCF7F9FC244A244BFCF7B8
:10395000F8FC049B029AFCF74DFC07468A46009B44
:103960000A9AFCF747FC04460E46009B0A9AFCF7AD
:10397000E2FC3A465346FCF7E1FC33E072080000F3
:103980000000F03FB0080000E00700000000084021
:1039900009C7EE3FFD033ADCF5015B14E02F3EBEA4
:1039A000B80600007E0600000000F0BF0000904056
:1039B000FE822B654715973C00CC904000346F3F4A
:1039C00001FCFFFF0000E03FAC050000FFFF0F001F
:1039D000432EE63F396CA80C615C20BEEF39FAFE3D
:1039E000422EE63F0746224633460F9110461946BF
:1039F000FCF7A7FC834602462E488A460B46052163
:103A00007844FEF7B5F85A465346FCF79AFC22462E
:103A10003346FCF793FC82468B463A4620463146B5
:103A20000F9BFCF78EFC3A460F9BFCF7E3FB0F461F
:103A30000A9000224FF0804350465946FCF77BFC29
:103A40000391009052465B4620463146FCF779FCD4
:103A5000039B009AFCF7E7FC3B460A9AFCF76BFCD9
:103A600022463346FCF767FC0022134BFCF766FC4A
:103A70000E46044601EB08510815002810DC4246AA
:103A800020463146FCF73EFDFEF75AF8042808BFF1
:103A9000FEF7DCF8424620463146FCF733FD04468B
:103AA00006980B4614B022462946BDE8F04DFCF7B7
:103AB00048BC0000540400000000F03F08B501219C
:103AC0006020FDF7AFF84FF47F40ADF80000102004
:103AD0008DF8030003208DF8020069460148FCF7C9
:103AE000A5FF08BD0018014000E0401C002804D0DC
:103AF0000178002901D02029F7D970472DE9F0413C
:103B000006460F46FCF7E9FE04000D4618BF0120EB
:103B1000284320F00040C0F17F6000F1E040C00F7A
:103B20000ED0301C18BF0120384320F00040C0F1F7
:103B30007F6000F1E040C00F04BF0120FEF79EF857
:103B400020462946BDE8F08110B500F02DF8002090
:103B500010BD000010B54FF4A060FDF739F8FDF777
:103B6000C1FE4FF4E130FDF7F3FDFDF74EF9FEF72E
:103B7000A7FEFDF730FAFEF74AFDFEF7BFFFFDF79F
:103B800091FA5A20FDF744FA5A20FDF753FA02A0A1
:103B900000F09CF8002010BD68656C6C6F20776F9A
:103BA000726C64210D0A000010B50A4890B00178CB
:103BB00001290CD10024047000F04CF881B2684651
:103BC00000F020F80DF80040684600F095F810B0BD
:103BD00010BD00001800002010B50849084B06E091
:103BE000D2B29A5C00F8012BCA68521CCA60D1E9B3
:103BF0000242A242F4D1104610BD0000180000207D
:103C00008C01002010B50C4601460648D0E9022080
:103C1000101AA04200D284B20846FFF7DDFF20460A
:103C200010BD0000180000200348D0E902129142A4
:103C300000D0C16070470000180000200448D0E99F
:103C40000210081AFF2801D9012070470020704790
:103C5000180000200248D0E90210081A704700003E
:103C6000180000200D4910B5D1E902240023A2421A
:103C700011D0121B4C88A24202D04A808B8010BD0A
:103C80008A881E2AFBD2104480B288801E28F6D370
:103C90000120087010BD4B8010BD000018000020EE
:103CA00010B50246FFF7CAFF10B14FF0FF3010BD4C
:103CB0000448054C8168CBB2491CE2548160084637
:103CC00010BD0000180000208C01002070B5094DC7
:103CD00004000ED00AE080212846FDF777FE002878
:103CE000F9D021782846FDF709FF641C20780028C8
:103CF000F1D170BD0038014030B50446A1B025A017
:103D0000FFF7E4FF2046FEF709FC264C26A1606879
:103D1000FCF742FA002817D024A1A068FCF73CFA6F
:103D20000025B0B180216846FCF72BFAE068214CF1
:103D300001280BD0002807D11FA0FFF7C7FF25706F
:103D4000FEF764FCFEF7D2FE21B030BD01202070EA
:103D5000FAE71BA1A068FCF71FFA78B1802168463A
:103D6000FCF70FFAE0681849012803D00028EBD1CE
:103D70000D70E9E70D70FEF7FFFCE5E713A1A06801
:103D8000FCF70AFA0028DFD114A1A068FCF704FAB6
:103D9000DAE70000BDE2CEF6B4AEBFDAC3FCC1EE96
:103DA0000D0A00008C020020350000006465666585
:103DB0006E73650012000020B3B7B7C00D0A000093
:103DC0006374726C0000000000000020736572765E
:103DD0006F5F766572746963616C000073657276FB
:103DE0006F5F686F72697A6F6E74616C00000000BB
:103DF0000000C0E0F0F8FC00000000000000F03F10
:103E0000000000000000F83F00000000000000007B
:103E10000000004003B8E23F000000000000000086
:103E200006D0CF43EBFD4C3E033333333333E33F14
:103E3000FFAB6FDBB66DDB3F4D268F515555D53F40
:103E400001411DA96074D13F65DBC9934A86CD3F0E
:103E5000EF4E454A287ECA3F3E5555555555C53FFC
:103E600093BDBE166CC166BF2CDE25AF6A56113FEE
:103E7000F16BD2C541BDBBBED0A4BE726937663EF0
:103E80000000000000000000004040404040404072
:103E9000404041414141414040404040404040401D
:103EA00040404040404040404005020202020202C1
:103EB0000202020202020202022020202020202010
:103EC0002020200202020202020290909090909024
:103ED00010101010101010101010101010101010E2
:103EE0001010101002020202020288888888888856
:103EF0000808080808080808080808080808080842
:103F0000080808080202020240000000893E00087A
:103F1000303F000800000020780000005C1C000812
:103F2000A83F000878000020400A00006C1C000830
:103F30000000000000000000000000000000000081
:103F40000000010000000000000000000000000070
:103F50000000000000000000DC05DC05DC05DC05DD
:103F60000000000000A24A04000000000000000061
:103F70000102030406070809020406080000000005
:103F8000010203040102030406070809352B000897
:103F9000CD27000800000000000000000000000025
:083FA000000000000000000019
:0400000508000131BD
:00000001FF
