:020000040800F2
:100000002808002045010008CD0500083905000832
:10001000B1050008C9020008E9110008000000004D
:10002000000000000000000000000000DD070008E4
:1000300005040008000000004106000889080008C7
:100040005F0100085F0100085F0100086907000800
:100050005F0100085F0100085F0100085F01000800
:100060005F0100085F0100085F010008E502000869
:100070005F0100085F0100085F0100085F010008E0
:10008000F502000861030008750200085F0100081E
:100090005F0100085F0100085F01000835040008E7
:1000A0005F0100085F0100085F0100085F010008B0
:1000B000D10900085F010008F50A00085F01000887
:1000C0005F0100085F0100085F0100085F01000890
:1000D0005F010008F50F00084D10000871100008BE
:1000E000070400085F0100085F0100085F010008C5
:1000F0005F0100085F0100085F0100085F01000860
:100100005F0100085F0100085F0100085F0100084F
:10011000190F00085F010008B90C00085F01000812
:100120005F0100085F0100085F0100085F0100082F
:10013000DFF80CD000F08CF800480047B918000830
:10014000280800200648804706480047FEE7FEE7EB
:10015000FEE7FEE7FEE7FEE7FEE7FEE7FEE7FEE777
:100160009908000831010008D2B201E000F8012B23
:10017000491EFBD270470022F6E710B513460A4627
:1001800004461946FFF7F0FF204610BD30B505467E
:100190002A460B4612F8010B13F8014B08B1A04296
:1001A000F8D01CB1002802D06D1CF1E7284630BD04
:1001B0002DE9F05F0546002092469B46884606469C
:1001C000814640241BE0284641464746224600F02F
:1001D0002FF853465A46C01A914110D3114618467B
:1001E000224600F016F82D1A67EB01084F4622460A
:1001F0000120002100F00DF817EB00094E41201EF0
:10020000A4F10104DFDC484631462A464346BDE8F6
:10021000F09F202A04DB203A00FA02F10020704708
:100220009140C2F1200320FA03F319439040704734
:10023000202A04DB203A21FA02F00021704721FA3B
:1002400002F3D040C2F120029140084319467047A2
:10025000064C074D06E0E06840F0010394E8070013
:1002600098471034AC42F6D3FFF766FF1C1B00081A
:100270003C1B000810B5074C4FF40871204600F0F5
:1002800011F8204600F012F80146BDE8104002A027
:1002900000F0B8BF00240140414443313A25640DC9
:1002A0000A0000006FEA112101607047C06C80B243
:1002B00070470029816802D041F4A00101E021F4D7
:1002C000A00181607047000001A000F09BFFFBE7E8
:1002D0000D0A4275734661756C745F48616E646C9B
:1002E0006572000010B501F033FBBDE8104001203D
:1002F00000F060B870B54FF4001000F073F80028FB
:1003000024D00021124800F061F84FF4801000F072
:1003100045F8104C4FF4204060600F4D0F4E02E046
:100320006268521E62603146284600F02BF90028B0
:10033000F6D00121284600F01BF907481430008848
:10034000054818300088E1680020087070BD000082
:100350006C000240400000200054004004000010E7
:1003600010B54FF0007000F03DF800280FD00121CB
:10037000074800F0FDF80021064800F027F84FF08C
:10038000807000F00BF8044900208968088010BDD7
:10039000005400408000024040000020C10002D50F
:1003A00002490860704702494860704704040240EF
:1003B00000000240C10002D50249086070470249AE
:1003C00048607047040402400000024000290168B0
:1003D00002D041F0010102E04FF6FE7211400160CF
:1003E0007047000001460020CA0001D5034A00E022
:1003F000034A12680A4200D00120704700040240FC
:1004000000000240704710B54FF40064204600F031
:1004100025F810B1204600F01BF84FF48044204628
:1004200000F01CF8002804D02046BDE8104000F081
:100430000FB810BD10B54FF48074204600F00EF8D0
:10044000002804D02046BDE8104000F001B810BDDF
:10045000014908607047000014040140064A014643
:1004600000201268044B0A4014331B680B4202D070
:10047000002A00D00120704700040140F0B5CA787E
:10048000002502F00F03D20601D58A7813430A78BB
:100490004FF00F0E12F0FF0F4FF001021CD0046856
:1004A0000F8802FA05F63740B74211D14FEA850CA2
:1004B0000EFA0CF724EA070703FA0CF43C43CF7852
:1004C000282F02D0482F02D002E0466100E00661EA
:1004D0006D1C082DE4D304600C88FF2C1ED94468E1
:1004E0005FF0000606F1080702FA07F50F882F40B3
:1004F000AF420FD14FEA860C0EFA0CF7BC4303FA59
:100500000CF73C43CF78282F00D14561CF78482F96
:1005100000D10561761C082EE4D34460F0BD8068EC
:1005200080B2704741617047016170470AB1016153
:10053000704741617047000006A000F063FE0A4862
:1005400001680A4A01F4E06111430160BFF3408F82
:10055000FEE700000D0A486172644661756C745FC5
:1005600048616E646C6572000CED00E00400FA05F1
:100570000029018802D041F4007101E021F40071EA
:10058000018070470CB50246002000920A0F21F04E
:100590007F41019202D0009A143202E0009A090CC5
:1005A0001832009212680A4200D001200CBD0000EF
:1005B00001A000F027FEFBE70D0A4D656D4D616E51
:1005C0006167655F48616E646C657200704700002A
:1005D00070B50F23C47801780122F4B1144C24685B
:1005E000457804F4E064C4F5E064240AC4F1040628
:1005F000E3408478B5401C402C4301F1E021230105
:1006000081F80034007800F01F018A404009800022
:1006100000F1E020C0F8002170BD01F01F00824011
:100620004809800000F1E020C0F8802170BD000082
:100630000CED00E0014908627047000000000E4226
:1006400070470000044A0029D16901D0014300E04D
:100650008143D1617047000000100240044A002924
:10066000916901D0014300E081439161704700002E
:100670000010024030B51F494A6812F00C031E4AB0
:1006800003D0042B01D0082B21D002604A680F232D
:100690001A4C03EA1212A35C0268DA4042604B680B
:1006A000072505EA1323E35C22FA03F383604B6812
:1006B00005EAD323E35CDA40C2604968032303EA16
:1006C0009131231F595CB2FBF1F1016130BD4A68E1
:1006D0004B6802F470124FF0020413F4803F04EBF5
:1006E000924202D04B689B0301D5054B00E0024BC0
:1006F0005A43CAE70010024000127A00A00000200E
:1007000000093D0002490A8882430A8070470000C0
:10071000042800400248018841F010010180704720
:10072000042800400248018821F010010180704730
:1007300004280040034800880249091F098840EA4C
:10074000014070471C28004006490988C2B2114088
:10075000044A121F1288024202D009B101207047D8
:10076000002070470428004010B50120FFF7ECFF7F
:10077000002815D00120FFF7C5FFFFF7DBFF094C6C
:1007800009496060884204D100221146104600F0F9
:10079000A6FB2168002903D06068BDE81040084727
:1007A00010BD0000640000207F51010000B502462A
:1007B000FFF7B0FF0449100C0880081D02805DF8A7
:1007C00004EBFFF7AFBF0000182800400248018883
:1007D0008906FCD5704700000428004070470000DF
:1007E0000CB50021264801910091026842F4803244
:1007F00002604FF4A063026802F400320092019A92
:10080000521C0192009A12B9019A9A42F3D10268DD
:10081000920333D5012100911A490A6842F010026F
:100820000A600A6822F003020A600A6842F00202C3
:100830000A604168416041684160416841F48061FB
:100840004160416821F47C114160416841F4E81144
:100850004160016841F08071016001688901FCD547
:10086000416821F003014160416841F002014160AB
:100870004168C1F381010229FAD10CBD00910CBD80
:10088000001002400020024002480168491C01603B
:10089000704700006C0000200F4810B5016841F05F
:1008A0000101016041680D4A1140416001680C4A34
:1008B00011400160016821F480210160416821F448
:1008C000FE0141604FF41F018160FFF789FF054978
:1008D0004FF00060086010BD001002400000FFF8FB
:1008E000FFFFF6FE08ED00E070B5048C24F0010473
:1008F0000484058B048C4FF6FF7606EA031313433A
:1009000025F0F3050E4A2B4390420ED00D4A90423B
:100910000BD0B0F1804F08D00B4A904205D00B4A63
:10092000904202D00A4A904202D124F0020201E031
:1009300024F00A020A4342F001010383018470BDDE
:10094000002C014000340140000400400008004039
:10095000000C0040F0B5048C24F010040484078BD4
:10096000048C4FF6FF7527F4734705EA03333B43C6
:1009700005EA02221A43114B05EA011698420ED0ED
:100980000F4B98420BD0B0F1804F08D00D4B9842DE
:1009900005D00D4B984202D00C4B984205D124F063
:1009A0002001314341F0100104E024F0A0030B4387
:1009B00043F0100102830184F0BD0000002C0140CF
:1009C000003401400004004000080040000C0040DA
:1009D00070B502214E07304600F0A6F93D4C78B1C3
:1009E0000221304600F08AF9304600F094F9208068
:1009F0006188084481B23046BDE8704000F03EBADC
:100A00000421304600F090F90025F0B10421304671
:100A100000F074F93048017859B130490A78521C15
:100A2000D2B20A70032A04D905700D702C49012036
:100A30000870304600F071F92080A188084481B226
:100A40003046BDE8704000F01BBA0821304600F087
:100A50006BF978B10821304600F050F9304600F0CB
:100A60005EF92080E188084481B23046BDE87040DC
:100A700000F008BA1021304600F040F919481A4A2F
:100A80000168491C0160107840B118480168491C90
:100A90000160B1F5167F01D90560157000F04CFEBC
:100AA00000F0AAFFE068401CE060642805DB104805
:100AB000E5600178052900D20570304600F031F973
:100AC00020802189084481B23046BDE8704000F0A2
:100AD000DBB9000088000020800000208100002099
:100AE00084000020000000207A0000207C0000200C
:100AF0003800002070B527A000F084FB2A4D0821A3
:100B0000284600F011F9012842D1284CA08888B16C
:100B1000A08801283CD126A000F074FB284600F0F4
:100B2000FEF8608060882188884210D9608821881A
:100B3000401A12E022A000F065FB284600F0EFF812
:100B400020800120A080BDE8704000F043B82088DC
:100B50004FF6FF71081A61880844A060A0681B491D
:100B600048431B49B0FBF1F0E1688842E16801D9D4
:100B7000411A00E0091A022904D9E060216909B18B
:100B8000E06888470020A080BDE8704000F05CB8B5
:100B900070BD0000BDF8C8EBB3ACC9F9B2A8D6D09F
:100BA000B6CF2E2E2E2E0000000800405000002050
:100BB000C9F9B2A8BBD8CFECBDD3CAD52E2E2E0012
:100BC000C9F9B2A8B7A2CBCD2E2E2E00334A05000C
:100BD000400D030010B50E4808210E4C0180022183
:100BE0004180012181800021C18001810146204690
:100BF00000F0A6F80121204600F083F80122082128
:100C0000204600F033F9BDE8104003A000F0FABA26
:100C1000100200200008004054494D345F636833DF
:100C20005F73746172745F636170747572655F463F
:100C3000616C6C696E67B7A2CBCDBDE1CAF82E2E90
:100C40002E330D0A0000000010B50E4808210122C5
:100C50000180002141808280C18001810A4C0146CF
:100C6000204600F06DF80121204600F04AF80122EC
:100C70000821204600F0FAF8BDE8104003A000F07B
:100C8000C1BA0000100200200008004054494D3451
:100C90005F6368335F73746172745F6361707475EE
:100CA00072655F526973696E67B7A2CBCDBDE1CA49
:100CB000F82E2E2E330D0A0010B50D4C01212046C2
:100CC00000F032F8002812D00121204600F016F87A
:100CD000084C207800280AD060784FF4807100F02A
:100CE00001020548FFF722FC6078401C607010BDCF
:100CF000001000407800002000080140C943018234
:100D000070470029018802D041F0010101E021F083
:100D1000010101807047808E7047008F7047808F7F
:100D20007047B0F84000704702460020138A92894D
:100D30000B4202EA010202D0002A00D001207047D3
:100D40002DE9F05F0D4604460888434FDFF80CC1DB
:100D5000DFF80C814988AA882B894FF0804960B35D
:100D6000042833D04FF6FF7E082838D0208C9B46CD
:100D700020F480502084A38B268C704600EA022247
:100D800023F473431A4300EA0B3010430EEA013E8A
:100D9000BC420BD0644509D04C4507D0444505D032
:100DA000304A944202D0304B9C4248D126F4005144
:100DB00041EA0E0141F4805146E02046FFF794FDE0
:100DC000E9882046BDE8F05F00F061B82046FFF7F3
:100DD000C1FDE9882046BDE8F05F00F060B8208CD6
:100DE00020F480702084B4F81CA0208C0EEA031339
:100DF00013432AF0F30A0EEA012B43EA0A03BC422A
:100E00000BD0644509D04C4507D0444505D0154A60
:100E1000944202D0144A944204D120F4007040EA73
:100E20000B0002E020F42060084340F48070A383AC
:100E30002084E9882046BDE8F05F00F03CB826F445
:100E400002420A4342F48051A08320462184E9886B
:100E5000BDE8F05F00F037B8002C014000340140DD
:100E60000004004000080040000C0040002A828975
:100E700001D00A4300E08A4382817047818670472F
:100E80000187704781877047A0F840107047028B38
:100E900022F00C020283028B0A4302837047028B0A
:100EA00022F440620283028B4FF6FF7303EA0121B2
:100EB0000A4302837047828B22F00C028283828B6A
:100EC0000A4382837047828B22F440628283828B42
:100ED0004FF6FF7303EA01210A438283704770B51E
:100EE0000D460646144601214FF0C050FFF7AAFBFD
:100EF0000120FFF79FFBFFF769FC4FF46160464359
:100F0000C5EB051006EB80002044FFF74FFCBDE861
:100F10007040FFF75BBC000070B50D4E40F22551EC
:100F2000304600F0CBF8002810D00A4C01200025F4
:100F300020706570304600F04FF9074A61885054C0
:100F4000491C88B26080FF2800D9658070BD000010
:100F5000004C0040800000202303002010B586B024
:100F600001210520FFF77AFB01218803FFF776FBBB
:100F70004FF40070ADF8100018208DF81300032016
:100F80001A4C8DF8120004A92046FFF777FA2015B5
:100F9000ADF8100004208DF8130004A92046FFF7D7
:100FA0006DFA4FF4E13000900020ADF80400ADF888
:100FB0000600ADF80800ADF80C000C200C4CADF8A4
:100FC0000A006946204600F0B1F8012240F225519E
:100FD000204600F092F80121204600F05EF8402102
:100FE000204600F057F806B010BD00000008014090
:100FF0000038014010B5084C40F22551204600F061
:101000005DF8002807D0204600F0E6F8BDE8104063
:10101000C0B200F03FBD10BD0038014008B525202A
:101020008DF8000003208DF8010001208DF80200EA
:101030008DF803006846FFF7CBFA08BD10B5FFF73F
:10104000EDFFBDE81040FFF789BF000010B5074C69
:1010500040F22551204600F031F8002804D0204607
:10106000BDE8104000F0B8B810BD000000440040DA
:1010700010B5074C40F22551204600F01FF800281B
:1010800004D02046BDE8104000F0A6B810BD000016
:1010900000480040C943018070470029818902D07F
:1010A00041F4005101E021F4005181817047024672
:1010B000002012880A4200D00120704730B501F0AC
:1010C0001F0201240025C1F3421304FA02F2012B8E
:1010D0000FD0022B0FD0838A4FEA112100881342D0
:1010E00004FA01F400EA040001D000B10125284609
:1010F00030BD8389F0E7038AEEE710B5C1F34213F0
:1011000001F01F040121A140012B07D0022B07D0C1
:101110001430002A026805D00A4304E00C30F8E7D6
:101120001030F6E78A43026010BD000030B5044677
:10113000008A85B00D464CF6FF710840E9880143EE
:101140002182A1894EF6F3100140A8882A89104314
:101150006A890A431043A081A08A4FF6FF410840E4
:10116000A9890143A1826846FFF784FA194884429D
:1011700001D1039800E00298A189090400EBC001A5
:1011800001EB0010296801D5490000E08900B0FB9F
:10119000F1F06422B0FBF2F109010B096FF01805C0
:1011A0006B4300EB8300A3891D044FF0320306D587
:1011B00003EBC000B0FBF2F000F0070005E003EB2A
:1011C0000010B0FBF2F000F00F000843208105B0E2
:1011D00030BD0000003801408088C0F3080070472F
:1011E000C1F308018180704701A000F00BF8FBE714
:1011F00055736167654661756C745F48616E646CB8
:10120000657200000FB4054B10B503A9044A02989B
:1012100000F018F810BC5DF814FB0000C1160008BF
:10122000B000002002E008C8121F08C1002AFAD14D
:1012300070477047002001E001C1121F002AFBD156
:10124000704700002DE9FF4F8DB00F460546002680
:1012500006E025280BD0DDE90F1290476D1C761CA7
:1012600028780028F5D111B03046BDE8F08F002471
:10127000A246A1460122EC4900E0044315F8013FD3
:10128000203B02FA03F00842F7D128782A2810D030
:101290006FF02F022878A0F13001092914D80AEB49
:1012A0008A0102EB410144F0020400EB010A6D1CCB
:1012B000F0E701CF5FEA000A03D544F40054CAF115
:1012C000000A44F002046D1C28782E2817D115F866
:1012D000010F44F004042A280ED06FF02F02287862
:1012E000A0F1300109290AD809EB890102EB41017B
:1012F00000EB01096D1CF2E757F8049B6D1C287880
:101300006C280FD006DC4C2817D068280DD06A282E
:1013100014D104E0742810D07A280FD10DE044F4E1
:1013200000140AE044F4801401E044F440146978A5
:10133000814202D104F580146D1C6D1C2A786E2A3E
:101340001FD00CDC632A31D004DC002A8BD0582A51
:1013500011D1A3E0642A68D0692A0CD165E0732A10
:101360002ED004DC6F2A73D0702A04D19BE0752A3A
:101370006FD0782A6ED01046DDE90F129047761CA8
:1013800050E1C4F30250022806D0032809D00428F3
:1013900001CF09D0066045E101CFF117C0E9006136
:1013A00040E101CF06803DE106703BE117F8040BF8
:1013B0008DF8000000208DF80100EB46012003E0CD
:1013C00057F804BB4FF0FF3061074FF0000102D423
:1013D0000DE008F10101884649450FDA8045F8DB48
:1013E0001BF808100029F4D108E008F10101884633
:1013F0008142FADB1BF808100029F6D1DDE90F2342
:10140000AAEB08008146214600F036F9304400EB93
:10141000080604E0DDE90F121BF8010B9047B8F154
:101420000108F7D221464846F7E00A21C4F30253E7
:101430004FF0000B0891022B04D001CFC117032BF2
:1014400009D00AE0FF1D27F00707F7E8020108E0CE
:1014500032E01FE020E000B2C117042B01D140B2FE
:10146000C117031E71F1000307DA4FF0000CD0EB37
:101470000C006CEB01012D2302E0230504D52B2386
:101480008DF82430012303E0E30701D02023F7E7A0
:10149000984658E00A2110E010210EE010204FF08D
:1014A000000B08900CE010214FF0000B44F00404F6
:1014B0004FF00809089103E008214FF0000B089154
:1014C000C4F30253022B04D001CF0021032B06D01A
:1014D00006E0FF1D27F00707F7E8020103E080B2EE
:1014E000042B00D1C0B24FF0000823072BD5702A7F
:1014F00007D0DDF820C08CF0100C5CEA0B0C05D096
:101500000EE040238DF82430012308E050EA010367
:1015100006D030238DF824308DF8252002239846FC
:10152000DDF820C08CF0080C5CEA0B0C0BD150EA03
:10153000010301D1630706D530238DF824304FF025
:101540000108A9F10109582A04D038A20B9208AA6F
:101550000A920BE03AA2F9E75B46089AFEF728FEEA
:101560000B9B9B5C0A9A521E0A92137050EA01026E
:10157000F2D10A98ADEB000000F1200B600702D514
:1015800024F4803401E04FF00109D94502DDA9EBD4
:101590000B0000E0002000EB0B0141440890AAEB97
:1015A000010AE00306D4DDE90F232146504600F08E
:1015B00063F806444FF0000908E009A911F8090092
:1015C000DDE90F12904709F10109761CC145F4DBF2
:1015D000E0030CD5DDE90F232146504600F04CF81E
:1015E000064404E0DDE90F1230209047761C08998C
:1015F000481E08900029F5DC08E00A980A9900784E
:10160000491C0A91DDE90F129047761CBBF10001DD
:10161000ABF1010BF1DC21465046DDE90F2300F070
:1016200019F806446D1C1BE60928010030313233DD
:10163000343536373839616263646566000000000E
:1016400030313233343536373839414243444546F8
:10165000000000002DE9F041044600251E46174613
:10166000880404D405E039462020B0476D1C641E70
:10167000F9D52846BDE8F0812DE9F0410446002562
:101680001E469046C80301D5302700E02027880475
:1016900004D505E041463846B0476D1C641EF9D5B7
:1016A0002846BDE8F081002107E000BF00BF02220C
:1016B00000BF521C0A2AFBDB491C8142F5DB704744
:1016C00070B5074D0446C1B22846FFF789FD402199
:1016D0002846FFF7ECFC0028F9D0204670BD00003A
:1016E00000380140124810B500F1140103880A883F
:1016F000934201D99B1A00E0D31A0E4A52889342B2
:1017000011DC44884B889C4201D9E31A00E01B1B82
:10171000934208DC80888988884201D9401A00E019
:10172000081A904201DD012010BD002010BD00000C
:10173000F2010020380000202DE9FE4F5A4D5B4E8B
:10174000DFF86C81287869784FF0000B08434FF47C
:10175000F84709D139463046FEF7E4FE4046FEF729
:10176000DEFEC043C0067CD0B9464F4F0024103780
:1017700049463046FEF7D8FE37F814103046FEF7DB
:10178000D1FE0120FFF78FFF4046FEF7C8FE6A68D2
:10179000014604EB8403002002EB030221FA00F36C
:1017A00003F001031354401C0528F7DB641C052CCF
:1017B000DEDB3D48002690F802A041680291806877
:1017C0000190019806EB860707EB000902980024B8
:1017D00007EB000837483D1818F8041019F8040002
:1017E000814246D1285D401CC0B22855322802D91A
:1017F0003220285501E0022820D32E4918F8040091
:101800004B3139440A5D904218D0085526490A7870
:1018100088B1521E0A704FF0320A8DF80100391952
:101820002148491CC9B21A30405C8DF80000684656
:1018300000F07AF820E0521C0A70EEE7295D51456D
:101840001AD318F80400B8B9022138198DF801101C
:10185000401C1549C0B21A31085C8DF8000068467A
:1018600000E01EE000F060F8012028554FF0040A67
:1018700002E0012028558346641C052CACDB761C55
:10188000052E9EDB0848BBF1000F80F802A006D0B1
:101890004268C2608168C0E90112012100E00021B4
:1018A0004170BDE8FE8F000004000020000C0140E4
:1018B00000080140B4000020A0B0FFF7BFFB00BF4C
:1018C00000F0E0F80328FBD900F0DCF801460AA09C
:1018D000FFF798FC684600F0A1F869460DA0FFF7F5
:1018E00091FC684600F002F980216846FEF743FC4F
:1018F00000F0AAF8E4E70000B4F2D3A1B4AEBFDA76
:10190000BDD3CAD5B5BDB5C4CAFDBEDD25642E2E76
:101910002E0D0A00BDD3CAD5B5BDB5C4CAFDBEDD06
:101920003A25730D0A00000008490088B1F92A2001
:1019300001EB42021080488D1422401C00B290FB43
:10194000F2F302FB130048850020704718010020C5
:101950002DE9F041264C274D00206178A5F14A037E
:1019600001EB81021E6C05EB420216605E6C566054
:10197000B3F84830491CC9B2138161700A2934D3C5
:101980000021617005F16E0600231A4602EB820702
:1019900005EB4707521C37F81170D2B23B440A2AB4
:1019A000F4D30A22B3FBF2F236F81130934201D29B
:1019B000D31A00E09B1A022B06D90E48643020F897
:1019C000112001208840C0B2491CC9B20529DBD3CF
:1019D00008B161688847FFF785FE002805D02078A8
:1019E000052802D22078401C2070BDE8F08100005C
:1019F000380000208E0100200648D0F82E108163A8
:101A0000D0F83210C163C18EA0F840100121024805
:101A1000FEF74FBCC40100200024014010B5084966
:101A2000084B06E0D2B29A5C00F8012B4A68521CBF
:101A30004A60D1E90042A242F4D1104610BD000034
:101A400070000020240200200648D0E900129142D4
:101A500006D0002141600160FF210348FEF78BBBE7
:101A60007047000070000020240200200448D0E9E4
:101A70000010081AFF2801D9012070470020704784
:101A8000700000200248D0E90010081A70470000DA
:101A90007000002010B50246FFF7E8FF10B14FF0CC
:101AA000FF3010BD0448054C0168CBB2491CE2541C
:101AB0000160084610BD00007000002024020020D4
:101AC00070B5094D04000ED00AE080212846FFF7CA
:101AD000EEFA0028F9D021782846FFF781FB641C34
:101AE00020780028F1D170BD0038014010B50446BF
:101AF00004A0FFF7E5FF2046BDE8104005A1FEF772
:101B000045BB0000BDE2CEF6B4AEBFDAC3FCC1EE09
:101B10000D0A00002274223A350000003C1B000828
:101B200000000020B400000024120008F01B000890
:101B3000B400002074070000341200080000000008
:101B400000003200CD000020E60000200000000070
:101B50000004000800100020004019121606181793
:101B6000110305091410020408000F010D07150EDA
:101B70000A0C0B13000032000000000000000000FF
:101B800000A00000000000000000000000000000B5
:101B90000000000000000000000000000000000045
:101BA0000000000000000000000000000000000035
:101BB0000000000000000000000000000000000025
:101BC00000000000000070175802307560EA000045
:101BD00000000000000000000204060800000000F1
:101BE00001020304010203040607080900000000C3
:0400000508000131BD
:00000001FF
