:020000040800F2
:100000006007002045010008190700088506000860
:10001000FD06000811040008891500080000000012
:100020000000000000000000000000005909000866
:100030004D050008000000008D070008050A0008B3
:100040005F0100085F0100085F010008E508000883
:100050005F0100085F0100085F0100085F01000800
:100060005F0100085F0100085F0100082D0400081F
:100070005F0100085F0100085F0100085F010008E0
:100080003D040008A9040008D10300085F0100082E
:100090005F0100085F0100085F0100087D0500089E
:1000A0005F0100085F0100085F0100085F010008B0
:1000B0004D0B00085F0100087D0C00085F0100087F
:1000C0005F0100085F0100085F0100085F01000890
:1000D0005F01000895130008ED13000811140008D3
:1000E0004F0500085F0100085F0100085F0100087C
:1000F0005F0100085F0100085F0100085F01000860
:100100005F0100085F0100085F0100085F0100084F
:10011000B91200085F010008410E00085F010008E5
:100120005F0100085F0100085F0100085F0100082F
:10013000DFF80CD000F0D8F800480047491E00084E
:10014000600700200648804706480047FEE7FEE7B4
:10015000FEE7FEE7FEE7FEE7FEE7FEE7FEE7FEE777
:10016000150A000831010008D2B201E000F8012BA5
:10017000491EFBD270470022F6E710B513460A4627
:1001800004461946FFF7F0FF204610BD30B505467E
:100190002A460B4612F8010B13F8014B08B1A04296
:1001A000F8D01CB1002802D06D1CF1E7284630BD04
:1001B000421C10F8011B0029FBD1801A704770B552
:1001C000064601F013FA046805460A22002130466B
:1001D00000F052F82C6070BD2DE9F05F054600205C
:1001E00092469B4688460646814640241BE02846A8
:1001F00041464746224600F02FF853465A46C01A59
:10020000914110D311461846224600F016F82D1AD7
:1002100067EB01084F4622460120002100F00DF84F
:1002200017EB00094E41201EA4F10104DFDC484613
:1002300031462A464346BDE8F09F202A04DB203A97
:1002400000FA02F1002070479140C2F1200320FA29
:1002500003F3194390407047202A04DB203A21FA27
:1002600002F00021704721FA02F3D040C2F12002CF
:1002700091400843194670472DE9F04791460F46D3
:1002800080460446002614F8015B2DB100F03EF8CC
:100290000068405DC007F6D12B2D02D02D2D18D05F
:1002A000641E4A463946204600F034F827B13968C2
:1002B000A14201D1C7F8008071054FF002040BD5AF
:1002C0004042002803DD01F091F90460A007BDE879
:1002D000F08746F48066E4E70028F8DA01F086F952
:1002E00004606FF00040F2E7064C074D06E0E0685E
:1002F00040F0010394E8070098471034AC42F6D36D
:10030000FFF71AFFFC2100081C2200080048704774
:10031000F82100082DE9F05F824600780027154695
:100320008B460AF10104B946302801D09DB113E093
:1003300014F8010B0127782803D0582801D045B1C3
:100340000AE00DB1102D07D10027102514F8010B7C
:1003500002E0082500E00A250026B0460EE005FB75
:10036000080005FB06F1012701EB10461FFA80F893
:10037000B6F5803F00D3B94614F8010B294600F0CA
:1003800018F80028EBDABBF1000F05D00FB1641E9E
:1003900000E05446CBF80040B9F1000F06D001F060
:1003A00025F902210160C81EBDE8F09F48EA064019
:1003B000FAE73A2800D2303820F02002412A01D34F
:1003C000A2F13700884201D34FF0FF3070470000A0
:1003D00010B5074C4FF40871204600F011F8204684
:1003E00000F012F80146BDE8104002A001F0DAB8B2
:1003F00000240140414443313A25640D0A000000C5
:100400006FEA112101607047C06C80B27047000034
:1004100001A001F0C7F8FBE70D0A4275734661754C
:100420006C745F48616E646C6572000010B501F019
:1004300011FDBDE81040012000F060B870B54FF428
:10044000001000F073F8002824D00021124800F0BA
:1004500061F84FF4801000F045F8104C4FF4204044
:1004600060600F4D0F4E02E06268521E62603146BE
:10047000284600F02DF90028F6D00121284600F08A
:100480001DF9074814300088054818300088E168D5
:100490000020087070BD00006C0002400C000020BD
:1004A000005400400400001010B54FF0007000F040
:1004B0003DF800280FD00121074800F0FFF8002187
:1004C000064800F027F84FF0807000F00BF8044960
:1004D00000208968088010BD005400408000024060
:1004E0000C000020C10002D5024908607047024993
:1004F000486070470404024000000240C10002D579
:10050000024908607047024948607047040402408D
:10051000000002400029016802D041F0010102E020
:100520004FF6FE7211400160704700000146002046
:10053000CA0001D5034A00E0034A12680A4200D00B
:10054000012070470004024000000240704710B5CF
:100550004FF40064204600F025F810B1204600F06A
:100560001BF84FF48044204600F01CF8002804D00B
:100570002046BDE8104000F00FB810BD10B54FF494
:100580008074204600F00EF8002804D02046BDE814
:10059000104000F001B810BD01490860704700002C
:1005A00014040140064A014600201268044B0A4028
:1005B00014331B680B4202D0002A00D00120704780
:1005C00000040140F0B5CA78002502F00F03D206FE
:1005D00001D58A7813430A784FF00F0E12F0FF0FFF
:1005E0004FF001021CD004680F8802FA05F637406C
:1005F000B74211D14FEA850C0EFA0CF724EA07072F
:1006000003FA0CF43C43CF78282F02D0482F02D0B5
:1006100002E0466100E006616D1C082DE4D3046031
:100620000C88FF2C1ED944685FF0000606F108070D
:1006300002FA07F50F882F40AF420FD14FEA860C20
:100640000EFA0CF7BC4303FA0CF73C43CF78282F83
:1006500000D14561CF78482F00D10561761C082E66
:10066000E4D34460F0BD806880B270474161704758
:1006700001617047C16070470AB101617047416113
:100680007047000006A000F08DFF0A4801680A4A82
:1006900001F4E06111430160BFF3408FFEE7000009
:1006A0000D0A486172644661756C745F48616E64DE
:1006B0006C6572000CED00E00400FA050029018869
:1006C00002D041F4007101E021F400710180704713
:1006D0000CB50246002000920A0F21F07F410192E2
:1006E00002D0009A143202E0009A090C18320092EB
:1006F00012680A4200D001200CBD000001A000F0E9
:1007000051FFFBE70D0A4D656D4D616E6167655FD9
:1007100048616E646C6572007047000070B50F230D
:10072000C47801780122F4B1144C2468457804F4AB
:10073000E064C4F5E064240AC4F10406E34084786C
:10074000B5401C402C4301F1E021230181F8003425
:10075000007800F01F018A404009800000F1E0208D
:10076000C0F8002170BD01F01F00824048098000E0
:1007700000F1E020C0F8802170BD00000CED00E029
:10078000014908627047000000000E4270470000F7
:10079000044A0029D16901D0014300E08143D161BD
:1007A0007047000000100240044A0029116901D07E
:1007B000014300E0814311617047000000100240D6
:1007C000044A0029916901D0014300E0814391610D
:1007D0007047000000100240044A0029D16801D08F
:1007E000014300E08143D1607047000000100240E7
:1007F00030B51F494A6812F00C031E4A03D0042B7F
:1008000001D0082B21D002604A680F231A4C03EA5A
:100810001212A35C0268DA4042604B68072505EAC1
:100820001323E35C22FA03F383604B6805EAD323C6
:10083000E35CDA40C2604968032303EA9131231F75
:10084000595CB2FBF1F1016130BD4A684B6802F4BA
:1008500070124FF0020413F4803F04EB924202D076
:100860004B689B0301D5054B00E0024B5A43CAE796
:100870000010024000127A006400002000093D00D0
:1008800002490A8882430A80704700000428004019
:100890000248018841F0100101807047042800409F
:1008A0000248018821F010010180704704280040AF
:1008B000034800880249091F098840EA014070473F
:1008C0001C28004006490988C2B21140044A121F80
:1008D0001288024202D009B10120704700207047FF
:1008E0000428004010B50120FFF7ECFF002815D0C8
:1008F0000120FFF7C5FFFFF7DBFF094C09496060E6
:10090000884204D100221146104600F0B9FC21684B
:10091000002903D06068BDE81040084710BD000002
:10092000300000207F51010000B50246FFF7B0FF04
:100930000449100C0880081D02805DF804EBFFF7E5
:10094000AFBF000018280040024801888906FCD586
:100950007047000004280040704700000CB50021DB
:10096000264801910091026842F4803202604FF4FF
:10097000A063026802F400320092019A521C0192B4
:10098000009A12B9019A9A42F3D10268920333D5C0
:10099000012100911A490A6842F010020A600A68AF
:1009A00022F003020A600A6842F002020A6041680B
:1009B000416041684160416841F480614160416843
:1009C00021F47C114160416841F4E8114160016803
:1009D00041F08071016001688901FCD5416821F016
:1009E00003014160416841F0020141604168C1F387
:1009F00081010229FAD10CBD00910CBD001002400A
:100A00000020024002480168491C01607047000054
:100A1000380000200F4810B5016841F00101016065
:100A200041680D4A1140416001680C4A1140016063
:100A3000016821F480210160416821F4FE014160D8
:100A40004FF41F018160FFF789FF05494FF00060F7
:100A5000086010BD001002400000FFF8FFFFF6FE26
:100A600008ED00E070B5048C24F001040484058BCB
:100A7000048C4FF6FF7606EA0313134325F0F305C3
:100A80000E4A2B4390420ED00D4A90420BD0B0F14B
:100A9000804F08D00B4A904205D00B4A904202D0BA
:100AA0000A4A904202D124F0020201E024F00A0234
:100AB0000A4342F001010383018470BD002C014010
:100AC000003401400004004000080040000C0040D9
:100AD000F0B5048C24F010040484078B048C4FF6CA
:100AE000FF7527F4734705EA03333B4305EA022207
:100AF0001A43114B05EA011698420ED00F4B98424B
:100B00000BD0B0F1804F08D00D4B984205D00D4B63
:100B1000984202D00C4B984205D124F02001314379
:100B200041F0100104E024F0A0030B4343F0100156
:100B300002830184F0BD0000002C0140003401401C
:100B40000004004000080040000C004000B50121F6
:100B5000A1B0880700F06AFA00280FD001F010FA5F
:100B60002B280BD9684601F0DFF9694604A000F094
:100B700019FD684601F038FA01F0ECF921B000BD2A
:100B8000BDD3CAD5B5BDB5C4CAFDBEDD3A25730D0A
:100B90000A00000008B51C208DF8000003208DF825
:100BA000010002208DF8020001208DF80300684644
:100BB000FFF7B4FD08BD00003EB501210846FFF770
:100BC000E7FD4FF08044204600F076F9204600F023
:100BD000D7FA114844F620610068B0FBF1F1491ED4
:100BE000ADF800100021ADF806103220ADF802106B
:100BF000ADF804006946204600F0F4FA01212046D1
:100C000000F04AF90021204600F03CF9012211468B
:100C1000204600F0ADFA3EBD4C00002010B5FFF7B5
:100C2000B9FFFFF7C9FF0121BDE81040880700F0B8
:100C300039B90000B4280BD841F270714843B4218F
:100C4000B0FBF1F000F2DC5081B2024800F09DBA36
:100C50007047000000040040B4280BD841F27071C6
:100C60004843B421B0FBF1F000F2DC5081B20248FD
:100C700000F08DBA704700000004004070B527A056
:100C800000F090FC2A4D0821284600F0CFF90128F9
:100C900042D1284CA08888B1A08801283CD126A048
:100CA00000F080FC284600F0BFF960806088218851
:100CB000884210D960882188401A12E022A000F0F2
:100CC00071FC284600F0B0F920800120A080BDE82A
:100CD000704000F043B820884FF6FF71081A618811
:100CE0000844A060A0681B4948431B49B0FBF1F0D1
:100CF000E1688842E16801D9411A00E0091A022935
:100D000004D9E060216909B1E06888470020A0802B
:100D1000BDE8704000F05CB870BD0000BDF8C8EBE5
:100D2000B3ACC9F9B2A8D6D0B6CF2E2E2E2E000065
:100D3000000800401C000020C9F9B2A8BBD8CFECC5
:100D4000BDD3CAD52E2E2E00C9F9B2A8B7A2CBCDDD
:100D50002E2E2E00334A0500400D030010B50E481C
:100D600008210E4C01800221418001218180002157
:100D7000C18001810146204600F064F9012120462E
:100D800000F090F801220821204600F0F1F9BDE8BA
:100D9000104003A000F006BC4801002000080040FD
:100DA00054494D345F6368335F73746172745F6379
:100DB0006170747572655F46616C6C696E67B7A22D
:100DC000CBCDBDE1CAF82E2E2E330D0A0000000057
:100DD00010B50E4808210122018000214180828047
:100DE000C18001810A4C0146204600F02BF9012107
:100DF000204600F057F801220821204600F0B8F9FB
:100E0000BDE8104003A000F0CDBB00004801002069
:100E10000008004054494D345F6368335F73746168
:100E200072745F636170747572655F526973696E25
:100E300067B7A2CBCDBDE1CAF82E2E2E330D0A0026
:100E400010B50D4C0121204600F0F0F8002812D01A
:100E50000121204600F023F8084C207800280AD011
:100E600060784FF4807100F001020548FFF704FC40
:100E70006078401C607010BD0010004044000020ED
:100E8000000801400029018802D041F0800101E002
:100E900021F0800101807047C94301827047C94336
:100EA000018270470029018802D041F0010101E070
:100EB00021F00101018070474B4910B5884202D1F1
:100EC0000121C41486E0B0F1804F09D0474988421F
:100ED0000DD101210220FFF767FC0021022064E010
:100EE00001210846FFF760FC002101205DE0404938
:100EF000884206D101210420FFF756FC002104207E
:100F000053E03C49884206D101210820FFF74CFC00
:100F10000021082049E03849884206D101211020EB
:100F2000FFF742FC002110203FE03449884206D1FF
:100F300001212020FFF738FC0021202035E0304936
:100F4000884202D10121441444E02E49884202D152
:100F50000121CC043EE02C49884202D101210C053C
:100F600038E02A49884202D101214C0532E0284963
:100F7000884206D101214020FFF716FC00214020C5
:100F800013E02449884206D101218020FFF70CFCA0
:100F90000021802009E0204988420AD184150121DE
:100FA0002046FFF701FC00212046BDE81040FFF776
:100FB000FBBB1A49884202D101210C040AE01849FE
:100FC000884202D101214C0404E0164988420AD12A
:100FD00001218C042046FFF7FFFB2046BDE81040AE
:100FE0000021FFF7F9BB10BD002C014000040040B8
:100FF00000080040000C00400010004000140040B9
:1010000000340140004C01400050014000540140B8
:1010100000180040001C004000200040004001403B
:101020000044014000480140808F70470246002084
:10103000138A92890B4202EA010202D0002A00D0F0
:10104000012070472DE9F05F0D4604460888434FA4
:10105000DFF80CC1DFF80C814988AA882B894FF092
:10106000804960B3042833D04FF6FF7E082838D07B
:10107000208C9B4620F480502084A38B268C7046C5
:1010800000EA022223F473431A4300EA0B301043B0
:101090000EEA013EBC420BD0644509D04C4507D056
:1010A000444505D0304A944202D0304B9C4248D14E
:1010B00026F4005141EA0E0141F4805146E02046F9
:1010C000FFF7D0FCE9882046BDE8F05F00F061B88A
:1010D0002046FFF7FDFCE9882046BDE8F05F00F000
:1010E00060B8208C20F480702084B4F81CA0208C80
:1010F0000EEA031313432AF0F30A0EEA012B43EA24
:101100000A03BC420BD0644509D04C4507D0444586
:1011100005D0154A944202D0144A944204D120F4D6
:10112000007040EA0B0002E020F42060084340F425
:101130008070A3832084E9882046BDE8F05F00F03A
:101140003CB826F402420A4342F48051A083204670
:101150002184E988BDE8F05F00F037B8002C014039
:10116000003401400004004000080040000C004032
:10117000002A828901D00A4300E08A4382817047B5
:10118000018921F00701018170478186704701873D
:101190007047028B22F00C020283028B0A43028307
:1011A0007047028B22F440620283028B4FF6FF737A
:1011B00003EA01210A4302837047828B22F00C026A
:1011C0008283828B0A4382837047828B22F440623F
:1011D0008283828B4FF6FF7303EA01210A438283E5
:1011E0007047000030B502881B4B1C4C98420DD054
:1011F000A0420BD0B0F1804F08D0194DA84205D0C5
:10120000184DA84202D0184DA84203D122F0700513
:101210004A882A43154DA84206D0154DA84203D04E
:1012200022F44075CA882A4302808A8882850A8807
:10123000028598420AD0A04208D00E4A904205D0BA
:101240000D4A904202D00D4A904201D1097A01869E
:101250000121818230BD0000002C0140003401409A
:101260000004004000080040000C00400010004056
:10127000001400400040014000440140004801408B
:1012800070B50D460646144601214FF0C050FFF7D9
:101290007FFA0120FFF774FAFFF756FB4FF4616005
:1012A0004643C5EB051006EB80002044FFF73CFBEE
:1012B000BDE87040FFF748BB70B50D4E40F22551B8
:1012C000304600F0CBF8002810D00A4C0120002551
:1012D00020706570304600F04FF9074A618850541D
:1012E000491C88B26080FF2800D9658070BD00006D
:1012F000004C0040480000205B02002010B586B082
:1013000001210520FFF75CFA01218803FFF758FA55
:101310004FF40070ADF8100018208DF81300032072
:101320001A4C8DF8120004A92046FFF74BF920153E
:10133000ADF8100004208DF8130004A92046FFF733
:1013400041F94FF4E13000900020ADF80400ADF811
:101350000600ADF80800ADF80C000C200C4CADF800
:101360000A006946204600F0B1F8012240F22551FA
:10137000204600F092F80121204600F05EF840215E
:10138000204600F057F806B010BD000000080140EC
:101390000038014010B5084C40F22551204600F0BD
:1013A0005DF8002807D0204600F0E6F8BDE81040C0
:1013B000C0B200F0EDBD10BD0038014008B52520D9
:1013C0008DF8000003208DF8010001208DF8020047
:1013D0008DF803006846FFF7A1F908BD10B5FFF7C7
:1013E000EDFFBDE81040FFF789BF000010B5074CC6
:1013F00040F22551204600F031F8002804D0204664
:10140000BDE8104000F0B8B810BD00000044004036
:1014100010B5074C40F22551204600F01FF8002877
:1014200004D02046BDE8104000F0A6B810BD000072
:1014300000480040C943018070470029818902D0DB
:1014400041F4005101E021F40051818170470246CE
:10145000002012880A4200D00120704730B501F008
:101460001F0201240025C1F3421304FA02F2012BEA
:101470000FD0022B0FD0838A4FEA1121008813422C
:1014800004FA01F400EA040001D000B10125284665
:1014900030BD8389F0E7038AEEE710B5C1F342134C
:1014A00001F01F040121A140012B07D0022B07D01E
:1014B0001430002A026805D00A4304E00C30F8E733
:1014C0001030F6E78A43026010BD000030B50446D4
:1014D000008A85B00D464CF6FF710840E98801434B
:1014E0002182A1894EF6F3100140A8882A89104371
:1014F0006A890A431043A081A08A4FF6FF41084041
:10150000A9890143A1826846FFF772F9194884420C
:1015100001D1039800E00298A189090400EBC00101
:1015200001EB0010296801D5490000E08900B0FBFB
:10153000F1F06422B0FBF2F109010B096FF018051C
:101540006B4300EB8300A3891D044FF0320306D5E3
:1015500003EBC000B0FBF2F000F0070005E003EB86
:101560000010B0FBF2F000F00F000843208105B03E
:1015700030BD0000003801408088C0F3080070478B
:10158000C1F308018180704701A000F00BF8FBE770
:1015900055736167654661756C745F48616E646C14
:1015A000657200000FB4054B10B503A9044A0298F8
:1015B00000F030F810BC5DF814FB0000ED1A0008D4
:1015C000740000200FB4084B10B504A902AA0398B8
:1015D00000F020F8044602A9002000F04CFA204652
:1015E00010BC5DF814FB0000771A00080048704733
:1015F0007800002002E008C8121F08C1002AFAD1B2
:1016000070477047002001E001C1121F002AFBD182
:10161000704700002DE9FF4F8DB00F4605460026AC
:1016200006E025280BD0DDE90F1290476D1C761CD3
:1016300028780028F5D111B03046BDE8F08F00249D
:10164000A246A1460122EC4900E0044315F8013FFF
:10165000203B02FA03F00842F7D128782A2810D05C
:101660006FF02F022878A0F13001092914D80AEB75
:101670008A0102EB410144F0020400EB010A6D1CF7
:10168000F0E701CF5FEA000A03D544F40054CAF141
:10169000000A44F002046D1C28782E2817D115F892
:1016A000010F44F004042A280ED06FF02F0228788E
:1016B000A0F1300109290AD809EB890102EB4101A7
:1016C00000EB01096D1CF2E757F8049B6D1C2878AC
:1016D0006C280FD006DC4C2817D068280DD06A285B
:1016E00014D104E0742810D07A280FD10DE044F40E
:1016F00000140AE044F4801401E044F440146978D2
:10170000814202D104F580146D1C6D1C2A786E2A6A
:101710001FD00CDC632A31D004DC002A8BD0582A7D
:1017200011D1A3E0642A68D0692A0CD165E0732A3C
:101730002ED004DC6F2A73D0702A04D19BE0752A66
:101740006FD0782A6ED01046DDE90F129047761CD4
:1017500050E1C4F30250022806D0032809D004281F
:1017600001CF09D0066045E101CFF117C0E9006162
:1017700040E101CF06803DE106703BE117F8040B24
:101780008DF8000000208DF80100EB46012003E0F9
:1017900057F804BB4FF0FF3061074FF0000102D44F
:1017A0000DE008F10101884649450FDA8045F8DB74
:1017B0001BF808100029F4D108E008F1010188465F
:1017C0008142FADB1BF808100029F6D1DDE90F236E
:1017D000AAEB08008146214600F036F9304400EBC0
:1017E000080604E0DDE90F121BF8010B9047B8F181
:1017F0000108F7D221464846F7E00A21C4F3025314
:101800004FF0000B0891022B04D001CFC117032B1E
:1018100009D00AE0FF1D27F00707F7E8020108E0FA
:1018200032E01FE020E000B2C117042B01D140B22A
:10183000C117031E71F1000307DA4FF0000CD0EB63
:101840000C006CEB01012D2302E0230504D52B23B2
:101850008DF82430012303E0E30701D02023F7E7CC
:10186000984658E00A2110E010210EE010204FF0B9
:10187000000B08900CE010214FF0000B44F0040422
:101880004FF00809089103E008214FF0000B089180
:10189000C4F30253022B04D001CF0021032B06D046
:1018A00006E0FF1D27F00707F7E8020103E080B21A
:1018B000042B00D1C0B24FF0000823072BD5702AAB
:1018C00007D0DDF820C08CF0100C5CEA0B0C05D0C2
:1018D0000EE040238DF82430012308E050EA010394
:1018E00006D030238DF824308DF825200223984629
:1018F000DDF820C08CF0080C5CEA0B0C0BD150EA30
:10190000010301D1630706D530238DF824304FF051
:101910000108A9F10109582A04D038A20B9208AA9B
:101920000A920BE03AA2F9E75B46089AFEF754FCEC
:101930000B9B9B5C0A9A521E0A92137050EA01029A
:10194000F2D10A98ADEB000000F1200B600702D540
:1019500024F4803401E04FF00109D94502DDA9EB00
:101960000B0000E0002000EB0B0141440890AAEBC3
:10197000010AE00306D4DDE90F232146504600F0BA
:1019800063F806444FF0000908E009A911F80900BE
:10199000DDE90F12904709F10109761CC145F4DB1E
:1019A000E0030CD5DDE90F232146504600F04CF84A
:1019B000064404E0DDE90F1230209047761C0899B8
:1019C000481E08900029F5DC08E00A980A9900787A
:1019D000491C0A91DDE90F129047761CBBF100010A
:1019E000ABF1010BF1DC21465046DDE90F2300F09D
:1019F00019F806446D1C1BE609280100303132330A
:101A0000343536373839616263646566000000003A
:101A10003031323334353637383941424344454624
:101A2000000000002DE9F041044600251E4617463F
:101A3000880404D405E039462020B0476D1C641E9C
:101A4000F9D52846BDE8F0812DE9F041044600258E
:101A50001E469046C80301D5302700E020278804A1
:101A600004D505E041463846B0476D1C641EF9D5E3
:101A70002846BDE8F0810A68531C0B60107070475F
:101A8000704710B5002141F2697405E02246022337
:101A90005B1C9342FCDB491CB1EB400FF6DB10BD35
:101AA000002107E000BF00BF022200BF521C0A2A2B
:101AB000FBDB491C8142F5DB7047000010B509498A
:101AC0000120094C0870024608212046FEF7D4FD8B
:101AD0003220FFF7D6FF20460022BDE81040082143
:101AE000FEF7CABD470000200018014070B5074D41
:101AF0000446C1B22846FFF743FD40212846FFF7C0
:101B0000A6FC0028F9D0204670BD00000038014036
:101B100070B50C46054680211A48FEF72CFB1AA129
:101B20002046FEF733FB20B1224619A11548FFF7E6
:101B300049FD14492846FEF729FB04001CD0114832
:101B4000FEF736FB40B2044480210E48FEF713FB3B
:101B50000C4900202278222A05D00A54401C40B2A9
:101B6000641C0A28F6DB08440022427005490AA0DA
:101B7000FFF718FD034870BD0AA0FFF713FD002012
:101B800070BD00005201002064617461000000001B
:101B9000222573223A220000CAFDD6B53D25730DD9
:101BA0000A000000BFD5D7D6B7FBA3A10D0A0000DD
:101BB000124810B500F1140103880A88934201D934
:101BC0009B1A00E0D31A0E4A5288934211DC4488D3
:101BD0004B889C4201D9E31A00E01B1B934208DCAE
:101BE00080888988884201D9401A00E0081A90420A
:101BF00001DD012010BD002010BD00002A010020E1
:101C00000400002070B505464600F0B2002100F047
:101C100034F800240121002000F0AEF8641CE4B286
:101C2000402CF7D3012000EB4505E8B2002100F07D
:101C300024F800240121002000F09EF8641CE4B286
:101C4000402CF7D3F0B2402100F017F80024022115
:101C5000002000F091F8641CE4B2402CF7D3E8B205
:101C6000402100F00AF800240221002000F084F84E
:101C7000641CE4B2402CF7D370BD70B50D46064627
:101C8000402901D3022400E001242146C02000F0B5
:101C90000FF805F03F002146403000F009F806F04B
:101CA00007002146BDE87040B830C0B2AFF30080F5
:101CB0002DE9F04706460C46012906D0022C04D037
:101CC000BDE8F04723A0FFF76DBC294D022128464F
:101CD000FEF7CEFC00F012F901212846FEF7C6FC03
:101CE0004FF480784FF40079012C2DD049462846D6
:101CF000FEF7BEFC02212846FEF7B8FC1D4F384611
:101D0000FEF7B1FCC0B240EA06213846FEF7B2FC4D
:101D100080213846FEF7ACFC0120FFF7C1FE802190
:101D20003846FEF7A3FC0120FFF7BAFE0221284641
:101D3000FEF79EFC012C09D0022C09D14946284609
:101D4000BDE8F047FEF792BC4146D0E74146F6E7D2
:101D5000BDE8F087636F6E74726F6C6C65725F6361
:101D600073282564296572726F722E2E2E0D0A005B
:101D700000140140001801402DE9F04706460C46CA
:101D8000012906D0022C04D0BDE8F04721A0FFF7BE
:101D900009BC274D02212846FEF76AFC00F0AEF888
:101DA00001212846FEF764FC4FF480784FF4007957
:101DB000012C2BD049462846FEF75AFC0221284622
:101DC000FEF754FC1B4F3846FEF74DFCC0B240EA0C
:101DD00006213846FEF74EFC80213846FEF748FCC7
:101DE0000120FFF75DFE80213846FEF73FFC012011
:101DF000FFF756FE02212846FEF73AFC012C07D0D9
:101E000049462846BDE8F047FEF730BC4146D2E7D8
:101E10004146F6E7636F6E74726F6C6C65725F6358
:101E200073282564296572726F722E2E2E0D0A009A
:101E3000001401400018014000224FF48051014875
:101E4000FEF71ABC00140140FFF7C8FAFEF7E6FEE1
:101E5000FEE700002DE9F041264C274D0020617877
:101E6000A5F14A0301EB81021E6C05EB42021660EC
:101E70005E6C5660B3F84830491CC9B2138161707A
:101E80000A2934D30021617005F16E0600231A4639
:101E900002EB820705EB4707521C37F81170D2B2EC
:101EA0003B440A2AF4D30A22B3FBF2F236F811308B
:101EB000934201D2D31A00E09B1A022B06D90E4896
:101EC000643020F8112001208840C0B2491CC9B2FA
:101ED0000529DBD308B161688847FFF769FE002850
:101EE00005D02078052802D22078401C2070BDE85B
:101EF000F081000004000020C600002008B5012188
:101F00006020FEF75DFC4FF47F40ADF8000010202C
:101F10008DF8030003208DF8020069460148FEF7A2
:101F200051FB08BD0018014010B50849084B06E0F8
:101F3000D2B29A5C00F8012B4A68521C4A60D1E97F
:101F40000042A242F4D1104610BD00003C00002027
:101F50005C0100200348D0E90012914200D04160AA
:101F6000704700003C0000200448D0E90010081A27
:101F7000FF2801D901207047002070473C00002055
:101F80000248D0E90010081A704700003C00002009
:101F900010B50246FFF7E8FF10B14FF0FF3010BD5B
:101FA0000448054C0168CBB2491CE2540160084664
:101FB00010BD00003C0000205C01002070B5094D00
:101FC00004000ED00AE080212846FFF740FA0028DE
:101FD000F9D021782846FFF7D3FA641C207800282E
:101FE000F1D170BD0038014070B50646A0B034A0F4
:101FF000FFF7E4FF36A13046FEF7C8F8002811D0FD
:1020000035A13046FEF7C2F80024E0B180216846D1
:10201000FEF7B1F835A13046FEF7B8F8364D18B1E5
:102020000120287020B070BD34A0FFF7C7FF2C70CE
:10203000FFF726FDFFF700FF0220FFF7E3FD032077
:10204000FFF7E0FDEEE72FA13046FEF79FF8A8B1BD
:1020500080216846FEF78FF824A13046FEF796F8F7
:102060002C4D18B12C70FFF729FDDBE72AA1304673
:10207000FEF78CF80028D5D02C70D3E729A1304684
:10208000FEF784F848B12EA13046FFF741FDFEF778
:1020900096F8C0B2FEF7CEFDC4E72BA13046FEF79E
:1020A00075F80028BED02FA0FFF788FF24A1304686
:1020B000FFF72EFDFEF783F8C0B2FEF7CDFDB1E7C6
:1020C000BDE2CEF6B4AEBFDAC3FCC1EE0D0A00002D
:1020D0002274223A3500000022636D647461672225
:1020E0003A22646566656E7365220000226461743D
:1020F00061223A223122000046000020B3B7B7C067
:102100000D0A000022636D64746167223A226374D1
:10211000726C2200000000202264617461223A3057
:102120000000000022636D64746167223A227365C7
:1021300072766F5F766572746963616C220000006D
:10214000646174610000000022636D647461672241
:102150003A22736572766F5F686F72697A6F6E7418
:10216000616C2200B6E6BBFACBAEC6BDB5F7D5FBB7
:102170000D0A000000404040404040404040414186
:10218000414141404040404040404040404040404C
:1021900040404040400502020202020202020202E6
:1021A00002020202022020202020202020202002E3
:1021B0000202020202029090909090901010101073
:1021C000101010101010101010101010101010100F
:1021D00002020202020288888888888808080808A3
:1021E000080808080808080808080808080808086F
:1021F0000202020240000000752100081C220008B3
:10220000000000207C000000F4150008982200085F
:102210007C000020E4060000041600080000000016
:1022200000003200000000000000000000A00000DC
:10223000000000000000000000000000000000009E
:10224000000000000000000000000000000000008E
:10225000000000000000000000000000000000007E
:10226000000001000000000000A24A04000000007D
:102270000000000001020304060708090204060822
:10228000000000000102030401020304060708091C
:08229000000000000000000046
:0400000508000131BD
:00000001FF
