:020000040800F2
:10000000C8050020450100086D0700081907000811
:1000100051070008A1040008591100080000000061
:10002000000000000000000000000000D9090008E6
:10003000F305000800000000E1070008850A000839
:100040005F0100085F0100085F0100086509000802
:100050005F0100085F0100085F0100085F01000800
:100060005F0100085F0100085F0100085F010008F0
:100070005F0100085F0100085F0100085F010008E0
:100080005F0100085F0100085F0100085F010008D0
:100090005F0100085F0100085F01000823060008F7
:1000A0005F0100085F0100085F0100085F010008B0
:1000B0003B0B00085F0100085F0100085F010008BA
:1000C0005F0100085F0100085F0100085F01000890
:1000D0005F010008650F0008BD0F0008E10F000870
:1000E000F50500085F0100085F0100085F010008D6
:1000F0005F0100085F0100085F0100085F01000860
:100100005F0100085F0100085F0100085F0100084F
:10011000890E00085F010008990B00085F010008C4
:100120005F0100085F0100085F0100085F0100082F
:10013000DFF80CD000F094F800480047851700085D
:10014000C80500200648804706480047FEE7FEE74E
:10015000FEE7FEE7FEE7FEE7FEE7FEE7FEE7FEE777
:10016000950A000831010008D2B201E000F8012B25
:10017000491EFBD270470022F6E710B513460A4627
:1001800004461946FFF7F0FF204610BD30B505467E
:100190002A460B4612F8010B13F8014B08B1A04296
:1001A000F8D01CB1002802D06D1CF1E7284630BD04
:1001B000421C10F8011B0029FBD1801A70472DE961
:1001C000F05F0546002092469B46884606468146DB
:1001D00040241BE0284641464746224600F02FF8BF
:1001E00053465A46C01A914110D31146184622462A
:1001F00000F016F82D1A67EB01084F462246012041
:10020000002100F00DF817EB00094E41201EA4F16B
:100210000104DFDC484631462A464346BDE8F09FEC
:10022000202A04DB203A00FA02F1002070479140B6
:10023000C2F1200320FA03F3194390407047202AAB
:1002400004DB203A21FA02F00021704721FA02F380
:10025000D040C2F120029140084319467047000087
:10026000064C074D06E0E06840F0010394E8070003
:1002700098471034AC42F6D3FFF75EFF641A0008CB
:10028000841A000808B50121084600F0B5FA0121DA
:100290004FF4047000F0D4FA0220ADF80000002002
:1002A0008DF803006946034800F0E0F9BDE8084016
:1002B00000F002B80010014070B52C4E90B03046EE
:1002C00000F008F92A4800902A4801A900240125D5
:1002D00081E8310028020494CDE9054080000790B0
:1002E000202008900002CDE909046946304600F05C
:1002F00063F90121304600F0E1F88DF830400B94AD
:100300008DF831504FF46020CDE90D04184C8DF874
:100310003C504C3C0BA9204600F050F84FF44040B4
:1003200000F060FA052301220B21204600F06AF854
:100330000121204600F02AF80121204600F01CF897
:10034000204600F099F8204600F031F80028FAD154
:10035000204600F0A0F8204600F022F80028FAD14C
:100360000121204600F08DF810B070BD0800024059
:100370004C240140240000200029816802D041F073
:10038000010101E021F001018160704700298168CD
:1003900002D041F4807101E021F4807181607047E6
:1003A000014600208968490700D5012070470146B1
:1003B00000208968090700D50120704710B5426800
:1003C0000E4B0C791A400B6842EA04221343436037
:1003D00083680B4A1340D1E9024222434C7943EA35
:1003E00044031A438260C26A097C22F47002491EE7
:1003F000C9B242EA0151C16210BD0000FFFEF0FF28
:10040000FDF7F1FF70B5072409290AD9C568A1F1E4
:100410000A0606EB4606B440A543B3401D43C5603B
:1004200007E0056901EB4106B440A543B3401D4315
:1004300005611F23072A09D2446B521E02EB820278
:1004400093409C4391400C43446370BD0D2A09D2F4
:10045000046BD21F02EB820293409C4391400C43F9
:10046000046370BDC46A0D3A02EB820293409C4360
:1004700091400C43C46270BD816841F00801816005
:1004800070470029816802D041F4A00101E021F405
:10049000A00181607047816841F00401816070476C
:1004A00001A000F067FEFBE70D0A42757346617517
:1004B0006C745F48616E646C6572000000290168AD
:1004C00002D041F0010102E04FF6FE7211400160DE
:1004D0007047000001684FF6FE7211400160002174
:1004E000016041608160C1603149314A0839904200
:1004F00003D1486840F00F0006E02D4A14329042C4
:1005000004D1486840F0F00048607047284A28321B
:10051000904203D1486840F47060F5E7244A3C32C9
:10052000904203D1486840F47040EDE7204A5032D1
:10053000904203D1486840F47020E5E71C4A6432D9
:10054000904203D1486840F47000DDE7184A7832E1
:10055000904203D1486840F07060D5E7154A111FFA
:10056000904203D1086840F00F0006E0114A1432AF
:10057000904204D1086840F0F000086070470D4ACE
:100580002832904203D1086840F47060F5E7094AC8
:100590003C32904203D1086840F47040EDE7054AD0
:1005A00050329042EAD1086840F47020E5E700003C
:1005B000080002400804024030B5036847F6F072B4
:1005C00093430C6A8A682243D1E904452C432243B1
:1005D0008C692243CC6922434C6A22438C6A2243B1
:1005E0001A430260CA6842600A6882604968C16052
:1005F00030BD704710B54FF40064204600F026F877
:1006000010B1204600F01CF84FF48044204600F062
:100610001DF8002804D02046BDE8104000F010B8B6
:1006200010BD10B54FF48074204600F00FF800287C
:1006300004D02046BDE8104000F002B810BD000014
:10064000014908607047000014040140064A014651
:1006500000201268044B0A4014331B680B4202D07E
:10066000002A00D00120704700040140F0B5CA788C
:10067000002502F00F03D20601D58A7813430A78C9
:100680004FF00F0E12F0FF0F4FF001021CD0046864
:100690000F8802FA05F63740B74211D14FEA850CB0
:1006A0000EFA0CF724EA070703FA0CF43C43CF7860
:1006B000282F02D0482F02D002E0466100E00661F8
:1006C0006D1C082DE4D304600C88FF2C1ED94468EF
:1006D0005FF0000606F1080702FA07F50F882F40C1
:1006E000AF420FD14FEA860C0EFA0CF7BC4303FA67
:1006F0000CF73C43CF78282F00D14561CF78482FA5
:1007000000D10561761C082EE4D34460F0BD0AB127
:10071000016170474161704706A000F02BFD0A4857
:1007200001680A4A01F4E06111430160BFF3408FA0
:10073000FEE700000D0A486172644661756C745FE3
:1007400048616E646C6572000CED00E00400FA050F
:1007500001A000F00FFDFBE70D0A4D656D4D616EC8
:100760006167655F48616E646C6572007047000088
:1007700070B50F23C47801780122F4B1144C2468B9
:10078000457804F4E064C4F5E064240AC4F1040686
:10079000E3408478B5401C402C4301F1E021230163
:1007A00081F80034007800F01F018A404009800081
:1007B00000F1E020C0F8002170BD01F01F00824070
:1007C0004809800000F1E020C0F8802170BD0000E1
:1007D0000CED00E0014908627047000000000E4285
:1007E00070470000034A516821F4404101435160C1
:1007F0007047000000100240044A0029516901D0EE
:10080000014300E081435161704700000010024045
:10081000044A0029D16901D0014300E08143D1613C
:100820007047000000100240044A0029116901D0FD
:10083000014300E081431161704700000010024055
:10084000044A0029916901D0014300E0814391618C
:100850007047000000100240044A0029D16801D00E
:10086000014300E08143D160704700000010024066
:1008700030B51F494A6812F00C031E4A03D0042BFE
:1008800001D0082B21D002604A680F231A4C03EADA
:100890001212A35C0268DA4042604B68072505EA41
:1008A0001323E35C22FA03F383604B6805EAD32346
:1008B000E35CDA40C2604968032303EA9131231FF5
:1008C000595CB2FBF1F1016130BD4A684B6802F43A
:1008D00070124FF0020413F4803F04EB924202D0F6
:1008E0004B689B0301D5054B00E0024B5A43CAE716
:1008F0000010024000127A002A00002000093D008A
:1009000002490A8882430A80704700000428004098
:100910000248018841F0100101807047042800401E
:100920000248018821F0100101807047042800402E
:10093000034800880249091F098840EA01407047BE
:100940001C28004006490988C2B21140044A121FFF
:100950001288024202D009B101207047002070477E
:100960000428004010B50120FFF7ECFF002815D047
:100970000120FFF7C5FFFFF7DBFF094C0949606065
:10098000884204D100221146104600F061FA216825
:10099000002903D06068BDE81040084710BD000082
:1009A000000000207F51010000B50246FFF7B0FFB4
:1009B0000449100C0880081D02805DF804EBFFF765
:1009C000AFBF000018280040024801888906FCD506
:1009D0007047000004280040704700000CB500215B
:1009E000264801910091026842F4803202604FF47F
:1009F000A063026802F400320092019A521C019234
:100A0000009A12B9019A9A42F3D10268920333D53F
:100A1000012100911A490A6842F010020A600A682E
:100A200022F003020A600A6842F002020A6041688A
:100A3000416041684160416841F4806141604168C2
:100A400021F47C114160416841F4E8114160016882
:100A500041F08071016001688901FCD5416821F095
:100A600003014160416841F0020141604168C1F306
:100A700081010229FAD10CBD00910CBD0010024089
:100A80000020024002480168491C016070470000D4
:100A9000080000200F4810B5016841F00101016015
:100AA00041680D4A1140416001680C4A11400160E3
:100AB000016821F480210160416821F4FE01416058
:100AC0004FF41F018160FFF789FF05494FF0006077
:100AD000086010BD001002400000FFF8FFFFF6FEA6
:100AE00008ED00E03EB501210846FFF791FE4FF00A
:100AF0008044204600F08CF8204600F055F948204C
:100B0000ADF800000021ADF806104FF47A70ADF892
:100B10000210ADF804006946204600F04BF90121AF
:100B2000204600F065F80021204600F057F8012229
:100B30001146204600F030F93EBD10B501218C076A
:100B4000204600F01DF9002808D0012000F098FE92
:100B50002046BDE81040012100F04DB810BD10B591
:100B600000F008F8FFF7BEFF0121BDE8104088073C
:100B700000F044B808B51C208DF8000003208DF863
:100B8000010002208DF8020001208DF80300684664
:100B9000FFF7EEFD08BD000010B50D4C0121204609
:100BA00000F0EEF8002812D00121204600F023F8D2
:100BB000084C207800280AD060784FF4807100F04B
:100BC00001020548FFF7A3FD6078401C607010BD6E
:100BD000001000400C00002000080140002901889E
:100BE00002D041F0800101E021F0800101807047D6
:100BF000C94301827047C9430182704700290188B7
:100C000002D041F0010101E021F0010101807047B3
:100C10004B4910B5884202D10121C41486E0B0F1DD
:100C2000804F09D0474988420DD101210220FFF7AA
:100C3000FBFD0021022064E001210846FFF7F4FDDE
:100C4000002101205DE04049884206D101210420B5
:100C5000FFF7EAFD0021042053E03C49884206D119
:100C600001210820FFF7E0FD0021082049E0384974
:100C7000884206D101211020FFF7D6FD0021102067
:100C80003FE03449884206D101212020FFF7CCFD06
:100C90000021202035E03049884202D1012144144E
:100CA00044E02E49884202D10121CC043EE02C4987
:100CB000884202D101210C0538E02A49884202D13C
:100CC00001214C0532E02849884206D1012140200B
:100CD000FFF7AAFD0021402013E02449884206D1F5
:100CE00001218020FFF7A0FD0021802009E020499C
:100CF00088420AD1841501212046FFF795FD002185
:100D00002046BDE81040FFF78FBD1A49884202D146
:100D100001210C040AE01849884202D101214C0447
:100D200004E0164988420AD101218C042046FFF7CD
:100D300093FD2046BDE810400021FFF78DBD10BD9A
:100D4000002C01400004004000080040000C00405E
:100D5000001000400014004000340140004C0140ED
:100D6000005001400054014000180040001C0040A9
:100D70000020004000400140004401400048014084
:100D800002460020138A92890B4202EA010202D035
:100D9000002A00D001207047002A828901D00A432E
:100DA00000E08A4382817047018921F007010181B7
:100DB0007047000030B502881B4B1C4C98420DD088
:100DC000A0420BD0B0F1804F08D0194DA84205D0F9
:100DD000184DA84202D0184DA84203D122F0700548
:100DE0004A882A43154DA84206D0154DA84203D083
:100DF00022F44075CA882A4302808A8882850A883C
:100E0000028598420AD0A04208D00E4A904205D0EE
:100E10000D4A904202D00D4A904201D1097A0186D2
:100E20000121818230BD0000002C014000340140CE
:100E30000004004000080040000C0040001000408A
:100E400000140040004001400044014000480140BF
:100E500070B50D460646144601214FF0C050FFF70D
:100E6000D7FC0120FFF7B6FCFFF7AEFD4FF4616041
:100E70004643C5EB051006EB80002044FFF794FDC8
:100E8000BDE87040FFF7A0BD70B50D4E40F2255192
:100E9000304600F0CBF8002810D00A4C0120002585
:100EA00020706570304600F04FF9074A6188505451
:100EB000491C88B26080FF2800D9658070BD0000A1
:100EC000004C0040100000204000002010B586B00B
:100ED00001210520FFF7B4FC01218803FFF7B0FCD6
:100EE0004FF40070ADF8100018208DF813000320A7
:100EF0001A4C8DF8120004A92046FFF7B7FB201505
:100F0000ADF8100004208DF8130004A92046FFF767
:100F1000ADFB4FF4E13000900020ADF80400ADF8D7
:100F20000600ADF80800ADF80C000C200C4CADF834
:100F30000A006946204600F0B1F8012240F225512E
:100F4000204600F092F80121204600F05EF8402192
:100F5000204600F057F806B010BD00000008014020
:100F60000038014010B5084C40F22551204600F0F1
:100F70005DF8002807D0204600F0E6F8BDE81040F4
:100F8000C0B200F09BBC10BD0038014008B5252060
:100F90008DF8000003208DF8010001208DF802007B
:100FA0008DF803006846FFF7E3FB08BD10B5FFF7B7
:100FB000EDFFBDE81040FFF789BF000010B5074CFA
:100FC00040F22551204600F031F8002804D0204698
:100FD000BDE8104000F0B8B810BD0000004400406B
:100FE00010B5074C40F22551204600F01FF80028AC
:100FF00004D02046BDE8104000F0A6B810BD0000A7
:1010000000480040C943018070470029818902D00F
:1010100041F4005101E021F4005181817047024602
:10102000002012880A4200D00120704730B501F03C
:101030001F0201240025C1F3421304FA02F2012B1E
:101040000FD0022B0FD0838A4FEA11210088134260
:1010500004FA01F400EA040001D000B10125284699
:1010600030BD8389F0E7038AEEE710B5C1F3421380
:1010700001F01F040121A140012B07D0022B07D052
:101080001430002A026805D00A4304E00C30F8E767
:101090001030F6E78A43026010BD000030B5044608
:1010A000008A85B00D464CF6FF710840E98801437F
:1010B0002182A1894EF6F3100140A8882A891043A5
:1010C0006A890A431043A081A08A4FF6FF41084075
:1010D000A9890143A1826846FFF7CAFB19488442E7
:1010E00001D1039800E00298A189090400EBC00136
:1010F00001EB0010296801D5490000E08900B0FB30
:10110000F1F06422B0FBF2F109010B096FF0180550
:101110006B4300EB8300A3891D044FF0320306D517
:1011200003EBC000B0FBF2F000F0070005E003EBBA
:101130000010B0FBF2F000F00F000843208105B072
:1011400030BD0000003801408088C0F308007047BF
:10115000C1F308018180704701A000F00BF8FBE7A4
:1011600055736167654661756C745F48616E646C48
:10117000657200000FB4054B10B503A9044A02982C
:1011800000F02CF810BC5DF814FB00009916000864
:101190003C0000200FB4084B10B504A902AA039824
:1011A00000F01CF8044602A9002000F048FA20468E
:1011B00010BC5DF814FB00003F16000802E008C8F0
:1011C000121F08C1002AFAD170477047002001E0C1
:1011D00001C1121F002AFBD1704700002DE9FF4F0B
:1011E0008DB00F460546002606E025280BD0DDE928
:1011F0000F1290476D1C761C28780028F5D111B08D
:101200003046BDE8F08F0024A246A1460122EC49F9
:1012100000E0044315F8013F203B02FA03F00842C6
:10122000F7D128782A2810D06FF02F022878A0F163
:101230003001092914D80AEB8A0102EB410144F07C
:10124000020400EB010A6D1CF0E701CF5FEA000A1F
:1012500003D544F40054CAF1000A44F002046D1CA2
:1012600028782E2817D115F8010F44F004042A28F5
:101270000ED06FF02F022878A0F1300109290AD88A
:1012800009EB890102EB410100EB01096D1CF2E75A
:1012900057F8049B6D1C28786C280FD006DC4C286E
:1012A00017D068280DD06A2814D104E0742810D013
:1012B0007A280FD10DE044F400140AE044F48014BD
:1012C00001E044F440146978814202D104F58014AD
:1012D0006D1C6D1C2A786E2A1FD00CDC632A31D05D
:1012E00004DC002A8BD0582A11D1A3E0642A68D0EC
:1012F000692A0CD165E0732A2ED004DC6F2A73D0E2
:10130000702A04D19BE0752A6FD0782A6ED01046DF
:10131000DDE90F129047761C50E1C4F30250022819
:1013200006D0032809D0042801CF09D0066045E182
:1013300001CFF117C0E9006140E101CF06803DE136
:1013400006703BE117F8040B8DF8000000208DF8C3
:101350000100EB46012003E057F804BB4FF0FF30DB
:1013600061074FF0000102D40DE008F10101884649
:1013700049450FDA8045F8DB1BF808100029F4D145
:1013800008E008F1010188468142FADB1BF80810E9
:101390000029F6D1DDE90F23AAEB0800814621469A
:1013A00000F036F9304400EB080604E0DDE90F12E6
:1013B0001BF8010B9047B8F10108F7D221464846C7
:1013C000F7E00A21C4F302534FF0000B0891022BFF
:1013D00004D001CFC117032B09D00AE0FF1D27F06D
:1013E0000707F7E8020108E032E01FE020E000B262
:1013F000C117042B01D140B2C117031E71F10003C4
:1014000007DA4FF0000CD0EB0C006CEB01012D2340
:1014100002E0230504D52B238DF82430012303E0BB
:10142000E30701D02023F7E7984658E00A2110E0AF
:1014300010210EE010204FF0000B08900CE010215E
:101440004FF0000B44F004044FF00809089103E04A
:1014500008214FF0000B0891C4F30253022B04D073
:1014600001CF0021032B06D006E0FF1D27F0070760
:10147000F7E8020103E080B2042B00D1C0B24FF0C4
:10148000000823072BD5702A07D0DDF820C08CF088
:10149000100C5CEA0B0C05D00EE040238DF82430D4
:1014A000012308E050EA010306D030238DF82430F0
:1014B0008DF8252002239846DDF820C08CF0080C1A
:1014C0005CEA0B0C0BD150EA010301D1630706D58E
:1014D00030238DF824304FF00108A9F10109582A72
:1014E00004D038A20B9208AA0A920BE03AA2F9E7BC
:1014F0005B46089AFEF763FE0B9B9B5C0A9A521EA2
:101500000A92137050EA0102F2D10A98ADEB000082
:1015100000F1200B600702D524F4803401E04FF085
:101520000109D94502DDA9EB0B0000E0002000EB2A
:101530000B0141440890AAEB010AE00306D4DDE95F
:101540000F232146504600F063F806444FF000098F
:1015500008E009A911F80900DDE90F12904709F127
:101560000109761CC145F4DBE0030CD5DDE90F234E
:101570002146504600F04CF8064404E0DDE90F1225
:1015800030209047761C0899481E08900029F5DC09
:1015900008E00A980A990078491C0A91DDE90F12BF
:1015A0009047761CBBF10001ABF1010BF1DC214649
:1015B0005046DDE90F2300F019F806446D1C1BE6C8
:1015C0000928010030313233343536373839616219
:1015D00063646566000000003031323334353637DD
:1015E0003839414243444546000000002DE9F041AE
:1015F000044600251E461746880404D405E03946F3
:101600002020B0476D1C641EF9D52846BDE8F08146
:101610002DE9F041044600251E469046C80301D539
:10162000302700E02027880404D505E041463846ED
:10163000B0476D1C641EF9D52846BDE8F0810A68E4
:10164000531C0B6010707047704710B5002141F2B9
:10165000697405E0224602235B1C9342FCDB491CB3
:10166000B1EB400FF6DB10BD10B509490120094C64
:101670000870024608212046FFF749F83220FFF79C
:10168000E4FF20460022BDE810400821FFF73FB8E4
:101690000F0000200018014070B5074D0446C1B28C
:1016A0002846FFF755FD40212846FFF7B8FC0028E3
:1016B000F9D0204670BD00000038014070B50C46DE
:1016C000054680211848FEF756FD18A12046FEF772
:1016D0005DFD20B1224617A11348FFF75BFD1249BB
:1016E0002846FEF753FD04001CD00F48FEF760FDAE
:1016F00040B2044480210C48FEF73DFD0A49002019
:101700002278222A05D00A54401C40B2641C0A28C0
:10171000F6DB084400224270034908A0FFF72AFDC7
:10172000014870BD002070BD3F01002064617461FC
:1017300000000000222573223A220000CAFDD6B51F
:101740003D25730D0A00000000224FF4805101482E
:10175000FEF7DDBF0014014008B501212020FFF78E
:101760006FF84FF48050ADF8000003208DF80200B0
:1017700010208DF8030069460148FEF777FF08BD89
:101780000014014000F008F800F001F8FCE710B583
:1017900000F022F8002010BD10B5FFF7DDFFFFF7C5
:1017A00005FCFEF76FFDFFF7DAF902A000F09CF8E8
:1017B000002010BD68656C6C6F20776F726C6421BF
:1017C0000D0A000010B5044600F08EF82046BDE872
:1017D000104000F09FB8000010B50A4890B00178A2
:1017E00001290DD10024047000F042F881B268464E
:1017F00000F020F80DF80040C1B26846FFF7E2FFA4
:1018000010B010BD1400002010B50849084B07E0C7
:1018100002F07F029A5C00F8012BCA68521CCA6071
:10182000D1E90242A242F3D1104610BD14000020BB
:101830004901002010B50C4601460648D0E90220B7
:10184000101AA04200D284B20846FFF7DDFF2046FE
:1018500010BD0000140000200448D0E90210081A4E
:101860007F2801D901207047002070471400002014
:101870000248D0E90210081A704700001400002046
:101880000D4910B5D1E902240023A24211D0121B48
:101890004C88A24202D04A808B8010BD8A881E2AC2
:1018A000FBD2104480B288801E28F6D30120087035
:1018B00010BD4B8010BD00001400002010B5024682
:1018C000FFF7CAFF10B14FF0FF3010BD0448054CC0
:1018D000816801F07F03491CE2548160084610BD15
:1018E000140000204901002070B5094D04000ED0FD
:1018F0000AE080212846FFF792FB0028F9D02178E2
:101900002846FFF725FC641C20780028F1D170BD23
:101910000038014070B50646A0B029A0FFF7E4FFEB
:101920002BA13046FEF732FC002811D02AA1304608
:10193000FEF72CFC0024B0B180216846FEF71BFCAA
:101940002AA13046FEF722FC2B4D18B10120287049
:1019500020B070BD29A0FFF7C7FF2C70FFF774FE01
:10196000FFF7F2FEF4E727A13046FEF70FFCA8B11F
:1019700080216846FEF7FFFB1CA13046FEF706FCFF
:10198000244D18B16C70FFF76FFEE1E722A13046DD
:10199000FEF7FCFB0028DBD06C70D9E721A13046B4
:1019A000FEF7F4FB20B126A13046FFF787FECFE714
:1019B00025A13046FEF7EAFB0028F4D1C8E7000075
:1019C000BDE2CEF6B4AEBFDAC3FCC1EE0D0A000034
:1019D0002274223A3500000022636D64746167222C
:1019E0003A22646566656E73652200002264617444
:1019F00061223A22312200000E000020B3B7B7C0A6
:101A00000D0A000022636D64746167223A226374D8
:101A1000726C2200140000202264617461223A304A
:101A20000000000022636D64746167223A227365CE
:101A300072766F5F766572746963616C2200000074
:101A4000646174610000000022636D647461672248
:101A50003A22736572766F5F686F72697A6F6E741F
:101A6000616C2200841A0008000000204000000081
:101A7000BC110008C41A00084000002088050000BE
:101A8000CC11000800000000000000000000000071
:101A90000000010000000000000000000000000045
:101AA0000000000000000000000002040608000022
:101AB00000000102030401020304060708090000F4
:041AC0000000000022
:0400000508000131BD
:00000001FF
