:020000040800F2
:10000000281B00204501000821180008D115000810
:10001000A9170008650C0008A134000800000000C2
:10002000000000000000000000000000011D0008AA
:100030007510000800000000A9180008651E0008DF
:100040005F0100085F0100085F010008191C00083B
:100050005F0100085F0100085F0100085F01000800
:100060005F0100085F0100085F010008CD0D000876
:100070005F0100085F0100085F0100085F010008E0
:10008000DD0D0008490E00085D0900085F01000849
:100090005F0100085F0100085F01000847130008C6
:1000A0005F0100085F0100085F0100085F010008B0
:1000B000D11F00085F010008292300085F01000824
:1000C0005F0100085F0100085F0100085F01000890
:1000D0005F010008E12D0008392E00085D2E0008A0
:1000E000191300085F0100085F0100085F010008A4
:1000F0005F0100085F0100085F0100085F01000860
:100100005F0100085F0100085F0100085F0100084F
:10011000252C00085F010008ED2400085F0100089D
:100120005F0100085F0100085F0100085F0100082F
:10013000DFF80CD000F074FB004800478949000844
:10014000281B00200648804706480047FEE7FEE7D8
:10015000FEE7FEE7FEE7FEE7FEE7FEE7FEE7FEE777
:10016000751E00083101000840EA01039B0703D017
:1001700009E008C9121F08C0042AFAD203E011F8E6
:10018000013B00F8013B521EF9D27047D2B201E0A8
:1001900000F8012B491EFBD270470022F6E710B58C
:1001A00013460A4604461946FFF7F0FF204610BDE5
:1001B000421E12F8013F002BFBD111F8013B02F85F
:1001C000013B002BF9D1704730B505462A460B4656
:1001D00012F8010B13F8014B08B1A042F8D01CB182
:1001E000002802D06D1CF1E7284630BD421C10F8F3
:1001F000011B0029FBD1801A704730B5044600204E
:10020000034600E05B1C934203D2E05CCD5C401BE4
:10021000F8D030BD10B54843044604F08DFD0028E9
:1002200005D00021002C02D0641E0155FAE710BD54
:1002300070B5064603F066F9046805460A220021F7
:10024000304600F03FFA2C6070BD2DE9FE4F80462D
:1002500081EA0300C00F0C46009021F0004123F01A
:100260000045B8EB0200A94105D240462146904620
:100270001C460B46024623F00040104347D0270D92
:10028000C7F30A00C3F30A510290401A01904028B4
:100290006BDAC3F3130040F4801B0098924620B140
:1002A0000023D2EB030A63EB0B0B01985946C0F114
:1002B0004002504600F0D5F906460D4650465946D4
:1002C000019A00F0EDF910EB08006141002487EA83
:1002D000115284EAE7731A4340D0009A62B3019A3C
:1002E000012A4FEA075215DC001B61EB02014FF0B7
:1002F000004202EA0752CDE90042001C41F580119C
:1003000032462B4600F025FA03B0BDE8F08F404698
:100310002146F9E7001B61EB0201001C41F5801347
:1003200000185B412018A2F5001747EB030140EAD3
:10033000D570B6196D4111E06D084FEA360645EAF1
:10034000C0754FEA0752001B61EB0201001C41F52A
:10035000801149084FEA30000019514132462B46BE
:1003600003B0BDE8F04F00F0E5B90098012240006D
:100370000023D0EB020263EBE073009821464FEAC2
:10038000E074B8EB000061EB0401E9E783F000439F
:100390005BE781F0004158E72DE9FE4F81EA030455
:1003A00004F0004421F0004100944FF0000B23F0D2
:1003B000004350EA01045ED052EA03045BD0C3F369
:1003C0000A54C1F30A552C44A4F2F3340194A0FB5F
:1003D0000254C1F3130141F48011C3F3130343F436
:1003E000801301FB024400FB034E840A970A44EA8F
:1003F000815447EA8357A4FB076802958D0A05FBE1
:1004000007854FEA932C04FB0C542705029D4FEA05
:10041000065847EA1637B5EB08056EEB070C870E52
:10042000920E47EA811742EA8312A7FB0201B6EB5C
:100430000B0164EB00042B0D43EA0C335E1844EB14
:100440001C50DA465146E7FB0201C5F313044FEA9C
:100450000B3343EA14534FEA0432019C43EA060388
:10046000A4F10C040294009CCDE900B400F071F9F1
:1004700003B0BDE8F08F00200146F9E72DE9F04D0B
:1004800081EA030404F0004B21F0004514464FF0CC
:10049000000A23F0004150EA050220D054EA01028C
:1004A0001DD0C5F30A570246C5F31303C1F3130069
:1004B000C1F30A5640F4801543F48013A7EB0608F5
:1004C000101BD64608F2FD3873EB050002D308F185
:1004D000010801E092185B41B8F1000F03DA002037
:1004E0000146BDE8F08D00204FF480110646844699
:1004F0000EE0171B73EB050705D3121B63EB050317
:1005000006434CEA010C49084FEA300092185B415F
:1005100050EA0107EDD152EA030012D082EA04004A
:1005200083EA0501084305D0101BAB4106D2012226
:10053000002306E000224FF0004302E06FF00102CA
:1005400053101AEB06004CEB085110EB0A0041EB7C
:100550000B01BDE8F04D00F0EDB80EB540F23341AF
:1005600002910021CDE900110A460B4600F0F1F896
:1005700003B000BD30B5041E71F1000404DB4FF080
:100580000044404264EB0101141E73F1000405DBDA
:100590001C464FF00043524263EB04038B4208BFFA
:1005A000824230BD30B5041E71F1000404DB4FF00F
:1005B0000044404264EB0101141E73F1000405DBAA
:1005C0001C464FF00043524263EB0403994208BFBC
:1005D000904230BD30B50B46014600202022012458
:1005E00009E021FA02F59D4205D303FA02F5491B01
:1005F00004FA02F52844151EA2F10102F1DC30BD17
:100600002DE9F05F0546002092469B468846064647
:10061000814640241BE0284641464746224600F0DA
:100620002FF853465A46C01A914110D31146184626
:10063000224600F016F82D1A67EB01084F462246B5
:100640000120002100F00DF817EB00094E41201E9B
:10065000A4F10104DFDC484631462A464346BDE8A2
:10066000F09F202A04DB203A00FA02F100207047B4
:100670009140C2F1200320FA03F3194390407047E0
:10068000202A04DB203A21FA02F00021704721FAE7
:1006900002F3D040C2F1200291400843194670474E
:1006A000202A06DBCB17203A41FA02F043EAE07336
:1006B00006E041FA02F3D040C2F120029140084323
:1006C000194670472DE9F04791460F46804604468B
:1006D000002614F8015B2DB100F0B4F80068405D0D
:1006E000C007F6D12B2D02D02D2D18D0641E4A46FE
:1006F0003946204600F0AAF827B13968A14201D155
:10070000C7F8008071054FF002040BD54042002865
:1007100003DD02F0F7FE0460A007BDE8F08746F4B1
:100720008066E4E70028F8DA02F0ECFE04606FF07F
:100730000040F2E710B5141E73F1000408DA401C03
:1007400041F1000192185B411A4301D120F00100F0
:1007500010BD2DE9F04D92469B4611B1B1FA81F2E0
:1007600002E0B0FA80F220329046FFF77AFF0446AA
:100770000F4640EA0A0041EA0B0153465A46084335
:1007800013D0114653EA010019D0C8F14002504677
:10079000FFF776FF05460E46504659464246FFF79C
:1007A00060FF084305D0012004E020463946BDE83B
:1007B000F08D0020054346EAE0762C4337430A9843
:1007C0006305E40AA0EB08000022FD0A44EA47544E
:1007D0000A3002D500200146E9E7010510196941F8
:1007E000DDE9084500196941BDE8F04DA2E7C1F314
:1007F0000A52C1F3130140F2FF3341F480119A42CF
:1008000002DA00200146704740F233439A42A2F2D6
:10081000334202DC5242FFF733BFFFF722BF000032
:10082000064C074D06E0E06840F0010394E807003D
:1008300098471034AC42F6D3FFF77EFCE867000817
:100840000868000800487047C06600082DE9F05F9E
:1008500082460078002715468B460AF10104B94606
:10086000302801D09DB113E014F8010B012778283E
:1008700003D0582801D045B10AE00DB1102D07D1A1
:100880000027102514F8010B02E0082500E00A25D6
:100890000026B0460EE005FB080005FB06F1012727
:1008A00001EB10461FFA80F8B6F5803F00D3B94639
:1008B00014F8010B294600F018F80028EBDABBF118
:1008C000000F05D00FB1641E00E05446CBF8004085
:1008D000B9F1000F06D002F015FE02210160C81E1A
:1008E000BDE8F09F48EA0640FAE73A2800D23038DF
:1008F00020F02002412A01D3A2F13700884201D31F
:100900004FF0FF30704770B58C1810F8015B15F090
:10091000070301D110F8013B2A1106D110F8012B71
:1009200003E010F8016B01F8016B5B1EF9D12B0796
:1009300005D40023521E0DD401F8013BFAE710F84C
:10094000013BCB1A921C03E013F8015B01F8015B39
:10095000521EF9D5A142D8D3002070BD10B5074C66
:100960004FF40871204600F0C7F8204600F0E3F885
:100970000146BDE8104002A002F0A0BD00240140E5
:10098000414443313A25640D0A00000008B51F2098
:10099000ADF8000000208DF803006946014800F022
:1009A0007DFD08BD0010014008B50B208DF800004A
:1009B00003208DF801008DF8020001208DF803005E
:1009C000684600F02FFF08BD10B54FF4804000F0DE
:1009D0006DFF0121084600F073FFBDE810400121C2
:1009E0004FF4047000F090BF2DE9F0410546FFF789
:1009F000EBFFFFF7D9FFFFF7C9FF3B4F384600F089
:100A000065FA3B483949002402C000F12801052657
:100A100052C0802160E80441490081618900C161C0
:100A2000202101620902C0E909143149384600F069
:100A3000D7FA01220221384600F0CAFA01213846CD
:100A400000F038FA2A480121143804600171447119
:100A50004FF46021C0E90214244C067401464C3C5A
:100A6000204600F073F801231A460A21204600F0C0
:100A700091F8012302220B21204600F08BF801237C
:100A800003220C21204600F085F8012304220D21C9
:100A9000204600F07FF8012305220E21204600F0B9
:100AA00079F80121204600F035F80121204600F0B8
:100AB00027F8204600F0A8F8204600F03FF800286C
:100AC000FAD1204600F0AFF8204600F02DF80028BB
:100AD000FAD10121204600F09CF8002D01D00548F4
:100AE0004560BDE8F0810000080002404C24014050
:100AF00084100020600A00206FEA11210160704715
:100B00000029816802D041F0010101E021F00101DA
:100B1000816070470029816802D041F4807101E052
:100B200021F480718160704701460020896849077F
:100B300000D501207047C06C80B27047014600208C
:100B40008968090700D501207047000010B5426888
:100B50000E4B0C791A400B6842EA0422134343609F
:100B600083680B4A1340D1E9024222434C7943EA9D
:100B700044031A438260C26A097C22F47002491E4F
:100B8000C9B242EA0151C16210BD0000FFFEF0FF90
:100B9000FDF7F1FF70B5072409290AD9C568A1F14D
:100BA0000A0606EB4606B440A543B3401D43C560A4
:100BB00007E0056901EB4106B440A543B3401D437E
:100BC00005611F23072A09D2446B521E02EB8202E1
:100BD00093409C4391400C43446370BD0D2A09D25D
:100BE000046BD21F02EB820293409C4391400C4362
:100BF000046370BDC46A0D3A02EB820293409C43C9
:100C000091400C43C46270BD816841F0080181606D
:100C100070470029816802D041F4A00101E021F46D
:100C2000A00181607047816841F0040181607047D4
:100C300010B5012000F080FEBDE81040002000F05B
:100C40007BBE000008B5024908440090008808BD3A
:100C5000006C004008B5024A10440090016008BDD5
:100C6000006C004001A002F029FCFBE70D0A427570
:100C7000734661756C745F48616E646C65720000E8
:100C800010B5FF210448FFF788FA044900200880C6
:100C90000349087010BD0000F2110020B20A0020C4
:100CA000B40A00202DE9F041A0B00D468046002492
:100CB00080216846FFF771FAB4F1010600F00CFBE1
:100CC00038B1641CE4B23046032CF7D320B0BDE841
:100CD000F0810024A61E1FA122A000F0C7FA28B1AF
:100CE000641CE4B23046032CF5D3EFE7002442F253
:100CF0009816E71E314620A000F02EFA28B1641C99
:100D0000E4B23846032CF5D3E0E72B4642461EA159
:100D1000684602F0E3FB6846FFF768FAC1B268462E
:100D200000F0D0F9002802DA6FF0030507E0002494
:100D3000651F22A12448FFF747FA10B10025284675
:100D4000C4E70A2003F024F9641CE4B2322CF0D387
:100D5000F5E70000303938373635343332312E6319
:100D60006373750054502D4C494E4B5F77756C6919
:100D7000616E77616E6700003132302E37372E3565
:100D8000382E3334000000007B2274223A312C22AA
:100D9000646576696365223A222573222C226B658D
:100DA00079223A222573222C22766572223A227603
:100DB000302E302E302E30227D00000022737461E0
:100DC000747573223A300000F211002010B505F05E
:100DD00029FBBDE81040012000F060B870B54FF469
:100DE000001000F0E5F8002824D00021124800F09F
:100DF00061F84FF4801000F045F8104C4FF420409B
:100E000060600F4D0F4E02E06268521E6260314614
:100E1000284600F017FC0028F6D00121284600F0F3
:100E200007FC074814300088054818300088E1683E
:100E30000020087070BD00006C000240680A0020AD
:100E4000005400400400001010B54FF0007000F096
:100E5000AFF800280FD00121074800F0E9FB00217E
:100E6000064800F027F84FF0807000F00BF80449B6
:100E700000208968088010BD0054004080000240B6
:100E8000680A0020C10002D5024908607047024983
:100E9000486070470404024000000240C10002D5CF
:100EA00002490860704702494860704704040240E4
:100EB000000002400029016802D041F0010102E077
:100EC0004FF6FE72114001607047000001684FF656
:100ED000FE72114001600021016041608160C160CB
:100EE0003149314A0839904203D1486840F00F0037
:100EF00006E02D4A1432904204D1486840F0F000D8
:100F000048607047284A2832904203D1486840F42C
:100F10007060F5E7244A3C32904203D1486840F4BF
:100F20007040EDE7204A5032904203D1486840F4C7
:100F30007020E5E71C4A6432904203D1486840F4CF
:100F40007000DDE7184A7832904203D1486840F0DB
:100F50007060D5E7154A111F904203D1086840F030
:100F60000F0006E0114A1432904204D1086840F0A4
:100F7000F000086070470D4A2832904203D108689B
:100F800040F47060F5E7094A3C32904203D10868AA
:100F900040F47040EDE7054A50329042EAD10868CB
:100FA00040F47020E5E70000080002400804024019
:100FB00001460020CA0001D5034A00E0034A126836
:100FC0000A4200D0012070470004024000000240A5
:100FD000002A026801D00A4300E08A430260704799
:100FE00030B5036847F6F07293430C6A8A6822436F
:100FF000D1E904452C4322438C692243CC69224326
:101000004C6A22438C6A22431A430260CA684260D7
:101010000A6882604968C16030BD0000114810B59F
:101020004078012815D000F06CFE0F4C00F090FEC7
:10103000A042FBD8002000F0BFFA00F062FE0B4C8B
:1010400000F086FEA042FBD8BDE81040012000F071
:10105000B3BA00F056FE064C00F07AFEA042FBD870
:10106000E8E70000780A002080D80A0030B60A00BD
:1010700080900A007047000070B50D4606460024B7
:101080000DA1FFF7A1F8A0B181794079D0223038C5
:1010900000EB800002EB40000844C4B208A13046D7
:1010A000FFF792F8411C22462846FFF75DF8002022
:1010B0002855204670BD00002B4950442C000000EC
:1010C0003A00000070B5A0B00D460646002480210D
:1010D0006846FFF762F8FFF7D3FD2A4616A1684677
:1010E00002F0FCF96846FFF781F8C1B2684600F0EB
:1010F0004BFE032002F04CFF13A11448FFF764F8E5
:1011000078B1FFF7BDFD2946304600F049FEA51E27
:101110000FA10E48FFF758F830B10025284620B03F
:1011200070BD4FF0FF30FAE7642002F031FF641C1D
:10113000E4B23C2CECD3F1E741542B4349505345E6
:101140004E443D25640000004F4B0000F21100208A
:1011500053454E44204F4B0030B5A1B00C460546D8
:1011600080216846FFF719F8FFF78AFD23462A46D3
:101170000CA1684602F0B2F96846FFF737F8C1B231
:10118000684600F001FE40F2DC5002F001FF0CA1C5
:101190000C48FFF719F810B1002021B030BD4FF016
:1011A000FF30FAE741542B43495053544152543DC8
:1011B00022544350222C222573222C256400000047
:1011C0004F4B0000F2110020F0B5A1B00E460746CB
:1011D00014460025802101A8FEF7DFFF33463A467A
:1011E0000FA101A8009402F079F901A8FEF7FEFF13
:1011F000C1B201A8FFF766FF6C1E002805DB17A12E
:101200001948FEF7E1FF18B1002421B02046F0BDD7
:101210000A2002F0BDFE6D1CEDB2322DEFD3F4E7D3
:101220007B2274223A332C22646174617479706574
:10123000223A322C226461746173223A7B22257334
:10124000223A7B222573223A25647D7D2C226D7300
:10125000676964223A3030317D0000002273746186
:10126000747573223A300000F211002030B5A1B03D
:101270000C46054680216846FEF78FFFFFF700FD0C
:1012800023462A460CA1684602F028F96846FEF774
:10129000ADFFC1B2684600F077FD41F27C5002F02C
:1012A00077FE0BA10B48FEF78FFF10B1002021B095
:1012B00030BD4FF0FF30FAE741542B43574A4150BD
:1012C0005F4355523D222573222C222573220000B4
:1012D0004F4B0000F211002010B5FFF7D1FC0F2199
:1012E00007A000F051FD642002F052FE08A1094859
:1012F000FEF76AFF08B1002010BD4FF0FF3010BDAF
:1013000041542B43574D4F44455F4355523D3100A7
:101310004F4B0000F211002010B54FF4006420463E
:1013200000F026F810B1204600F01CF84FF480447D
:10133000204600F01DF8002804D02046BDE81040EB
:1013400000F010B810BD10B54FF48074204600F0C6
:101350000FF8002804D02046BDE8104000F002B885
:1013600010BD0000014908607047000014040140EE
:10137000064A014600201268044B0A4014331B68D9
:101380000B4202D0002A00D0012070470004014027
:101390000149C860704700000020024070B5054652
:1013A0004FF43026304600F067F8042811D1094C7C
:1013B000206940F0020020616561206940F0400032
:1013C0002061304600F058F8216941F6FD72114065
:1013D000216170BD0020024008490420CA68D2077C
:1013E00001D001207047CA68520701D5022070471A
:1013F000C968C906FBD503207047000000200240E1
:101400000248016941F080010161704700200240FB
:101410002DE9F841064600204FF4005700900D4694
:10142000384600F029F8042816D10C4C206940F009
:10143000010020613580B846384600F01DF8BF1E17
:10144000042806D1B61C280C00963080404600F0D7
:1014500013F8216939402161BDE8F881002002407C
:1014600003480249416003494160704723016745D1
:1014700000200240AB89EFCD00B50346FFF7ACFF7B
:1014800003E000BFFFF7A8FF5B1E012803D0002B7D
:1014900000D1052000BD002BF4D1FAE7F0B5CA78E1
:1014A000002502F00F03D20601D58A7813430A788B
:1014B0004FF00F0E12F0FF0F4FF001021CD0046826
:1014C0000F8802FA05F63740B74211D14FEA850C72
:1014D0000EFA0CF724EA070703FA0CF43C43CF7822
:1014E000282F02D0482F02D002E0466100E00661BA
:1014F0006D1C082DE4D304600C88FF2C1ED94468B1
:101500005FF0000606F1080702FA07F50F882F4082
:10151000AF420FD14FEA860C0EFA0CF7BC4303FA28
:101520000CF73C43CF78282F00D14561CF78482F66
:1015300000D10561761C082EE4D34460F0BD0000A4
:1015400038B50121402000F0DFF91020ADF800008F
:101550008DF803000320094C8DF8020069462046EF
:10156000FFF79CFF2020ADF8000048208DF8030015
:1015700069462046FFF792FF38BD00000018014081
:10158000806880B270470246002092680A4200D00C
:10159000012070474161704701617047C160704729
:1015A0000AB1016170474161704700002021014884
:1015B000FFF7E9BF00180140044B08B1012200E029
:1015C000002210211846FFF7EBBF00000018014071
:1015D00006A001F073FF0A4801680A4A01F4E061BD
:1015E00011430160BFF3408FFEE700000D0A486120
:1015F00072644661756C745F48616E646C657200FC
:101600000CED00E00400FA050029018802D041F049
:10161000010101E021F0010101807047002981886A
:1016200002D041F4006101E021F400618180704743
:101630000029018802D041F4007101E021F4007119
:10164000018070470CB50246002000920A0F21F07D
:101650007F41019202D0009A143202E0009A090CF4
:101660001832009212680A4200D001200CBD00001E
:1016700070B50446808886B00D4620F03F06684667
:1016800000F068F927490298B0FBF1F189B20E43E6
:10169000A680228822F001022280234B2A689A42E7
:1016A0001CD85200B0FBF2F080B2042800D2042013
:1016B000491C2184A083208840F0010020802188DB
:1016C0004FF6F5300140A8886A891043084320800E
:1016D000A88929890843208106B070BDEB88A3F54D
:1016E0003F46FF3E0BD002EBC20303EB0212B0FBFE
:1016F000F2F080B240F48040020506D007E002EB31
:101700004202B0FBF2F080B2F6E740F001004FF485
:10171000967251434FF47A72B1FBF2F140F40040FB
:10172000C6E7000040420F00A086010010B5FFF799
:1017300007FFBDE810400120FFF73EBF3EB504465D
:10174000112004F04BFF012000F0F4FA204600F0D5
:101750007FF998B9052000F0EDFA112004F03EFF62
:10176000012000F0E7FA684600F072F930B908226B
:1017700021466846FEF741FD002800D001203EBD0D
:10178000F8B5064614460D46184600F07DF88DF86B
:1017900000408DF801608DF8025001208DF80300A3
:1017A000684600F03FF8F8BD01A001F087FEFBE7B6
:1017B0000D0A4D656D4D616E6167655F48616E64D0
:1017C0006C65720010B54FF4A06000F05DF801F098
:1017D0002BFB4FF4E13001F047FA00F0CEFA02F0B3
:1017E00025FF00F087FC02F095FD0B48FFF7FCF8A1
:1017F000FFF79CFF04F0DAFC084804F045FC02F017
:101800003EFB00F02FFD5A2000F0E2FCBDE8104046
:101810005A2000F0EFBC0000C93D000899610008A3
:101820007047000070B50F23C47801780122F4B12D
:10183000144C2468457804F4E064C4F5E064240A98
:10184000C4F10406E3408478B5401C402C4301F108
:10185000E021230181F80034007800F01F018A4064
:101860004009800000F1E020C0F8002170BD01F0C7
:101870001F0082404809800000F1E020C0F880216C
:1018800070BD00000CED00E0024908430249086009
:10189000704700000000FA050CED00E00149086205
:1018A0007047000000000E4270470000034A516874
:1018B00021F4404101435160704700000010024094
:1018C000044A0029516901D0014300E0814351617C
:1018D0007047000000100240044A0029D16901D07D
:1018E000014300E08143D1617047000000100240D5
:1018F000044A0029116901D0014300E081431161CC
:101900007047000000100240044A0029916901D08C
:10191000014300E0814391617047000000100240E4
:10192000044A0029D16801D0014300E08143D1601D
:101930007047000000100240014908607047000035
:10194000400442420248416A41F08071416270475E
:101950000010024030B51F494A6812F00C031E4ABD
:1019600003D0042B01D0082B21D002604A680F233A
:101970001A4C03EA1212A35C0268DA4042604B6818
:10198000072505EA1323E35C22FA03F383604B681F
:1019900005EAD323E35CDA40C2604968032303EA23
:1019A0009131231F595CB2FBF1F1016130BD4A68EE
:1019B0004B6802F470124FF0020413F4803F04EB02
:1019C000924202D04B689B0301D5054B00E0024BCD
:1019D0005A43CAE70010024000127A00700F00203C
:1019E00000093D000246002053090949012B0BD094
:1019F000022B0BD0D1F8241002F01F0201239340D8
:101A00000B4200D0012070470968F5E7096AF3E747
:101A1000001002400649002281F8202081F8202091
:101A2000012802D0042802D1052081F82000704747
:101A30000010024001490860704700003C04424227
:101A400002490A6A02430A6270470000001002401D
:101A50002DE9F05F4FF00009DFF8ECA03B4C834626
:101A60004FF4E1564F46B8462770354600E06D1EEC
:101A7000FFF79CFD28B1002D64D000F042F95546D7
:101A800006E0002DF3D15DE000F062F9A84208D92C
:101A9000FFF78CFD0128F7D009F10109B9F1320FE8
:101AA000E1D3B146354600E06D1EFFF77FFD01280A
:101AB00002D05DB3264D03E0002DF5D142E06D1E4E
:101AC000FFF774FD90B10DB300F01BF9214DDFF865
:101AD00088A000265FF0000700F03AF9A842FBDC7E
:101AE000FFF764FD01284D4604D011E0002DE6D13A
:101AF00028E06D1EFFF75AFD012805D035B120788A
:101B0000400840F0800009E0002DF2D11AE06D1E7F
:101B1000FFF74CFDA0B1ADB12078400820705546CC
:101B200000F0EFF87F1C082FD6D321780BF80610B1
:101B3000761C84F80080082ECCD30020BDE8F09FEE
:101B4000002DE4D10120F9E700320A00780A0020D4
:101B500040190100B0450A00109A0A0002490A889B
:101B600082430A80704700000428004010B501211C
:101B70004FF0C050FFF7B0FE0120FFF78FFEFFF7D8
:101B800057F80120FFF746FF4120FFF72BFF002801
:101B9000FAD04FF48070FFF753FF0120FFF74AFFA0
:101BA00000F0A2F800F098F80121084600F056F87D
:101BB00000F092F847F6FF7000F07EF8BDE81040A4
:101BC00000F08AB80248018841F010010180704796
:101BD000042800400248018821F01001018070476C
:101BE00004280040034800880249091F098840EA88
:101BF000014070471C28004006490988C2B21140C4
:101C0000044A121F1288024202D009B10120704713
:101C1000002070470428004010B50120FFF7ECFFBA
:101C2000002815D00120FFF799FFFFF7DBFF094CD3
:101C300009496060884204D100221146104600F034
:101C4000D5FF2168002903D06068BDE8104008472F
:101C500010BD0000940A00207F510100044A0029B1
:101C6000118801D0014300E08143118070470000DA
:101C70000028004008B503208DF8000002208DF8F0
:101C8000010000208DF8020001208DF80300684655
:101C9000FFF7C8FD08BD000000B50246FFF792FF40
:101CA0000449100C0880081D02805DF804EBFFF762
:101CB00091BF00001828004000B50246FFF782FFE0
:101CC0000449C2F303400880081D02805DF804EB5C
:101CD000FFF780BF08280040024801888906FCD52C
:101CE00070470000042800400448018821F00801E2
:101CF000018001880907FCD57047000004280040D6
:101D000070474FF0E02100208861704710B5074808
:101D100000240460042000F099F84FF0E02004490A
:101D2000416184610721016110BD00009C0A00200F
:101D30007FFC0A004FF0E0220021916103490A680C
:101D400010440A689042FCDC704700009C0A0020A6
:101D50004FF0E0208069704708B5FF208DF8000043
:101D600003208DF8010000208DF8020001208DF87D
:101D700003006846FFF756FD08BD10B5FFF7ECFFFE
:101D8000BDE81040FFF7C2BF10B500F0D1FFBDE8BD
:101D90001040022101A000F0CBBF00000D0A00009E
:101DA00000F0C6BF0CB500212648019100910268E1
:101DB00042F4803202604FF4A063026802F4003201
:101DC0000092019A521C0192009A12B9019A9A4209
:101DD000F3D10268920333D5012100911A490A68B0
:101DE00042F010020A600A6822F003020A600A68E0
:101DF00042F002020A604168416041684160416806
:101E000041F480614160416821F47C114160416886
:101E100041F4E8114160016841F08071016001689E
:101E20008901FCD5416821F003014160416841F01E
:101E3000020141604168C1F381010229FAD10CBD60
:101E400000910CBD00100240002002404FF0E02144
:101E50000428086903D020F004000861704740F0AE
:101E60000400FAE702480168491C0160704700005D
:101E70009C0A00200F4810B5016841F00101016083
:101E800041680D4A1140416001680C4A11400160EF
:101E9000016821F480210160416821F4FE01416064
:101EA0004FF41F018160FFF77DFF05494FF000608F
:101EB000086010BD001002400000FFF8FFFFF6FEB2
:101EC00008ED00E070B5048C24F001040484058B57
:101ED000048C4FF6FF7606EA0313134325F0F3054F
:101EE0000E4A2B4390420ED00D4A90420BD0B0F1D7
:101EF000804F08D00B4A904205D00B4A904202D046
:101F00000A4A904202D124F0020201E024F00A02BF
:101F10000A4342F001010383018470BD002C01409B
:101F2000003401400004004000080040000C004064
:101F3000F0B5048C24F010040484078B048C4FF655
:101F4000FF7527F4734705EA03333B4305EA022292
:101F50001A43114B05EA011698420ED00F4B9842D6
:101F60000BD0B0F1804F08D00D4B984205D00D4BEF
:101F7000984202D00C4B984205D124F02001314305
:101F800041F0100104E024F0A0030B4343F01001E2
:101F900002830184F0BD0000002C014000340140A8
:101FA0000004004000080040000C004008B54FF459
:101FB0008070ADF8000010208DF8030003208DF82C
:101FC000020069460148FFF769FA08BD00080140B0
:101FD00070B502214E07304600F0CBFB3D4C78B186
:101FE0000221304600F0F7FA304600F0B9FB2080BD
:101FF0006188084481B23046BDE8704000F077BD8A
:102000000421304600F0B5FB0025F0B10421304634
:1020100000F0E1FA3048017859B130490A78521C91
:10202000D2B20A70032A04D905700D702C49012020
:102030000870304600F096FB2080A188084481B2E9
:102040003046BDE8704000F054BD0821304600F035
:1020500090FB78B10821304600F0BDFA304600F020
:1020600083FB2080E188084481B23046BDE870409F
:1020700000F041BD1021304600F0ADFA19481A4A6F
:102080000168491C0160107840B118480168491C7A
:102090000160B1F5167F01D90560157002F058F99D
:1020A00004F040FAE068401CE060642805DB10485A
:1020B000E5600178052900D20570304600F056FB36
:1020C00020802189084481B23046BDE8704000F08C
:1020D00014BD0000B80A0020B00A0020B10A002098
:1020E000B40A002018000020AB0A0020AC0A00202F
:1020F000600A00202DE9F04101210846FFF7ECFBC2
:102100002F481C2100250170457001268670C6707D
:10211000FFF788FB2B482C494FF080480068B0FB44
:10212000F1F0401E84B229484FF6FF71818005808E
:10213000C58045800146404600F00AFD0122214647
:10214000404600F0D1FC214C1D4F0A34103F258041
:1021500066807888E08025812146404600F0B4FB07
:102160000021404600F0F0FB6680B888E080214600
:10217000404600F0EFFB0021404600F02BFC66805B
:10218000F888E0802146404600F02EFC00214046C1
:1021900000F068FC66803889E0802146404600F007
:1021A00067FC0021404600F095FC01221E214046BC
:1021B00000F082FB4046BDE8F041012100F00EBA7C
:1021C000C80A0020580F0020808D5B00F21200200A
:1021D000B4280BD841F270714843B421B0FBF1F040
:1021E00000F2DC5081B2024800F081BC7047000070
:1021F00000040040B4280BD841F270714843B42168
:10220000B0FBF1F000F2DC5081B2024800F071BC8A
:10221000704700000004004038B5C020ADF8000051
:1022200018208DF8030003248DF802406946054804
:10223000FFF734F9ADF8004069460348FFF72EF97F
:1022400038BD000000080140000C014010B501211C
:102250000220FFF741FB0121BDE810401D20FFF7E0
:1022600053BB00002DE9F041FFF7F0FFFFF7D4FF6B
:1022700028482949294D00684EF66022B0FBF1F14B
:102280002748491E2981828001800027C780DFF806
:10229000948047800146404600F05AFC204C602064
:1022A0000A340126208066802888E0802781214624
:1022B000404600F009FB0821404600F045FB6680DF
:1022C0006888E0802146404600F044FB08214046F3
:1022D00000F080FB6680A888E0802146404600F040
:1022E00083FB0821404600F0BDFB6680E888E08063
:1022F0002146404600F0BCFB0821404600F0EAFBC6
:102300000121404600F05AF94046BDE8F041012164
:1023100000F064B9580F0020C0C62D00380F00200F
:102320000C1300200004004070B527A001F0C6F88F
:102330002A4D0821284600F01CFA012842D1284CD9
:10234000A08888B1A08801283CD126A001F0B6F869
:10235000284600F009FA608060882188884210D9F8
:1023600060882188401A12E022A001F0A7F82846D0
:1023700000F0FAF920800120A080BDE8704000F054
:1023800043B820884FF6FF71081A61880844A0609E
:10239000A0681B4948431B49B0FBF1F0E168884243
:1023A000E16801D9411A00E0091A022904D9E06064
:1023B000216909B1E06888470020A080BDE870402D
:1023C00000F05CB870BD0000BDF8C8EBB3ACC9F953
:1023D000B2A8D6D0B6CF2E2E2E2E00000008004078
:1023E000800A0020C9F9B2A8BBD8CFECBDD3CAD5AA
:1023F0002E2E2E00C9F9B2A8B7A2CBCD2E2E2E00BC
:10240000334A0500400D030010B50E4808210E4C5C
:10241000018002214180012181800021C180018150
:102420000146204600F0B2F90121204600F0D6F81E
:1024300001220821204600F03FFABDE8104003A029
:1024400001F03CB8681100200008004054494D34A8
:102450005F6368335F73746172745F636170747516
:1024600072655F46616C6C696E67B7A2CBCDBDE1EA
:10247000CAF82E2E2E330D0A0000000010B50E48AB
:10248000082101220180002141808280C1800181D8
:102490000A4C0146204600F079F90121204600F05F
:1024A0009DF801220821204600F006FABDE8104000
:1024B00003A001F003B800006811002000080040EC
:1024C00054494D345F6368335F73746172745F6342
:1024D0006170747572655F526973696E67B7A2CB7C
:1024E000CDBDE1CAF82E2E2E330D0A0010B50D4CCD
:1024F0000121204600F03DF9002812D0012120469C
:1025000000F069F8084C207800280AD060784FF471
:10251000807100F001020548FFF742F86078401C26
:10252000607010BD00100040A80A002000080140A3
:102530003EB536208DF8000003208DF80100022002
:102540008DF8020001208DF803006846FFF76AF954
:1025500001211020FFF7C0F9154C204600F048F883
:10256000144815490068B0FBF1F1491EADF80010A0
:102570000021ADF80610FA20ADF80210ADF8040005
:102580006946204600F0E4FA0121204600F020F8D8
:102590000121204600F012F800220121204600F01F
:1025A0008BF90121204600F019F800203EBD000003
:1025B00000100040580F002040420F000029018801
:1025C00002D041F0800101E021F0800101807047DC
:1025D000C94301827047C9430182704700290188BD
:1025E00002D041F0010101E021F0010101807047BA
:1025F0004B4910B5884202D10121C41486E0B0F1E4
:10260000804F09D0474988420DD101210220FFF7B0
:102610006FF90021022064E001210846FFF768F904
:10262000002101205DE04049884206D101210420BB
:10263000FFF75EF90021042053E03C49884206D1AF
:1026400001210820FFF754F90021082049E038490A
:10265000884206D101211020FFF74AF900211020FD
:102660003FE03449884206D101212020FFF740F99C
:102670000021202035E03049884202D10121441454
:1026800044E02E49884202D10121CC043EE02C498D
:10269000884202D101210C0538E02A49884202D142
:1026A00001214C0532E02849884206D10121402011
:1026B000FFF71EF90021402013E02449884206D18B
:1026C00001218020FFF714F90021802009E0204932
:1026D00088420AD1841501212046FFF709F900211B
:1026E0002046BDE81040FFF703B91A49884202D1DD
:1026F00001210C040AE01849884202D101214C044E
:1027000004E0164988420AD101218C042046FFF7D3
:1027100007F92046BDE810400021FFF701B910BDC0
:10272000002C01400004004000080040000C004064
:10273000001000400014004000340140004C0140F3
:10274000005001400054014000180040001C0040AF
:10275000002000400040014000440140004801408A
:10276000808E7047008F7047808F7047B0F84000B0
:10277000704702460020138A92890B4202EA010246
:1027800002D0002A00D00120704700002DE9F05F40
:102790000D4604460888434FDFF80CC1DFF80C8172
:1027A0004988AA882B894FF0804960B3042833D028
:1027B0004FF6FF7E082838D0208C9B4620F48050AE
:1027C0002084A38B268C704600EA022223F47343F4
:1027D0001A4300EA0B3010430EEA013EBC420BD014
:1027E000644509D04C4507D0444505D0304A944251
:1027F00002D0304B9C4248D126F4005141EA0E01F0
:1028000041F4805146E02046FFF75CFBE988204612
:10281000BDE8F05F00F074B92046FFF789FBE98856
:102820002046BDE8F05F00F073B9208C20F4807082
:102830002084B4F81CA0208C0EEA031313432AF062
:10284000F30A0EEA012B43EA0A03BC420BD06445AB
:1028500009D04C4507D0444505D0154A944202D0D2
:10286000144A944204D120F4007040EA0B0002E0C4
:1028700020F42060084340F48070A3832084E9881A
:102880002046BDE8F05F00F04FB926F402420A434B
:1028900042F48051A08320462184E988BDE8F05F9E
:1028A00000F04AB9002C014000340140000400400F
:1028B00000080040000C0040002A828901D00A4331
:1028C00000E08A438281704730B5028C22F0010219
:1028D0000284028C8388048B22F0020224F07305A8
:1028E0000C882C430D8915434A882A43114DA84270
:1028F0000BD0114DA84208D0104DA84205D0104D64
:10290000A84202D00F4DA8420DD122F008054A89F5
:1029100023F440732A4322F004058A882A438D89D0
:102920001D43CB892B4383800483C988818602841D
:1029300030BD0000002C0140003401400040014047
:102940000044014000480140028B22F008020A4383
:102950000283704770B5028C22F010020284028C50
:102960008488038B0D8823F4E6464FF6FF7303EA51
:10297000052535430E8922F0200203EA0616164388
:102980004A8803EA02123243104EB04202D0104E7F
:10299000B04215D122F080064A8924F4406403EA4B
:1029A0000212324322F040068A8803EA02123243BE
:1029B0008E8903EA86062643CC8903EA84043443DD
:1029C00084800583C9880187028470BD002C014082
:1029D00000340140028B4FF6FF7322F4006203EAD9
:1029E000012111430183704770B5028C22F480727B
:1029F0000284028C8488838B0D8823F073031D432B
:102A000022F400730E894FF6FF7202EA06261E4377
:102A10004B8802EA03233343104EB04202D0104EDB
:102A2000B04215D123F400664B8924F4405402EAE5
:102A30000323334323F480668B8802EA0323334362
:102A40008E8902EA06162643CC8902EA041434432E
:102A500084808583C9888187038470BD002C0140F0
:102A600000340140828B22F008020A4382837047BF
:102A700070B5028C22F480520284048C8288838B8D
:102A80000D8823F4E6464FF6FF7303EA0525354328
:102A900024F400560C8903EA043434434E8803EAD4
:102AA00006362643094CA04202D0094CA04205D16B
:102AB00022F480448A8903EA821222438280858339
:102AC000C988A0F84010068470BD0000002C0140A9
:102AD00000340140828B4FF6FF7322F4006203EA58
:102AE000012111438183704701858282704781866D
:102AF00070470187704781877047A0F84010704782
:102B0000028B22F00C020283028B0A43028370477D
:102B1000028B22F440620283028B4FF6FF7303EABA
:102B200001210A4302837047828B22F00C028283C8
:102B3000828B0A4382837047828B22F440628283B5
:102B4000828B4FF6FF7303EA01210A4382837047A9
:102B500030B502881B4B1C4C98420DD0A0420BD0C4
:102B6000B0F1804F08D0194DA84205D0184DA842A9
:102B700002D0184DA84203D122F070054A882A439A
:102B8000154DA84206D0154DA84203D022F4407539
:102B9000CA882A4302808A8882850A8802859842E8
:102BA0000AD0A04208D00E4A904205D00D4A904269
:102BB00002D00D4A904201D1097A01860121818219
:102BC00030BD0000002C01400034014000040040F2
:102BD00000080040000C00400010004000140040BD
:102BE00000400140004401400048014070B50D46DE
:102BF0000646144601214FF0C050FEF76DFE01203D
:102C0000FEF74CFEFFF768F84FF461604643C5EBF2
:102C1000051006EB80002044FFF73EF8BDE8704049
:102C2000FFF75AB870B50D4E40F22551304600F00E
:102C300076F9002810D00A4C01200025207065701C
:102C4000304600F0F9F9074A61885054491C88B2AF
:102C50006080FF2800D9658070BD0000004C0040F6
:102C6000B00A0020F211002070B52A49044686B04F
:102C7000088840F480700880088840F020000880B0
:102C800001214FF4A06334220846FEF779FD0121AB
:102C9000C804FEF721FE01211020FEF735FE1D4D70
:102CA0000C3D284600F0FAF82815ADF81000032076
:102CB0008DF812001820184E8DF8130004A9304624
:102CC000FEF7ECFBE814ADF8100004208DF81300BB
:102CD00004A93046FEF7E2FB0020ADF80400ADF891
:102CE0000600ADF80800ADF80C000C20ADF80A00A5
:102CF00000946946284600F049F9012240F2255126
:102D0000284600F02BF90121284600F0BCF806B057
:102D100070BD00000C4C004000100140014603480B
:102D200002885206FCD500F08BB90000004C004030
:102D300070B50D46044603E02078FFF7EFFF641CF2
:102D40006D1EEDB2F8D270BD10B586B00121052020
:102D5000FEF7DAFD01218803FEF7D6FD4FF400707F
:102D6000ADF8100018208DF8130003201A4C8DF8D0
:102D7000120004A92046FEF791FB2015ADF81000C3
:102D800004208DF8130004A92046FEF787FB4FF4BA
:102D9000E13000900020ADF80400ADF80600ADF879
:102DA0000800ADF80C000C200C4CADF80A00694688
:102DB000204600F0EBF8012240F22551204600F0B9
:102DC000CDF80121204600F05EF84021204600F0B9
:102DD00057F806B010BD000000080140003801405F
:102DE00010B5084C40F22551204600F098F8002814
:102DF00007D0204600F020F9BDE81040C0B203F033
:102E0000D7BB10BD0038014008B525208DF8000063
:102E100003208DF8010001208DF802008DF80300D9
:102E20006846FEF7FFFC08BD10B5FFF7EDFFBDE8F3
:102E30001040FFF789BF000010B5074C40F2255144
:102E4000204600F06CF8002804D02046BDE8104071
:102E500000F0F2B810BD00000044004010B5074C6F
:102E600040F22551204600F05AF8002804D02046B0
:102E7000BDE8104000F0E0B810BD00000048004080
:102E8000C943018070470029818902D041F4005173
:102E900001E021F40051818170470000174910B50D
:102EA00088420AD101218C032046FEF739FD2046D5
:102EB000BDE810400021FEF733BD1149884202D120
:102EC00001214C0410E00F49884202D101218C04F9
:102ED0000AE00D49884202D10121CC0404E00B49EB
:102EE00088420AD101210C052046FEF701FD20464B
:102EF000BDE810400021FEF7FBBC10BD00380140CA
:102F00000044004000480040004C00400050004099
:102F10000246002012880A4200D00120704730B5D6
:102F200001F01F0201240025C1F3421304FA02F24A
:102F3000012B0FD0022B0FD0838A4FEA112100887A
:102F4000134204FA01F400EA040001D000B10125A3
:102F5000284630BD8389F0E7038AEEE710B5C1F358
:102F6000421301F01F040121A140012B07D0022BC5
:102F700007D01430002A026805D00A4304E00C3060
:102F8000F8E71030F6E78A43026010BD30B504461A
:102F9000008A85B00D464CF6FF710840E988014370
:102FA0002182A1894EF6F3100140A8882A89104396
:102FB0006A890A431043A081A08A4FF6FF41084066
:102FC000A9890143A1826846FEF7C4FC19488442DE
:102FD00001D1039800E00298A189090400EBC00127
:102FE00001EB0010296801D5490000E08900B0FB21
:102FF000F1F06422B0FBF2F109010B096FF0180542
:103000006B4300EB8300A3891D044FF0320306D508
:1030100003EBC000B0FBF2F000F0070005E003EBAB
:103020000010B0FBF2F000F00F000843208105B063
:1030300030BD0000003801408088C0F308007047B0
:10304000C1F3080181807047F0B5A1B007466FA1B8
:10305000FDF7BAF860B106216EA0FEF733F800283C
:1030600001DA6EA000E072A000F028FA21B0F0BDF5
:1030700072A13846FDF7A8F80028F7D071A13846AC
:10308000FDF7A2F80024744D002838D0802168464E
:10309000FDF783F871A13846FDF796F8724E18B126
:1030A0000120307071A03DE073A13846FDF78CF827
:1030B0000028DBD073483470AC70047000F0DEFE82
:1030C00001F03CFC022001F024FA032001F021FA77
:1030D0006DA000F0F3F96FA1384600F07FF90246C9
:1030E0006EA1684600F0FAF96846FDF77FF8C1B2B4
:1030F0006846FDF7E7FF0028B8DA72A0B4E776A1CA
:103100003846FDF761F800282AD080216846FDF78F
:1031100044F852A13846FDF757F860B1AC7000F0A2
:1031200093FF71A000F0CAF95AA1384600F056F991
:10313000024670A1D5E750A13846FDF745F80028B2
:1031400094D076A000F0BAF952A1384600F046F9C2
:10315000024652A1684600F0C1F94AE0AC7085E72A
:1031600071A13846FDF730F8E0B176A000F0A6F97D
:1031700039467AA000F0A2F946A1384600F02EF9AF
:103180007BA1384600F02AF90646FDF751F80146C2
:1031900079A000F093F93046FDF74AF8C0B2FFF786
:1031A00017F826E07AA13846FDF70EF80028D6D0A9
:1031B0007EA000F083F9394668A000F07FF935A1C0
:1031C000384600F00BF96AA1384600F007F90646C8
:1031D00001467CA000F072F93046FDF729F801465F
:1031E00065A000F06BF93046FDF722F8C0B2FFF79A
:1031F00001F86846FCF7FAFFC1B26846FDF762FFC6
:103200000028ABDA2FA000F059F9A7E72423415496
:10321000230D0000244F4B23230D0000B7A2CBCD7C
:10322000D0C4CCF8B0FCCAA7B0DCA3A10D0A000042
:10323000D0C4CCF8B0FCA3A10D0A00002274223A3D
:103240003500000022617069746167223A2264656A
:1032500066656E73652200000800002022646174B8
:1032600061223A3100000000AA0A0020B2BCB7C0B7
:10327000A3A10D0A000000002264617461223A30AB
:1032800000000000600A0020B3B7B7C0A3A10D0A78
:1032900000000000636D6469640000007B227422FA
:1032A0003A362C22636D646964223A25732C2273AA
:1032B0007461747573223A302C2264617461223A0D
:1032C000307D0000B7A2CBCDCFECD3A6CAA7B0DC2F
:1032D000A3A10D0A000000002261706974616722D9
:1032E0003A226374726C2200BFAACBF8A3A10D0A24
:1032F000000000007B2274223A362C22636D646940
:1033000064223A25732C22737461747573223A30E7
:103310002C2264617461223A317D0000B9D8CBF867
:10332000A3A10D0A00000000226170697461672288
:103330003A22736572766F5F766572746963616C49
:1033400022000000B6E6BBFAB5C4B4B9D6B1B7BD29
:10335000CFF2B5F7D5FB0D0A00000000B4ABCAE40C
:10336000B5C4CAFDBEDDA3BA25730D0A0000000076
:103370006461746100000000BDE2CEF6B5C4BDC753
:10338000B6C8CAFDBEDDA3BA25640D0A0000000060
:1033900022617069746167223A22736572766F5F89
:1033A000686F72697A6F6E74616C2200B6E6BBFA60
:1033B000B5C4CBAEC6BDB7BDCFF2B5F7D5FB0D0AD0
:1033C00000000000BDE2CEF6B5C4BDC7B6C8CAFD58
:1033D000BEDDA3BA25730D0A0000000070B50C46CF
:1033E000054680211F48FCF7D8FE1FA12046FCF7A8
:1033F000EBFE10B122461EA106E01FA12046FCF7FD
:10340000E3FE20B122461EA1164800F067F81549D8
:103410002846FCF7D9FE04001ED01248FCF7E6FE51
:1034200040B2044480210F48FCF7B7FE0D4900204C
:103430002278A2F13003092B05D80A54401C40B26F
:10344000641C0A28F4DB08440022427005490EA0DF
:1034500000F034F8034870BD0EA000F02FF80020F3
:1034600070BD0000900F0020636D6469640000006F
:10347000222573223A00000064617461000000009C
:10348000222573223A220000CAFDD6B53D25730DD0
:103490000A000000BFD5D7D6B7FBA3A10D0A0000D4
:1034A00001A000F00BF8FBE7557361676546617595
:1034B0006C745F48616E646C657200000FB4054BFC
:1034C00010B503A9044A029800F0E2F810BC5DF8B8
:1034D00014FB000079400008800F00200FB4084B57
:1034E00010B504A902AA039800F0D2F8044602A974
:1034F000002000F064FC204610BC5DF814FB0000C6
:10350000BF3D0008004870478C0F002002E008C84B
:10351000121F08C1002AFAD170477047002001E04D
:1035200001C1121F002AFBD1704700002DE9FF5F87
:10353000DDE90220010DDDF838B0024318D044F671
:103540001050A1F2FF3141430D140F98012820D0F3
:10355000A5EB0B00401C5FEA000A4FF00004474E49
:10356000DFF81C91A046504616D5CAF1000728E0A6
:103570000F98012443A2012808D0002100980F9B36
:10358000C0E90021C0E90243BDE8FF9F6FEA0B01DB
:10359000F4E7CBF10000DEE7074612E0F80707D0BA
:1035A0002246334640464946FCF7F6FE80468946A9
:1035B0002246334610461946FCF7EEFE04460E46F8
:1035C0007F10002FEAD1DDE90201BAF1000F424677
:1035D0004B4602DAFCF7E0FE01E0FCF74FFF044641
:1035E0000E460022284BFCF7DDFF03D84FF0FF30DA
:1035F000014607E00022254B20463146FCF725FE18
:10360000FDF7F5F8102409E0002C0ADB0A2200235C
:10361000FCF7F6FF019B30321A55641E50EA010296
:10362000F2D1641C019AC4F1110314440F9A012AC7
:1036300003D0012208430DD10AE0084304D0002042
:103640004FF0110B0F9080E7A3EB0B056D1E0DE003
:103650005B4504DD4FF0000205F1010504E003DAEB
:103660004FF00002A5F10105002AECD000980F9957
:10367000C0E90231C0E9004586E7000000002440AF
:103680000000F03F300000000000F0430000E03F89
:103690002DE9FF4F95B09B468946064600250FE26F
:1036A000252877D100242746F84A0121059400E017
:1036B000044316F8013F203B01FA03F01042F7D112
:1036C00030782A2811D06FF02F033078A0F1300223
:1036D000092A16D8059A44F0020402EB820203EB91
:1036E00042021044761C0590EFE759F8042B05922E
:1036F000002A03DA504244F40054059044F00204D6
:10370000761C30782E2816D116F8010F44F00404E8
:103710002A280DD06FF02F023078A0F13003092B4A
:1037200009D807EB870302EB4303C718761CF3E7BE
:1037300059F8047B761C30786C280FD006DC4C28B6
:1037400017D068280DD06A2814D104E0742810D04E
:103750007A280FD10DE044F400140AE044F48014F8
:1037600001E044F440147278824202D104F58014DE
:10377000761C761C307866280BD013DC582877D05E
:1037800009DC002875D04528F6D04628F4D0472813
:103790001AD19DE118E0632835D0642879D06528D6
:1037A00012D195E1702873D008DC6728F1D0692820
:1037B0006FD06E280DD06F2806D1B5E073282CD0BD
:1037C000752875D0782874D05A46179990476D1C83
:1037D00075E1C4F30250022809D003280DD0D9F8AE
:1037E000001004280DD00D6009F1040967E1D9F833
:1037F0000010EA17C1E90052F6E7D9F800100D8071
:10380000F2E70D70F0E719F8041B8DF800100020A6
:103810008DF80100EA46012003E059F804AB4FF0AF
:10382000FF3061074FF0000102D40DE008F1010103
:103830008846B9420FDA8045F8DB1AF808100029EB
:10384000F4D108E008F1010188468142FADB1AF858
:1038500008100029F6D105985B46A0EB0807214621
:103860003846179A00F094FA284400EB080507E060
:103870004DE029E10DE01AF8010B5A4617999047DF
:10388000B8F10108F7D25B4621463846179A13E192
:1038900042E00A220092C4F302524FF0000A022AC8
:1038A00008D059F804CB032A4FEAEC710AD00DE096
:1038B00029E02AE009F1070121F00702F2E802C13C
:1038C000914609E00FFA8CFC4FEAEC71042A03D10F
:1038D0004FFA8CFC4FEAEC71002907DA0A46002106
:1038E000DCF1000C61EB02012D2202E0220504D57F
:1038F0002B228DF80420012203E0E20701D02022D0
:10390000F7E7904659E00A2102E010220DE010216D
:103910004FF0000A00910BE010224FF0000A44F033
:1039200004040827009203E008224FF0000A0092E6
:10393000C4F30252022A05D059F804CB0021032A0D
:1039400008D009E009F1070121F00702F2E802C1FD
:10395000914605E01FFA8CFC042A01D10CF0FF0C03
:103960004FF00008220728D5702806D0009B83F06E
:10397000100353EA0A0305D00EE040228DF804201C
:10398000012208E05CEA010206D030228DF8042012
:103990008DF8050002229046009B83F0080353EA4D
:1039A0000A030AD15CEA010201D1620705D530227F
:1039B0008DF804204FF001087F1E582804D034A051
:1039C00003900EA802900DE036A0F9E7534660463A
:1039D000009AFCF715FE84460398825C0298401E0C
:1039E000029002705CEA0100F0D1029806A9081A60
:1039F00000F1200A600702D524F4803400E001279A
:103A0000574502DDA7EB0A0000E0002000EB0A01A9
:103A1000009005984144401A0590E00306D45B46A7
:103A20002146179A059800F0B3F90544002706E0EF
:103A300001A85A46C05D179990476D1C7F1C4745E9
:103A4000F6DBE0030CD55B462146179A059800F09B
:103A50009FF9054404E030205A46179990476D1CA1
:103A60000099481E00900029F5DC08E002980299B0
:103A70005A460078491C0291179990476D1CBAF17B
:103A80000001AAF1010AF1DC65E10000092801004A
:103A900030313233343536373839616263646566C4
:103AA0000000000030313233343536373839414286
:103AB000434445460000000000F058F90544761CD8
:103AC000307800287FF4ECAD19B02846BDE8F08FBF
:103AD000620700D4062709F1070222F0070CFCE870
:103AE0000223E14603F000485FEA080C02D00FF21F
:103AF000702C0DE05FEA045C02D50FF2682C07E041
:103B00005FEAC47C02D00FF2602C01E0AFF2700CCF
:103B10004FF0FF3823F00043CDF850C065280CD09B
:103B200006DC452809D046281DD047283DD13DE078
:103B3000662818D067287ED138E00021112F01DBDC
:103B4000112000E0781CCDE9000106A90EA8FFF7BE
:103B5000EDFCDDE90F010E9A03910021009207F1BF
:103B6000010A04914DE04FF000400097CDE90110AB
:103B700006A90EA8FFF7DAFCDDE90F0203920E9BFF
:103B800011990022DDF80CA00093049211B9791C60
:103B900000EB010AB7EB0A0004D4C0F1FF3007F1D3
:103BA000010A0490AAEB0700019044E0012F00DA1B
:103BB00001270021112F01DD112000E03846CDE959
:103BC000000106A90EA8FFF7B1FCDDE90F010E9A6E
:103BD0000391002104910092BA4621070CD4039965
:103BE000514500DA8A46BAF1010F05DD009AAAF1C3
:103BF0000101515C302908D0B84202DA10F1040FFB
:103C000006DA0121CDE9011015E0AAF10101E9E789
:103C1000002805DC049901440491AAEB000102E0AC
:103C2000411C514500DD8A460499401A401C019010
:103C30004FF000400290200704D40198504501DB6A
:103C4000CDF8048000208DF84F0002980DF14F0749
:103C5000B0F1004F25D02B200E9002984FF00208B3
:103C600000280CDA404202902D200E9007E00A2135
:103C70000298FCF7AFFC3031029007F8011DB8F153
:103C80000001A8F10108F2DC02980028EFD1791EAA
:103C90000E980870307800F0200040F0450007F8DA
:103CA000020D12A8C01B00F107081498007800B19B
:103CB000012000EB0A01019801EBE07105984144F5
:103CC000401A401E0590E00306D45B462146179A31
:103CD000059800F05DF805441498007818B15A462C
:103CE000179990476D1CE00324D55B462146179A2F
:103CF000059800F04DF805441CE00498002807DB07
:103D0000DDE90301884203DD0098405C179901E07A
:103D1000179930205A469047049805F10105401C38
:103D200004900198401E019004D12E205A46179904
:103D300090476D1CBAF10001AAF1010ADDDC05E033
:103D400017F8010B5A46179990476D1CB8F10001FE
:103D5000A8F10108F4DC5B462146179A0598ABE60A
:103D60002D0000002B000000200000002DE9F04194
:103D7000044600251E461746880404D405E039464B
:103D80002020B0476D1C641EF9D52846BDE8F0819F
:103D90002DE9F041044600251E469046C80301D592
:103DA000302700E02027880404D505E04146384646
:103DB000B0476D1C641EF9D52846BDE8F0810A683D
:103DC000531C0B6010707047014908707047000069
:103DD0001C0000202DE9F0410E4607460024FDF7A7
:103DE0003FFB3420FDF7D4FAF50A700500D06D1CB6
:103DF000094E07E007EBC420FDF7D0FA042800D0F5
:103E0000FEE7641CAC4202D230780428F2D0FDF701
:103E1000F7FA0020BDE8F081420F002010B50B46F4
:103E2000014614461846FCF79FF9204610BDF8B528
:103E30000746002015460E4604460090FDF710FB8D
:103E40003420FDF7A5FA13E0201D854203D930196F
:103E50000068009004E02A1B31196846FCF784F9D9
:103E600038190099FDF7D4FA042800D0FEE7241D84
:103E7000AC42E9D3FDF7C4FA2846F8BD704710B547
:103E8000FEF756FBBDE81040FEF790B87047000003
:103E90000449002001F8010FC1F80200C8808860C1
:103EA000C86070471E0000202DE9F05FDFF8CCB03D
:103EB000FCF753FB324E00223346FCF76DFA00222A
:103EC000304BFCF7DBFA05460C4602460B46002059
:103ED0003146FCF75BFA07460E4600222A4B28467D
:103EE0002146FCF759FA3A463346FCF7C7FA0E4624
:103EF0002649054601F58C614FF08D0A03C9002261
:103F00005C465B46FCF748FA894620498046002219
:103F1000D1E900012346FCF73FFA04460F46002290
:103F2000134628463146FCF725FB0DD322463B4677
:103F300028463146FCF736FB06D342464B46284618
:103F40003146FCF717FB03D24FF0FF30BDE8F09F7E
:103F50000E4F002407EBC4010022D1E900015B46AB
:103F6000FCF71AFA2A463346FCF704FB02D9641C14
:103F70005445EFDBA4F11400E8E7000000408F4057
:103F800000C8A94000FEAF400088C340D00A00200E
:103F900010B5002141F2697405E0224602235B1C42
:103FA0009342FCDB491CB1EB400FF6DB10BD002156
:103FB00007E000BF00BF022200BF521C0A2AFBDB41
:103FC000491C8142F5DB704770B5064608291FD1B0
:103FD000104D002405EBC40108223046FCF70DF912
:103FE00018B1641C052CF5DB12E005EBC400FF22C0
:103FF0000821FCF7CBF8052C0ADA074D28242146C6
:104000002846FFF7E7FE224602492846FFF70FFF42
:10401000002070BDB80F002000F8070808B5012186
:104020004820FDF771FC0820ADF8000003208DF852
:10403000020010208DF8030069460248FDF72EFAB1
:1040400008BD00000018014010B509490120094CC5
:104050000870024608212046FDF7A2FA3220FFF739
:1040600097FF20460022BDE810400821FDF798BACE
:10407000AB0A00200018014070B5074D0446C1B2DC
:104080002846FEF7DDFF40212846FEF741FF0028C5
:10409000F9D0204670BD00000038014010B500285E
:1040A00021D0114B0022001F196803E0814203D880
:1040B0000A4649680029F9D152B11368841A9C4212
:1040C00004D1006818441060104602E0506000E01F
:1040D000186039B102680B1A934203D10B681A4475
:1040E00002604968416010BD840F0020052802D994
:1040F0004FF6FF707047034901EB400030F8020CA7
:10410000704700001E11002000B5024600F0F4F8D0
:1041100010B14FF0FF3000BD0849B1F9280001EBA4
:10412000400000881080088D1422401C00B290FBD3
:10413000F2F302FB13000885002000BD44100020AC
:1041400038B501210420FDF7DFFB01210820FDF730
:10415000DBFB1F20ADF8000003258DF8025048203E
:104160008DF8030069460B48FDF798F94FF4F844C1
:10417000ADF800408DF802501020074D8DF8030077
:1041800069462846FDF78AF921462846FDF702FAD6
:10419000002038BD00080140000C014010B5074C5C
:1041A0004FF480712046FDF7EEF928B961152046DD
:1041B000FDF7E9F9002800D0012010BD00100140F2
:1041C00008B501211020FDF79FFB4FF44070ADF8BA
:1041D000000003208DF8020048208DF80300694696
:1041E0000148FDF75BF908BD001001400148007867
:1041F00070470000AB0A002070B50646062912D1B0
:104200000A4D002404EB440005EB40010622304631
:10421000FBF7F3FF18B1641C052CF3DB03E0052C5E
:1042200001DA012070BD002070BD00009A0F00204F
:1042300070B50C46054601F0F3FE082C03D00DA026
:10424000FFF73CF914E0124E002400BF06EBC40156
:1042500008222846FBF7D1FF10B1641C052CF5DBC2
:1042600021460CA0FFF72AF9052C01DA012070BDC8
:10427000002070BD6C656E20213D2049445F4341A4
:1042800052445F5057445F4C454E0D0A00000000F9
:10429000B80F0020494420505744277320693D251A
:1042A000640D0A00124810B500F1140103880A8851
:1042B000934201D99B1A00E0D31A0E4A52889342C6
:1042C00011DC44884B889C4201D9E31A00E01B1B97
:1042D000934208DC80888988884201D9401A00E02E
:1042E000081A904201DD012010BD002010BD000021
:1042F0001E110020600A00200548B0F92810B0F90E
:104300002A00814201D1012070470020704700003F
:104310004410002010B5012219210C48FBF736FF8C
:104320000A48012219211930FBF730FF0748012202
:1043300019213230FBF72AFF04482C214B30FBF7C0
:104340002CFFFFF7FDFE002010BD0000F90F00203C
:104350002DE9FE4F5A4D5B4EDFF86C812878697865
:104360004FF0000B08434FF4F84709D13946304667
:10437000FDF710F94046FDF703F9C043C0067CD0B5
:10438000B9464F4F0024103749463046FDF704F92F
:1043900037F814103046FDF7FDF80120FFF707FE4F
:1043A0004046FDF7EDF86A68014604EB84030020FF
:1043B00002EB030221FA00F303F001031354401C43
:1043C0000528F7DB641C052CDEDB3D48002690F851
:1043D00002A04168029180680190019806EB86076F
:1043E00007EB00090298002407EB000837483D1846
:1043F00018F8041019F80400814246D1285D401CC9
:10440000C0B22855322802D93220285501E00228AE
:1044100020D32E4918F804004B3139440A5D9042EC
:1044200018D0085526490A7888B1521E0A704FF0F4
:10443000320A8DF8010039192148491CC9B21A30D5
:10444000405C8DF80000684601F06EFD20E0521CD3
:104450000A70EEE7295D51451AD318F80400B8B97F
:10446000022138198DF80110401C1549C0B21A31CB
:10447000085C8DF80000684600E01EE001F054FD85
:10448000012028554FF0040A02E0012028558346F8
:10449000641C052CACDB761C052E9EDB0848BBF1AA
:1044A000000F80F802A006D04268C2608168C0E9AF
:1044B0000112012100E000214170BDE8FE8F0000E3
:1044C0002C0A0020000C014000080140E00F0020F1
:1044D00070B500240021204600F0DEF800250121FF
:1044E000002000F0CBF96D1CEDB2402DF7D3402138
:1044F000204600F0D1F800250221002000F0BEF98E
:104500006D1CEDB2402DF7D3641CE4B2082CE1D34E
:1045100070BD70B505464600F0B2002100F0BCF851
:1045200000240121002000F0A9F9641CE4B2402C11
:10453000F7D3012000EB4505E8B2002100F0ACF80C
:1045400000240121002000F099F9641CE4B2402C01
:10455000F7D3F0B2402100F09FF8002402210020A0
:1045600000F08CF9641CE4B2402CF7D3E8B240218F
:1045700000F092F800240221002000F07FF9641C72
:10458000E4B2402CF7D370BD70B50646002500217B
:10459000284600F081F8002402E0402C04D007D225
:1045A00030784FF0010105E02146284600F074F80C
:1045B0003078022100F062F9641CE4B2761C802C91
:1045C000EBD36D1CEDB2082DE1D370BDF8B5012120
:1045D0006020FDF799F940F28370ADF800001024D7
:1045E0008DF8034003258DF8025069460D48FCF70D
:1045F00055FF8020ADF800000B4E8DF803408DF87C
:10460000025069463046FCF749FF4FF47F40ADF851
:1046100000008DF803408DF8025069463046FCF7E3
:104620003DFFF8BD001401400018014070B5FFF7D0
:10463000CDFF174C80212046FCF7ACFF25152946FD
:104640002046FCF7A7FF6420FFF7A2FC294620467E
:10465000FCF7A2FF6420FFF79BFC80210D48FCF7CC
:1046600099FF0120FFF7A3FC0121C02000F0A2F870
:1046700001213F2000F09EF80221C02000F09AF8AE
:1046800002213F2000F096F8BDE87040FFF720BF00
:10469000001401400018014070B50D46064640293F
:1046A00001D3022400E001242146C02000F082F85A
:1046B00005F03F002146403000F07CF806F007008E
:1046C0002146BDE87040B830C0B200F073B80000B9
:1046D0002DE9F84F904689468346032812D8B9F150
:1046E0000F0F0FD8B8F1000F0CD003EB0900102802
:1046F00002D9C9F11000C3B2002509EB030A4C46E8
:1047000000273DE04FF0FF30BDE8F88F082C01D3C3
:10471000022000E0012001460090C02000F04AF88D
:1047200005EB4B00C0B240F0B800009900F042F831
:104730003F2000EAC40040F04000009900F03AF841
:1047400018F80700000603D511A0FEF7B7FE13E026
:104750005FF0000618F80700154A2038C0B206EBD3
:10476000C501C9B202EB0010405C009900F086F868
:10477000761CF6B2082EEDD3641C7F1CE4B2FFB2A7
:10478000A245C3D86D1CEDB2022DB8D30020BBE703
:104790006E6F7420737570706F72742064697370BB
:1047A0006C6179206368696E6573650D0A000000AD
:1047B0003C0400202DE9F04706460C46012906D0AE
:1047C000022C04D0BDE8F04723A0FEF777BE294DA8
:1047D00002212846FCF7E0FE01F080FE0121284678
:1047E000FCF7D8FE4FF480784FF40079012C2DD0DF
:1047F00049462846FCF7D0FE02212846FCF7CAFEAF
:104800001D4F3846FCF7BCFEC0B240EA06213846D0
:10481000FCF7C4FE80213846FCF7BEFE0120FFF7FE
:10482000C6FB80213846FCF7B5FE0120FFF7BFFB31
:1048300002212846FCF7B0FE012C09D0022C09D138
:1048400049462846BDE8F047FCF7A4BE4146D0E7FC
:104850004146F6E7BDE8F087636F6E74726F6C6C6B
:1048600065725F6373282564296572726F722E2EDC
:104870002E0D0A0000140140001801402DE9F047F8
:1048800006460C46012906D0022C04D0BDE8F047AC
:1048900021A0FEF713BE274D02212846FCF77CFE1F
:1048A00001F01CFE01212846FCF776FE4FF48078CB
:1048B0004FF40079012C2BD049462846FCF76CFEBA
:1048C00002212846FCF766FE1B4F3846FCF758FECF
:1048D000C0B240EA06213846FCF760FE8021384627
:1048E000FCF75AFE0120FFF762FB80213846FCF7F7
:1048F00051FE0120FFF75BFB02212846FCF74CFE2E
:10490000012C07D049462846BDE8F047FCF742BED7
:104910004146D2E74146F6E7636F6E74726F6C6C86
:1049200065725F6373282564296572726F722E2E1B
:104930002E0D0A00001401400018014000224FF41F
:1049400080510148FCF72CBE0014014008B501213C
:104950002020FCF7D9FF4FF48050ADF80000032071
:104960008DF8020010208DF8030069460148FCF71D
:1049700095FD08BD00140140012211030148FCF718
:104980000FBE000000140140C8B000273D46FCF7F0
:1049900019FFFFF715FCFFF741FBFFF7D7FF89A0D1
:1049A000FEF78CFD0120FDF7C5F901F0ADFD01F02A
:1049B00019FA01F0CDFA01F033FB01F04BFB854C05
:1049C0008549208808800120FFF790FB6080022045
:1049D000FFF78CFBA0800320FFF788FBE08002B28A
:1049E000B4F90410B4F9020001F070FDDFF8EC81B5
:1049F000002688F80060E188A088CDE9000163887E
:104A0000228840F292617648FEF758FD142122A8D0
:104A1000FBF7C3FB73A122A8FEF760FD0020FFF7A0
:104A200078FD22A8FBF7E2FBC3B2002122AA0846C8
:104A3000FFF74EFE142122A8FBF7AFFB3A466EA10A
:104A400022A8FEF74BFD0120FFF763FD22A8FBF72C
:104A5000CDFBC3B222AA00210120FFF739FE1421A9
:104A600022A8FBF79AFB68A122A8FEF737FD0220D7
:104A7000FFF74FFD22A8FBF7B9FBC3B222AA002122
:104A80000220FFF725FE62A16AA0FCF70BF90100E6
:104A900006D06CA0FEF712FD7F1CFFB2032FB5D32A
:104AA000FCF7EEF8FFF714FDDFF8B8A1DFF8B891D6
:104AB0006E4C4FF47A77E06860B1E6606CA0A16854
:104AC000FEF7FCFCA06870A1B0FBF7F0C2B273A0C7
:104AD000FCF77AFB2078052813D2DFE800F0030604
:104AE000090C0F0000F0E2FD0CE000F05BF909E0BA
:104AF00000F0F6FB06E000F09DFF03E000F0A6FAF0
:104B000000E026700420FFF7F1FAFFF7CDF98542A7
:104B10000BD005460420FFF7E9FA014662A0FEF734
:104B2000CDFC294660A0FEF7C9FC01F039FD032841
:104B300016D962A0FEF7C2FC27A801F005FD27A93F
:104B400065A0FEF7BBFC27AA68A137A8FEF7C6FC44
:104B500067A0FEF7B3FC37A8FEF776FA01F00AFD6E
:104B60009AF8000060B102A96B48FCF785FA02A828
:104B7000FEF76AFA802102A8FBF70FFBFCF780F82A
:104B80002069B84215D32661A07810B1401CC2B28A
:104B900001E0624802783CA161A0FCF715FBFCF73C
:104BA0006FF899F8002038A15FA0FCF70DFBFCF727
:104BB00067F899F8000000287FF47DAFA67088F8A8
:104BC000006078E753544D33322073746172742E51
:104BD0002E2E000030000020620A0020600A002013
:104BE00008670008436F6E6E65637420746F2073EE
:104BF0006576657200000000547279202564207487
:104C0000696D6573000000002E2E2E202E2E2E00C2
:104C10006135626331326238663661643435303012
:104C200062386334376635663861386663643232B9
:104C300000000000787562696E677A65697368754F
:104C400061690000436F6E6E65637420546F20537A
:104C50006572766572204552524F523D25640D0AA9
:104C600000000000B40A0020AA0A0020080000206A
:104C7000B3ACC9F9B2A8B2E2BEE0A3BA253034643D
:104C8000206D6D0D0A000000323031382D30362D88
:104C900032302031343A31303A3236006E6C5F6C4B
:104CA000656E67746800000074656D70657261748C
:104CB0007572653A25640D0A00000000B4F2D3A1B4
:104CC000B4AEBFDABDD3CAD5B5BDB5C4CAFDBEDD6D
:104CD0002E2E2E0D0A000000BDD3CAD5B5BDB5C419
:104CE000CAFDBEDD3A25730D0A00000025730000E1
:104CF000BDF8C8EBB4AEBFDAA3ACCDA8B9FDB4AE75
:104D0000BFDAB8C4B1E4B4ABB8D0C6F7D7B4CCAC52
:104D10002E2E2E0D0A000000F2110020AB0A0020FA
:104D2000616C61726D000000446566656E73655369
:104D30007461746500000000F0B50B30154D20F073
:104D400007010024144A0FE003688B420BD38B4207
:104D500005D95E1A43184768C3E9006700E0436855
:104D6000136002C004E0021D10680028ECD1204648
:104D7000002802D1286808B10020F0BD064A074883
:104D80001060074A121A22F00702C0E9002401202D
:104D90002860D7E7880F0020840F00202C13002004
:104DA000281700202DE9F0418B4C00258B4E6078B0
:104DB00086B0002839D06570E0784FF014010028E3
:104DC000684603D0FBF7E9F985A102E0FBF7E5F9B6
:104DD00087A16846FEF782FB0020FFF79AFB684632
:104DE000FBF704FAC3B200216A460846FFF770FCDD
:104DF00014216846FBF7D1F900273078874201DAA1
:104E000080A100E080A16846FBF7D2F97F1C062F45
:104E1000F3DB0120FFF77DFB6846FBF7E7F9C3B240
:104E20006A4600210120FFF753FC784801270078EB
:104E3000002846D0FFF7B2F9E8B1FFF7D7F9D0B9AB
:104E4000A078C0B9A77014216846FBF7A6F970A135
:104E50006846FEF743FB0220FFF75BFB6846FBF763
:104E6000C5F9C3B26A4600210220FFF731FCFFF703
:104E70000DF8FFF781FDDFF8A48198F80000052800
:104E80001FD3FFF7B3F9E0B9A078D0B988F8005084
:104E9000A77014216846FBF780F961A16846FEF708
:104EA0001DFB0220FFF735FB6846FBF79FF9C3B2F5
:104EB0006A4600210220FFF70BFCFEF7E7FFFFF731
:104EC0005BFD05A8FFF720F9002831D167709DF838
:104ED000141019292CD2DFE801F00D0D0D0D0D0D68
:104EE0000D0D0D0D2B2B2B2B792B1A202E2B2B2B55
:104EF000343F79009DF81500002819D13078062834
:104F000016D24A4A1154401C24E025700BE09DF84B
:104F1000150000280CD1022004E09DF8150000289F
:104F200006D103202070E570FEF7B2FFFFF7D0FA3C
:104F300006B0BDE8F0819DF815000028F8D10420E6
:104F4000F0E79DF8150008B10228F1D1307800286B
:104F5000EED0401E3070EBE79DF815000028E7D139
:104F6000E0784FF47A7860B1307806282BD10621AA
:104F70002E4801F0B7F914216846FBF70EF92CA171
:104F80000CE031782948FFF737F908B1E7701AE0EB
:104F9000E57014216846FBF700F928A16846FEF782
:104FA0009DFA0320FFF7B5FA6846FBF71FF9C3B275
:104FB0006A4600210320FFF78BFB4046FEF7E8FF1F
:104FC0000320FFF7A6FAFEF763FFB1E79DF815008F
:104FD00000289AD0ACE70000080000201F00002045
:104FE000496E707574206E6577207077643A0000A2
:104FF0003220496E707574206F6C64207077643A4B
:10500000000000002A0000005F000000AA0A002043
:10501000495220414C45525400000000600A0020D3
:105020004D454D5320414C45525400002100002075
:1050300053617665207077640000000050617373DF
:10504000776F7264206572726F7200002DE9F04311
:105050008B4C4FF000098B4E607887B04D4688B37B
:10506000657014216846FBF798F887A16846FEF73B
:1050700035FA0020FFF74DFA6846FBF7B7F8C3B2E0
:1050800000216A460846FFF723FB14216846FBF718
:1050900084F800273078874201DA7FA100E07FA101
:1050A0006846FBF785F87F1C062FF3DB0120FFF72E
:1050B00030FA6846FBF79AF8C3B26A46002101202D
:1050C000FFF706FB7648DFF8DC810127007800282F
:1050D00044D0FFF763F8E8B1FFF788F8D0B9A078BB
:1050E000C0B9A77014216846FBF757F86EA168464F
:1050F000FEF7F4F90220FFF70CFA6846FBF776F8A2
:10510000C3B26A4600210220FFF7E2FAFEF7BEFEB4
:10511000FFF732FC98F8000005281FD3FFF766F868
:10512000E0B9A078D0B988F80050A770142168467B
:10513000FBF733F85FA16846FEF7D0F90220FFF7CE
:10514000E8F96846FBF752F8C3B26A46002102202C
:10515000FFF7BEFAFEF79AFEFFF70EFC05A8FEF772
:10516000D3FF002837D167709DF81410192932D267
:10517000DFE801F00D0D0D0D0D0D0D0D0D0D313193
:105180003131811A2026343131313A4581009DF880
:10519000150000281FD1307806281CD2484A115427
:1051A000401C2AE0257011E09DF81500002812D15E
:1051B00027700BE09DF8150000280CD1022004E0B8
:1051C0009DF81500002806D103202070A571FEF778
:1051D0005FFEFFF77DF907B0BDE8F0839DF815008D
:1051E0000028F8D10420F0E79DF8150008B1022846
:1051F000F1D130780028EED0401E3070EBE79DF8FA
:1052000015000028E7D131782D48FEF7F5FF4FF45F
:105210007A7698B1A57088F80050FEF72FFEFFF758
:105220008DFB0220FFF775F914216846FAF7B5FFE8
:105230004A4624A16846FEF751F907E01421684662
:10524000FAF7ABFF22A16846FEF748F90320FFF703
:1052500060F96846FAF7CAFFC3B26A460021032024
:10526000FFF736FA3046FEF793FE0320FFF751F9B9
:10527000FEF70EFEAFE79DF81500002892D0AAE7D2
:10528000080000201F0000203520496E7075742032
:105290007077643A000000002A0000005F00000000
:1052A000AA0A0020600A0020495220414C4552546D
:1052B000000000004D454D5320414C455254000024
:1052C00021000020436C65617220616C657274007E
:1052D00050617373776F7264206572726F72000031
:1052E0002DE9F041C54C0025C54E60788EB00028F0
:1052F00050D0657020794FF01401002806A81AD00C
:10530000FAF74BFFBFA106A8FEF7E8F80020FFF769
:1053100000F906A8FAF76AFFC3B2002106AA0846F8
:10532000FFF7D6F9142106A8FAF737FFB7A106A8A8
:10533000FEF7D4F822E0FAF730FFB8A106A8FEF78E
:10534000CDF80020FFF7E5F806A8FAF74FFFC3B243
:10535000002106AA0846FFF7BBF9142106A8FAF7B0
:105360001CFF00273078874201DAB0A100E0B0A12D
:1053700006A8FAF71DFF7F1C062FF3DB0120FFF7BD
:10538000C8F806A8FAF732FFC3B206AA0021012026
:10539000FFF79EF9A74801270078002846D0FEF7BE
:1053A000FDFEE8B1FEF722FFD0B9A078C0B9A77022
:1053B000142106A8FAF7F1FE9FA106A8FEF78EF8C1
:1053C0000220FFF7A6F806A8FAF710FFC3B206AA54
:1053D00000210220FFF77CF9FEF758FDFFF7CCFA19
:1053E000DFF8608298F8000005281FD3FEF7FEFE64
:1053F000E0B9A078D0B988F80050A770142106A8A9
:10540000FAF7CBFE90A106A8FEF768F80220FFF796
:1054100080F806A8FAF7EAFEC3B206AA0021022025
:10542000FFF756F9FEF732FDFFF7A6FA0DA8FEF7D3
:105430006BFE002876D167709DF834104FF47A78AF
:1054400019296FD2DFE801F00D0D0D0D0D0D0D0DB9
:105450000D0D6E186E6ED5736E797F6E6E6E8B96B7
:10546000D5009DF8350000285CD13078062859D247
:10547000784A1154401C7BE09DF83500002851D13A
:10548000207978B30B950BA80C95FCF757F928B148
:10549000142106A8FAF781FE6FA12CE09DF83000D8
:1054A00002AC9DF833309DF832209DF8311084E82D
:1054B0000F009DF82F109DF82E00CDE900019DF8FA
:1054C0002D309DF82C204FF45C716748FDF7F6FFF6
:1054D00008210BA8FEF778FD142106A8FAF75DFE57
:1054E00062A108E0FFE731785A48FEF785FE002800
:1054F00078D0277114E006A8FDF7F0FF0320FFF72E
:1055000008F806A8FAF772FEC3B206AA0021032023
:10551000FFF7DEF84046FEF73BFD0320FEF7F9FFFC
:10552000FEF7B6FC0EB0BDE8F081257011E09DF8E5
:1055300035000028F6D127700BE09DF835000028D3
:10554000F0D1032004E09DF835000028EAD10420C2
:1055500020702571FEF79CFCFEF7BAFFE2E79DF88C
:10556000350008B10228DDD130780028DAD0401E9D
:105570003070D7E79DF835000028D3D12079002876
:10558000B1D00B950BA80C95FCF7D8F828B11421D5
:1055900006A8FAF702FE38A1ADE79DF8300002AC8C
:1055A0009DF833309DF832209DF8311084E80F00CB
:1055B0009DF82F109DF82E00CDE900019DF82D30AB
:1055C0009DF82C204FF476712748FDF777FF0821CE
:1055D0000BA800F0C9FE142106A8FAF7DEFD2BA1E6
:1055E00089E7FFE72571142106A8FAF7D6FD2BA15C
:1055F00081E79DF83500002897D093E70800002048
:105600001F000020496420636172640041646420CB
:105610006F722064656C6574650000003320496E0C
:10562000707574207077643A000000002A00000052
:105630005F000000AA0A0020495220414C45525404
:1056400000000000600A00204D454D5320414C45AC
:10565000525400002100002044656C65746520668A
:10566000616C736500000000C466000844656C65E9
:105670007465206F6B000000526567697374657212
:1056800065642066616C736500000000526567699F
:10569000737465726564206F6B00000050617373F2
:1056A000776F7264206572726F7200002DE9F043AB
:1056B000C14DC24C8FB06878002688B36E7014213B
:1056C00006A8FAF76AFDBEA106A8FDF707FF0020AD
:1056D000FEF71FFF06A8FAF789FDC3B2002106AA4C
:1056E0000846FEF7F5FF142106A8FAF756FD002735
:1056F0002078874201DAB6A100E0B6A106A8FAF741
:1057000057FD7F1C062FF3DB0120FEF702FF06A8E2
:10571000FAF76CFDC3B206AA00210120FEF7D8FFFC
:105720000B960C96A8784FF47A7900285FD10BA8D5
:10573000FCF704F800285AD10B960BA80C96FBF73F
:10574000FDFF002853D19DF8300002AF9DF83330A3
:105750009DF832209DF8311087E80F009DF82F103A
:105760009DF82E00CDE900019DF82D309DF82C20EC
:1057700040F29F119848FDF7A1FE08210BA8FEF703
:1057800057FDB8B1FEF760FC142106A8FAF705FD35
:1057900092A106A8FDF7A2FE0320FEF7BAFE06A816
:1057A000FAF724FDC3B206AA00210320FEF790FFFA
:1057B000484617E0FEF76AFB142106A8FAF7EDFC4D
:1057C00089A106A8FDF78AFE0320FEF7A2FE06A81F
:1057D000FAF70CFDC3B206AA00210320FEF778FFFA
:1057E0004FF4FA70FEF7D4FB0320FEF792FE8248D6
:1057F000DFF8088201270078002840D0FEF7CEFCB1
:10580000D8B1FEF7F3FCC0B9AF70142106A8FAF7BF
:10581000C4FC7BA106A8FDF761FE0220FEF779FE1D
:1058200006A8FAF7E3FCC3B206AA00210220FEF79D
:105830004FFFFEF72BFBFFF79FF898F800000528B5
:105840001DD3FEF7D3FCD0B988F80060AF701421E7
:1058500006A8FAF7A2FC6DA106A8FDF73FFE0220FC
:10586000FEF757FE06A8FAF7C1FCC3B206AA00214C
:105870000220FEF72DFFFEF709FBFFF77DF80DA8CC
:10588000FEF742FC00283BD16F709DF834101929B7
:1058900036D2DFE801F00D0D0D0D0D0D0D0D0D0DC6
:1058A0001835353535383E444A35353556618F0023
:1058B0009DF83500002823D12078062820D2564AAA
:1058C0001154401C46E09DF8350008B1022817D15C
:1058D0000320FEF70BFC04460220FEF707FC0546FA
:1058E0000120FEF703FC034698F800000095CDE97F
:1058F00001404A484FF4F77102884948FDF7DEFD40
:105900000FB0BDE8F0839DF835000028F8D12F7066
:1059100011E09DF835000028F2D102200AE09DF840
:1059200035000028ECD1032004E09DF83500002864
:10593000E6D104202870FEF7ABFA00BFFEF7C8FDE1
:10594000DEE79DF8350008B10228D9D1207800287B
:10595000D6D0401E2070D3E79DF835000028CFD167
:1059600021782D48FEF748FC38B1FEF76DFB142175
:1059700006A8FAF712FC19A104E0142106A8FAF708
:105980000CFC28A106A8FDF7A9FD0320FEF7C1FD28
:1059900006A8FAF72BFCC3B206AA00210320FEF7E3
:1059A00097FE4846FEF7F4FA0320FEF7B2FDFEF735
:1059B0006FFAA5E72670C1E7080000201F0000204D
:1059C0003120496E707574207077643A00000000D1
:1059D0002A0000005F000000C4660008446F6F7278
:1059E000206F70656E00000049642063617264205E
:1059F0006572726F72000000AA0A0020600A00201F
:105A0000495220414C455254000000004D454D5331
:105A100020414C455254000021000020300000205D
:105A20004C67000850617373776F726420657272FF
:105A30006F7200002DE9F04FDFF824830027DFF8B4
:105A4000249398F80100C84E87B03D46002856D0F0
:105A500088F8015098F805004FF0140100286846B6
:105A60001ED0FAF79AFBC1A16846FDF737FD00206A
:105A7000FEF74FFD6846FAF7B9FBC3B200216A464C
:105A80000846FEF725FE002069464C46337803E0C1
:105A9000225C30320A54401C9842F9DB0D5422E05B
:105AA000FAF77BFBB5A16846FDF718FD0020FEF76D
:105AB00030FD6846FAF79AFBC3B200216A460846F1
:105AC000FEF706FE14216846FAF767FB00243078DB
:105AD000844201DAADA100E0ADA16846FAF768FBA7
